{
  "abi": [
    {
      "anonymous": false,
      "inputs": [
        {
          "indexed": true,
          "internalType": "address",
          "name": "owner",
          "type": "address"
        },
        {
          "indexed": true,
          "internalType": "address",
          "name": "spender",
          "type": "address"
        },
        {
          "indexed": false,
          "internalType": "uint256",
          "name": "value",
          "type": "uint256"
        }
      ],
      "name": "Approval",
      "type": "event"
    },
    {
      "anonymous": false,
      "inputs": [
        {
          "indexed": true,
          "internalType": "address",
          "name": "authorizer",
          "type": "address"
        },
        {
          "indexed": true,
          "internalType": "bytes32",
          "name": "nonce",
          "type": "bytes32"
        }
      ],
      "name": "AuthorizationCanceled",
      "type": "event"
    },
    {
      "anonymous": false,
      "inputs": [
        {
          "indexed": true,
          "internalType": "address",
          "name": "authorizer",
          "type": "address"
        },
        {
          "indexed": true,
          "internalType": "bytes32",
          "name": "nonce",
          "type": "bytes32"
        }
      ],
      "name": "AuthorizationUsed",
      "type": "event"
    },
    {
      "anonymous": false,
      "inputs": [
        {
          "indexed": true,
          "internalType": "address",
          "name": "_account",
          "type": "address"
        }
      ],
      "name": "Blacklisted",
      "type": "event"
    },
    {
      "anonymous": false,
      "inputs": [
        {
          "indexed": true,
          "internalType": "address",
          "name": "newBlacklister",
          "type": "address"
        }
      ],
      "name": "BlacklisterChanged",
      "type": "event"
    },
    {
      "anonymous": false,
      "inputs": [
        {
          "indexed": true,
          "internalType": "address",
          "name": "burner",
          "type": "address"
        },
        {
          "indexed": false,
          "internalType": "uint256",
          "name": "amount",
          "type": "uint256"
        }
      ],
      "name": "Burn",
      "type": "event"
    },
    {
      "anonymous": false,
      "inputs": [
        {
          "indexed": true,
          "internalType": "address",
          "name": "newMasterMinter",
          "type": "address"
        }
      ],
      "name": "MasterMinterChanged",
      "type": "event"
    },
    {
      "anonymous": false,
      "inputs": [
        {
          "indexed": true,
          "internalType": "address",
          "name": "minter",
          "type": "address"
        },
        {
          "indexed": true,
          "internalType": "address",
          "name": "to",
          "type": "address"
        },
        {
          "indexed": false,
          "internalType": "uint256",
          "name": "amount",
          "type": "uint256"
        }
      ],
      "name": "Mint",
      "type": "event"
    },
    {
      "anonymous": false,
      "inputs": [
        {
          "indexed": true,
          "internalType": "address",
          "name": "minter",
          "type": "address"
        },
        {
          "indexed": false,
          "internalType": "uint256",
          "name": "minterAllowedAmount",
          "type": "uint256"
        }
      ],
      "name": "MinterConfigured",
      "type": "event"
    },
    {
      "anonymous": false,
      "inputs": [
        {
          "indexed": true,
          "internalType": "address",
          "name": "oldMinter",
          "type": "address"
        }
      ],
      "name": "MinterRemoved",
      "type": "event"
    },
    {
      "anonymous": false,
      "inputs": [
        {
          "indexed": false,
          "internalType": "address",
          "name": "previousOwner",
          "type": "address"
        },
        {
          "indexed": false,
          "internalType": "address",
          "name": "newOwner",
          "type": "address"
        }
      ],
      "name": "OwnershipTransferred",
      "type": "event"
    },
    {
      "anonymous": false,
      "inputs": [],
      "name": "Pause",
      "type": "event"
    },
    {
      "anonymous": false,
      "inputs": [
        {
          "indexed": true,
          "internalType": "address",
          "name": "newAddress",
          "type": "address"
        }
      ],
      "name": "PauserChanged",
      "type": "event"
    },
    {
      "anonymous": false,
      "inputs": [
        {
          "indexed": true,
          "internalType": "address",
          "name": "newRescuer",
          "type": "address"
        }
      ],
      "name": "RescuerChanged",
      "type": "event"
    },
    {
      "anonymous": false,
      "inputs": [
        {
          "indexed": true,
          "internalType": "address",
          "name": "from",
          "type": "address"
        },
        {
          "indexed": true,
          "internalType": "address",
          "name": "to",
          "type": "address"
        },
        {
          "indexed": false,
          "internalType": "uint256",
          "name": "value",
          "type": "uint256"
        }
      ],
      "name": "Transfer",
      "type": "event"
    },
    {
      "anonymous": false,
      "inputs": [
        {
          "indexed": true,
          "internalType": "address",
          "name": "_account",
          "type": "address"
        }
      ],
      "name": "UnBlacklisted",
      "type": "event"
    },
    {
      "anonymous": false,
      "inputs": [],
      "name": "Unpause",
      "type": "event"
    },
    {
      "inputs": [],
      "name": "CANCEL_AUTHORIZATION_TYPEHASH",
      "outputs": [
        {
          "internalType": "bytes32",
          "name": "",
          "type": "bytes32"
        }
      ],
      "stateMutability": "view",
      "type": "function"
    },
    {
      "inputs": [],
      "name": "DOMAIN_SEPARATOR",
      "outputs": [
        {
          "internalType": "bytes32",
          "name": "",
          "type": "bytes32"
        }
      ],
      "stateMutability": "view",
      "type": "function"
    },
    {
      "inputs": [],
      "name": "PERMIT_TYPEHASH",
      "outputs": [
        {
          "internalType": "bytes32",
          "name": "",
          "type": "bytes32"
        }
      ],
      "stateMutability": "view",
      "type": "function"
    },
    {
      "inputs": [],
      "name": "RECEIVE_WITH_AUTHORIZATION_TYPEHASH",
      "outputs": [
        {
          "internalType": "bytes32",
          "name": "",
          "type": "bytes32"
        }
      ],
      "stateMutability": "view",
      "type": "function"
    },
    {
      "inputs": [],
      "name": "TRANSFER_WITH_AUTHORIZATION_TYPEHASH",
      "outputs": [
        {
          "internalType": "bytes32",
          "name": "",
          "type": "bytes32"
        }
      ],
      "stateMutability": "view",
      "type": "function"
    },
    {
      "inputs": [
        {
          "internalType": "address",
          "name": "owner",
          "type": "address"
        },
        {
          "internalType": "address",
          "name": "spender",
          "type": "address"
        }
      ],
      "name": "allowance",
      "outputs": [
        {
          "internalType": "uint256",
          "name": "",
          "type": "uint256"
        }
      ],
      "stateMutability": "view",
      "type": "function"
    },
    {
      "inputs": [
        {
          "internalType": "address",
          "name": "spender",
          "type": "address"
        },
        {
          "internalType": "uint256",
          "name": "value",
          "type": "uint256"
        }
      ],
      "name": "approve",
      "outputs": [
        {
          "internalType": "bool",
          "name": "",
          "type": "bool"
        }
      ],
      "stateMutability": "nonpayable",
      "type": "function"
    },
    {
      "inputs": [
        {
          "internalType": "address",
          "name": "authorizer",
          "type": "address"
        },
        {
          "internalType": "bytes32",
          "name": "nonce",
          "type": "bytes32"
        }
      ],
      "name": "authorizationState",
      "outputs": [
        {
          "internalType": "bool",
          "name": "",
          "type": "bool"
        }
      ],
      "stateMutability": "view",
      "type": "function"
    },
    {
      "inputs": [
        {
          "internalType": "address",
          "name": "account",
          "type": "address"
        }
      ],
      "name": "balanceOf",
      "outputs": [
        {
          "internalType": "uint256",
          "name": "",
          "type": "uint256"
        }
      ],
      "stateMutability": "view",
      "type": "function"
    },
    {
      "inputs": [
        {
          "internalType": "address",
          "name": "_account",
          "type": "address"
        }
      ],
      "name": "blacklist",
      "outputs": [],
      "stateMutability": "nonpayable",
      "type": "function"
    },
    {
      "inputs": [],
      "name": "blacklister",
      "outputs": [
        {
          "internalType": "address",
          "name": "",
          "type": "address"
        }
      ],
      "stateMutability": "view",
      "type": "function"
    },
    {
      "inputs": [
        {
          "internalType": "uint256",
          "name": "_amount",
          "type": "uint256"
        }
      ],
      "name": "burn",
      "outputs": [],
      "stateMutability": "nonpayable",
      "type": "function"
    },
    {
      "inputs": [
        {
          "internalType": "address",
          "name": "authorizer",
          "type": "address"
        },
        {
          "internalType": "bytes32",
          "name": "nonce",
          "type": "bytes32"
        },
        {
          "internalType": "uint8",
          "name": "v",
          "type": "uint8"
        },
        {
          "internalType": "bytes32",
          "name": "r",
          "type": "bytes32"
        },
        {
          "internalType": "bytes32",
          "name": "s",
          "type": "bytes32"
        }
      ],
      "name": "cancelAuthorization",
      "outputs": [],
      "stateMutability": "nonpayable",
      "type": "function"
    },
    {
      "inputs": [
        {
          "internalType": "address",
          "name": "minter",
          "type": "address"
        },
        {
          "internalType": "uint256",
          "name": "minterAllowedAmount",
          "type": "uint256"
        }
      ],
      "name": "configureMinter",
      "outputs": [
        {
          "internalType": "bool",
          "name": "",
          "type": "bool"
        }
      ],
      "stateMutability": "nonpayable",
      "type": "function"
    },
    {
      "inputs": [],
      "name": "currency",
      "outputs": [
        {
          "internalType": "string",
          "name": "",
          "type": "string"
        }
      ],
      "stateMutability": "view",
      "type": "function"
    },
    {
      "inputs": [],
      "name": "decimals",
      "outputs": [
        {
          "internalType": "uint8",
          "name": "",
          "type": "uint8"
        }
      ],
      "stateMutability": "view",
      "type": "function"
    },
    {
      "inputs": [
        {
          "internalType": "address",
          "name": "spender",
          "type": "address"
        },
        {
          "internalType": "uint256",
          "name": "decrement",
          "type": "uint256"
        }
      ],
      "name": "decreaseAllowance",
      "outputs": [
        {
          "internalType": "bool",
          "name": "",
          "type": "bool"
        }
      ],
      "stateMutability": "nonpayable",
      "type": "function"
    },
    {
      "inputs": [
        {
          "internalType": "address",
          "name": "spender",
          "type": "address"
        },
        {
          "internalType": "uint256",
          "name": "increment",
          "type": "uint256"
        }
      ],
      "name": "increaseAllowance",
      "outputs": [
        {
          "internalType": "bool",
          "name": "",
          "type": "bool"
        }
      ],
      "stateMutability": "nonpayable",
      "type": "function"
    },
    {
      "inputs": [
        {
          "internalType": "string",
          "name": "tokenName",
          "type": "string"
        },
        {
          "internalType": "string",
          "name": "tokenSymbol",
          "type": "string"
        },
        {
          "internalType": "string",
          "name": "tokenCurrency",
          "type": "string"
        },
        {
          "internalType": "uint8",
          "name": "tokenDecimals",
          "type": "uint8"
        },
        {
          "internalType": "address",
          "name": "newMasterMinter",
          "type": "address"
        },
        {
          "internalType": "address",
          "name": "newPauser",
          "type": "address"
        },
        {
          "internalType": "address",
          "name": "newBlacklister",
          "type": "address"
        },
        {
          "internalType": "address",
          "name": "newOwner",
          "type": "address"
        }
      ],
      "name": "initialize",
      "outputs": [],
      "stateMutability": "nonpayable",
      "type": "function"
    },
    {
      "inputs": [
        {
          "internalType": "string",
          "name": "newName",
          "type": "string"
        }
      ],
      "name": "initializeV2",
      "outputs": [],
      "stateMutability": "nonpayable",
      "type": "function"
    },
    {
      "inputs": [
        {
          "internalType": "address",
          "name": "lostAndFound",
          "type": "address"
        }
      ],
      "name": "initializeV2_1",
      "outputs": [],
      "stateMutability": "nonpayable",
      "type": "function"
    },
    {
      "inputs": [
        {
          "internalType": "address",
          "name": "_account",
          "type": "address"
        }
      ],
      "name": "isBlacklisted",
      "outputs": [
        {
          "internalType": "bool",
          "name": "",
          "type": "bool"
        }
      ],
      "stateMutability": "view",
      "type": "function"
    },
    {
      "inputs": [
        {
          "internalType": "address",
          "name": "account",
          "type": "address"
        }
      ],
      "name": "isMinter",
      "outputs": [
        {
          "internalType": "bool",
          "name": "",
          "type": "bool"
        }
      ],
      "stateMutability": "view",
      "type": "function"
    },
    {
      "inputs": [],
      "name": "masterMinter",
      "outputs": [
        {
          "internalType": "address",
          "name": "",
          "type": "address"
        }
      ],
      "stateMutability": "view",
      "type": "function"
    },
    {
      "inputs": [
        {
          "internalType": "address",
          "name": "_to",
          "type": "address"
        },
        {
          "internalType": "uint256",
          "name": "_amount",
          "type": "uint256"
        }
      ],
      "name": "mint",
      "outputs": [
        {
          "internalType": "bool",
          "name": "",
          "type": "bool"
        }
      ],
      "stateMutability": "nonpayable",
      "type": "function"
    },
    {
      "inputs": [
        {
          "internalType": "address",
          "name": "minter",
          "type": "address"
        }
      ],
      "name": "minterAllowance",
      "outputs": [
        {
          "internalType": "uint256",
          "name": "",
          "type": "uint256"
        }
      ],
      "stateMutability": "view",
      "type": "function"
    },
    {
      "inputs": [],
      "name": "name",
      "outputs": [
        {
          "internalType": "string",
          "name": "",
          "type": "string"
        }
      ],
      "stateMutability": "view",
      "type": "function"
    },
    {
      "inputs": [
        {
          "internalType": "address",
          "name": "owner",
          "type": "address"
        }
      ],
      "name": "nonces",
      "outputs": [
        {
          "internalType": "uint256",
          "name": "",
          "type": "uint256"
        }
      ],
      "stateMutability": "view",
      "type": "function"
    },
    {
      "inputs": [],
      "name": "owner",
      "outputs": [
        {
          "internalType": "address",
          "name": "",
          "type": "address"
        }
      ],
      "stateMutability": "view",
      "type": "function"
    },
    {
      "inputs": [],
      "name": "pause",
      "outputs": [],
      "stateMutability": "nonpayable",
      "type": "function"
    },
    {
      "inputs": [],
      "name": "paused",
      "outputs": [
        {
          "internalType": "bool",
          "name": "",
          "type": "bool"
        }
      ],
      "stateMutability": "view",
      "type": "function"
    },
    {
      "inputs": [],
      "name": "pauser",
      "outputs": [
        {
          "internalType": "address",
          "name": "",
          "type": "address"
        }
      ],
      "stateMutability": "view",
      "type": "function"
    },
    {
      "inputs": [
        {
          "internalType": "address",
          "name": "owner",
          "type": "address"
        },
        {
          "internalType": "address",
          "name": "spender",
          "type": "address"
        },
        {
          "internalType": "uint256",
          "name": "value",
          "type": "uint256"
        },
        {
          "internalType": "uint256",
          "name": "deadline",
          "type": "uint256"
        },
        {
          "internalType": "uint8",
          "name": "v",
          "type": "uint8"
        },
        {
          "internalType": "bytes32",
          "name": "r",
          "type": "bytes32"
        },
        {
          "internalType": "bytes32",
          "name": "s",
          "type": "bytes32"
        }
      ],
      "name": "permit",
      "outputs": [],
      "stateMutability": "nonpayable",
      "type": "function"
    },
    {
      "inputs": [
        {
          "internalType": "address",
          "name": "from",
          "type": "address"
        },
        {
          "internalType": "address",
          "name": "to",
          "type": "address"
        },
        {
          "internalType": "uint256",
          "name": "value",
          "type": "uint256"
        },
        {
          "internalType": "uint256",
          "name": "validAfter",
          "type": "uint256"
        },
        {
          "internalType": "uint256",
          "name": "validBefore",
          "type": "uint256"
        },
        {
          "internalType": "bytes32",
          "name": "nonce",
          "type": "bytes32"
        },
        {
          "internalType": "uint8",
          "name": "v",
          "type": "uint8"
        },
        {
          "internalType": "bytes32",
          "name": "r",
          "type": "bytes32"
        },
        {
          "internalType": "bytes32",
          "name": "s",
          "type": "bytes32"
        }
      ],
      "name": "receiveWithAuthorization",
      "outputs": [],
      "stateMutability": "nonpayable",
      "type": "function"
    },
    {
      "inputs": [
        {
          "internalType": "address",
          "name": "minter",
          "type": "address"
        }
      ],
      "name": "removeMinter",
      "outputs": [
        {
          "internalType": "bool",
          "name": "",
          "type": "bool"
        }
      ],
      "stateMutability": "nonpayable",
      "type": "function"
    },
    {
      "inputs": [
        {
          "internalType": "contract IERC20",
          "name": "tokenContract",
          "type": "address"
        },
        {
          "internalType": "address",
          "name": "to",
          "type": "address"
        },
        {
          "internalType": "uint256",
          "name": "amount",
          "type": "uint256"
        }
      ],
      "name": "rescueERC20",
      "outputs": [],
      "stateMutability": "nonpayable",
      "type": "function"
    },
    {
      "inputs": [],
      "name": "rescuer",
      "outputs": [
        {
          "internalType": "address",
          "name": "",
          "type": "address"
        }
      ],
      "stateMutability": "view",
      "type": "function"
    },
    {
      "inputs": [],
      "name": "symbol",
      "outputs": [
        {
          "internalType": "string",
          "name": "",
          "type": "string"
        }
      ],
      "stateMutability": "view",
      "type": "function"
    },
    {
      "inputs": [],
      "name": "totalSupply",
      "outputs": [
        {
          "internalType": "uint256",
          "name": "",
          "type": "uint256"
        }
      ],
      "stateMutability": "view",
      "type": "function"
    },
    {
      "inputs": [
        {
          "internalType": "address",
          "name": "to",
          "type": "address"
        },
        {
          "internalType": "uint256",
          "name": "value",
          "type": "uint256"
        }
      ],
      "name": "transfer",
      "outputs": [
        {
          "internalType": "bool",
          "name": "",
          "type": "bool"
        }
      ],
      "stateMutability": "nonpayable",
      "type": "function"
    },
    {
      "inputs": [
        {
          "internalType": "address",
          "name": "from",
          "type": "address"
        },
        {
          "internalType": "address",
          "name": "to",
          "type": "address"
        },
        {
          "internalType": "uint256",
          "name": "value",
          "type": "uint256"
        }
      ],
      "name": "transferFrom",
      "outputs": [
        {
          "internalType": "bool",
          "name": "",
          "type": "bool"
        }
      ],
      "stateMutability": "nonpayable",
      "type": "function"
    },
    {
      "inputs": [
        {
          "internalType": "address",
          "name": "newOwner",
          "type": "address"
        }
      ],
      "name": "transferOwnership",
      "outputs": [],
      "stateMutability": "nonpayable",
      "type": "function"
    },
    {
      "inputs": [
        {
          "internalType": "address",
          "name": "from",
          "type": "address"
        },
        {
          "internalType": "address",
          "name": "to",
          "type": "address"
        },
        {
          "internalType": "uint256",
          "name": "value",
          "type": "uint256"
        },
        {
          "internalType": "uint256",
          "name": "validAfter",
          "type": "uint256"
        },
        {
          "internalType": "uint256",
          "name": "validBefore",
          "type": "uint256"
        },
        {
          "internalType": "bytes32",
          "name": "nonce",
          "type": "bytes32"
        },
        {
          "internalType": "uint8",
          "name": "v",
          "type": "uint8"
        },
        {
          "internalType": "bytes32",
          "name": "r",
          "type": "bytes32"
        },
        {
          "internalType": "bytes32",
          "name": "s",
          "type": "bytes32"
        }
      ],
      "name": "transferWithAuthorization",
      "outputs": [],
      "stateMutability": "nonpayable",
      "type": "function"
    },
    {
      "inputs": [
        {
          "internalType": "address",
          "name": "_account",
          "type": "address"
        }
      ],
      "name": "unBlacklist",
      "outputs": [],
      "stateMutability": "nonpayable",
      "type": "function"
    },
    {
      "inputs": [],
      "name": "unpause",
      "outputs": [],
      "stateMutability": "nonpayable",
      "type": "function"
    },
    {
      "inputs": [
        {
          "internalType": "address",
          "name": "_newBlacklister",
          "type": "address"
        }
      ],
      "name": "updateBlacklister",
      "outputs": [],
      "stateMutability": "nonpayable",
      "type": "function"
    },
    {
      "inputs": [
        {
          "internalType": "address",
          "name": "_newMasterMinter",
          "type": "address"
        }
      ],
      "name": "updateMasterMinter",
      "outputs": [],
      "stateMutability": "nonpayable",
      "type": "function"
    },
    {
      "inputs": [
        {
          "internalType": "address",
          "name": "_newPauser",
          "type": "address"
        }
      ],
      "name": "updatePauser",
      "outputs": [],
      "stateMutability": "nonpayable",
      "type": "function"
    },
    {
      "inputs": [
        {
          "internalType": "address",
          "name": "newRescuer",
          "type": "address"
        }
      ],
      "name": "updateRescuer",
      "outputs": [],
      "stateMutability": "nonpayable",
      "type": "function"
    },
    {
      "inputs": [],
      "name": "version",
      "outputs": [
        {
          "internalType": "string",
          "name": "",
          "type": "string"
        }
      ],
      "stateMutability": "pure",
      "type": "function"
    }
  ],
  "bytecode": {
    "object": "0x60806040526001805460ff60a01b191690556000600b5534801561002257600080fd5b50600080546001600160a01b03191633179055613850806100446000396000f3fe608060405234801561001057600080fd5b50600436106102d65760003560e01c80637f2eecc311610182578063b2118a8d116100e9578063e3ee160e116100a2578063ef55bec61161007c578063ef55bec61461074d578063f2fde38b14610760578063f9f92be414610773578063fe575a871461078657600080fd5b8063e3ee160e146106f9578063e5a6b10f1461070c578063e94a01021461071457600080fd5b8063b2118a8d1461064d578063bd10243014610660578063d505accf14610673578063d608ea6414610686578063d916948714610699578063dd62ed3e146106c057600080fd5b8063a0cc6a681161013b578063a0cc6a68146105ae578063a457c2d7146105d5578063a9059cbb146105e8578063aa20e1e4146105fb578063aa271e1a1461060e578063ad38bf221461063a57600080fd5b80637f2eecc31461052a5780638456cb59146105515780638a6db9c3146105595780638da5cb5b1461058257806395d89b41146105935780639fd0506d1461059b57600080fd5b80633644e515116102415780634e44d956116101fa5780635a049a70116101d45780635a049a70146104b15780635c975abb146104c457806370a08231146104d85780637ecebe001461050157600080fd5b80634e44d9561461046e57806354fd4d5014610481578063554bab3c1461049e57600080fd5b80633644e5151461041357806338a631831461041c578063395093511461042d5780633f4ba83a1461044057806340c10f191461044857806342966c681461045b57600080fd5b80632fc81e09116102935780632fc81e09146103695780633092afd51461037c57806330adf81f1461038f578063313ce567146103b65780633357162b146103d557806335d99f35146103e857600080fd5b806306fdde03146102db578063095ea7b3146102f957806318160ddd1461031c5780631a8952661461032e57806323b872dd146103435780632ab6004514610356575b600080fd5b6102e36107b2565b6040516102f09190612ea2565b60405180910390f35b61030c610307366004612ef5565b610840565b60405190151581526020016102f0565b600b545b6040519081526020016102f0565b61034161033c366004612f21565b6108f7565b005b61030c610351366004612f3e565b61096a565b610341610364366004612f21565b610b2c565b610341610377366004612f21565b610c09565b61030c61038a366004612f21565b610c69565b6103207f6e71edae12b1b97f4d1f60370fef10105fa2faae0126114a169c64845d6126c981565b6006546103c39060ff1681565b60405160ff90911681526020016102f0565b6103416103e3366004613033565b610cf2565b6008546103fb906001600160a01b031681565b6040516001600160a01b0390911681526020016102f0565b610320600f5481565b600e546001600160a01b03166103fb565b61030c61043b366004612ef5565b610f5b565b610341610ffe565b61030c610456366004612ef5565b611060565b61034161046936600461310f565b611356565b61030c61047c366004612ef5565b611553565b6040805180820190915260018152601960f91b60208201526102e3565b6103416104ac366004612f21565b611615565b6103416104bf366004613128565b6116f0565b60015461030c90600160a01b900460ff1681565b6103206104e6366004612f21565b6001600160a01b031660009081526009602052604090205490565b61032061050f366004612f21565b6001600160a01b031660009081526011602052604090205490565b6103207fd099cc98ef71107a616c4f0f941f04c322d8e254fe26b3c6668db87aae413de881565b61034161172e565b610320610567366004612f21565b6001600160a01b03166000908152600d602052604090205490565b6000546001600160a01b03166103fb565b6102e3611796565b6001546103fb906001600160a01b031681565b6103207f7c7c6cdb67a18743f49ec6fa9b35f50d52ed05cbed4cc592e13b44501c1a226781565b61030c6105e3366004612ef5565b6117a3565b61030c6105f6366004612ef5565b611846565b610341610609366004612f21565b6118e9565b61030c61061c366004612f21565b6001600160a01b03166000908152600c602052604090205460ff1690565b610341610648366004612f21565b611983565b61034161065b366004612f3e565b611a68565b6002546103fb906001600160a01b031681565b610341610681366004613178565b611ae7565b6103416106943660046131e6565b611ba1565b6103207f158b0a9edf7a828aad02f63cd515c68ef2f50ba807396f6d12842833a159742981565b6103206106ce366004613258565b6001600160a01b039182166000908152600a6020908152604080832093909416825291909152205490565b610341610707366004613291565b611c40565b6102e3611cfe565b61030c610722366004612ef5565b6001600160a01b03919091166000908152601060209081526040808320938352929052205460ff1690565b61034161075b366004613291565b611d0b565b61034161076e366004612f21565b611dbc565b610341610781366004612f21565b611e9e565b61030c610794366004612f21565b6001600160a01b031660009081526003602052604090205460ff1690565b600480546107bf90613313565b80601f01602080910402602001604051908101604052809291908181526020018280546107eb90613313565b80156108385780601f1061080d57610100808354040283529160200191610838565b820191906000526020600020905b81548152906001019060200180831161081b57829003601f168201915b505050505081565b600154600090600160a01b900460ff16156108765760405162461bcd60e51b815260040161086d9061334d565b60405180910390fd5b3360008181526003602052604090205460ff16156108a65760405162461bcd60e51b815260040161086d90613377565b6001600160a01b038416600090815260036020526040902054849060ff16156108e15760405162461bcd60e51b815260040161086d90613377565b6108ec338686611f14565b506001949350505050565b6002546001600160a01b031633146109215760405162461bcd60e51b815260040161086d906133bc565b6001600160a01b038116600081815260036020526040808220805460ff19169055517f117e3210bb9aa7d9baff172026820255c6f6c30ba8999d1c2fd88e2848137c4e9190a250565b600154600090600160a01b900460ff16156109975760405162461bcd60e51b815260040161086d9061334d565b3360008181526003602052604090205460ff16156109c75760405162461bcd60e51b815260040161086d90613377565b6001600160a01b038516600090815260036020526040902054859060ff1615610a025760405162461bcd60e51b815260040161086d90613377565b6001600160a01b038516600090815260036020526040902054859060ff1615610a3d5760405162461bcd60e51b815260040161086d90613377565b6001600160a01b0387166000908152600a60209081526040808320338452909152902054851115610ac15760405162461bcd60e51b815260206004820152602860248201527f45524332303a207472616e7366657220616d6f756e74206578636565647320616044820152676c6c6f77616e636560c01b606482015260840161086d565b610acc878787612030565b6001600160a01b0387166000908152600a60209081526040808320338452909152902054610afa9086612213565b6001600160a01b0388166000908152600a60209081526040808320338452909152902055600193505050509392505050565b6000546001600160a01b03163314610b565760405162461bcd60e51b815260040161086d90613408565b6001600160a01b038116610bbf5760405162461bcd60e51b815260206004820152602a60248201527f526573637561626c653a206e6577207265736375657220697320746865207a65604482015269726f206164647265737360b01b606482015260840161086d565b600e80546001600160a01b0319166001600160a01b0383169081179091556040517fe475e580d85111348e40d8ca33cfdd74c30fe1655c2d8537a13abc10065ffa5a90600090a250565b60125460ff16600114610c1b57600080fd5b306000908152600960205260409020548015610c3c57610c3c308383612030565b5050306000908152600360205260409020805460ff19908116600117909155601280549091166002179055565b6008546000906001600160a01b03163314610c965760405162461bcd60e51b815260040161086d9061343d565b6001600160a01b0382166000818152600c60209081526040808320805460ff19169055600d909152808220829055517fe94479a9f7e1952cc78f2d6baab678adc1b772d936c6583def489e524cb666929190a25060015b919050565b600854600160a01b900460ff1615610d5f5760405162461bcd60e51b815260206004820152602a60248201527f46696174546f6b656e3a20636f6e747261637420697320616c726561647920696044820152691b9a5d1a585b1a5e995960b21b606482015260840161086d565b6001600160a01b038416610d855760405162461bcd60e51b815260040161086d90613486565b6001600160a01b038316610ded5760405162461bcd60e51b815260206004820152602960248201527f46696174546f6b656e3a206e65772070617573657220697320746865207a65726044820152686f206164647265737360b81b606482015260840161086d565b6001600160a01b038216610e5a5760405162461bcd60e51b815260206004820152602e60248201527f46696174546f6b656e3a206e657720626c61636b6c697374657220697320746860448201526d65207a65726f206164647265737360901b606482015260840161086d565b6001600160a01b038116610ec15760405162461bcd60e51b815260206004820152602860248201527f46696174546f6b656e3a206e6577206f776e657220697320746865207a65726f604482015267206164647265737360c01b606482015260840161086d565b6004610ecd8982613523565b506005610eda8882613523565b506007610ee78782613523565b506006805460ff191660ff8716179055600880546001600160a01b03199081166001600160a01b038781169190911790925560018054821686841617905560028054909116918416919091179055610f3e8161225c565b50506008805460ff60a01b1916600160a01b179055505050505050565b600154600090600160a01b900460ff1615610f885760405162461bcd60e51b815260040161086d9061334d565b3360008181526003602052604090205460ff1615610fb85760405162461bcd60e51b815260040161086d90613377565b6001600160a01b038416600090815260036020526040902054849060ff1615610ff35760405162461bcd60e51b815260040161086d90613377565b6108ec33868661227e565b6001546001600160a01b031633146110285760405162461bcd60e51b815260040161086d906135e3565b6001805460ff60a01b191690556040517f7805862f689e2f13df9f062ff482ad3ad112aca9e0847911ed832e158c525b3390600090a1565b600154600090600160a01b900460ff161561108d5760405162461bcd60e51b815260040161086d9061334d565b336000908152600c602052604090205460ff166110bc5760405162461bcd60e51b815260040161086d90613625565b3360008181526003602052604090205460ff16156110ec5760405162461bcd60e51b815260040161086d90613377565b6001600160a01b038416600090815260036020526040902054849060ff16156111275760405162461bcd60e51b815260040161086d90613377565b6001600160a01b0385166111895760405162461bcd60e51b815260206004820152602360248201527f46696174546f6b656e3a206d696e7420746f20746865207a65726f206164647260448201526265737360e81b606482015260840161086d565b600084116111eb5760405162461bcd60e51b815260206004820152602960248201527f46696174546f6b656e3a206d696e7420616d6f756e74206e6f7420677265617460448201526806572207468616e20360bc1b606482015260840161086d565b336000908152600d6020526040902054808511156112625760405162461bcd60e51b815260206004820152602e60248201527f46696174546f6b656e3a206d696e7420616d6f756e742065786365656473206d60448201526d696e746572416c6c6f77616e636560901b606482015260840161086d565b600b5461126f90866122bb565b600b556001600160a01b03861660009081526009602052604090205461129590866122bb565b6001600160a01b0387166000908152600960205260409020556112b88186612213565b336000818152600d602090815260409182902093909355518781526001600160a01b038916927fab8530f87dc9b59234c4623bf917212bb2536d647574c8e7e5da92c2ede0c9f8910160405180910390a36040518581526001600160a01b038716906000907fddf252ad1be2c89b69c2b068fc378daa952ba7f163c4a11628f55a4df523b3ef9060200160405180910390a350600195945050505050565b600154600160a01b900460ff16156113805760405162461bcd60e51b815260040161086d9061334d565b336000908152600c602052604090205460ff166113af5760405162461bcd60e51b815260040161086d90613625565b3360008181526003602052604090205460ff16156113df5760405162461bcd60e51b815260040161086d90613377565b336000908152600960205260409020548261144e5760405162461bcd60e51b815260206004820152602960248201527f46696174546f6b656e3a206275726e20616d6f756e74206e6f7420677265617460448201526806572207468616e20360bc1b606482015260840161086d565b828110156114ad5760405162461bcd60e51b815260206004820152602660248201527f46696174546f6b656e3a206275726e20616d6f756e7420657863656564732062604482015265616c616e636560d01b606482015260840161086d565b600b546114ba9084612213565b600b556114c78184612213565b33600081815260096020526040908190209290925590517fcc16f5dbb4873280815c1ee09dbd06736cffcc184412cf7a71a0fdb75d397ca59061150d9086815260200190565b60405180910390a260405183815260009033907fddf252ad1be2c89b69c2b068fc378daa952ba7f163c4a11628f55a4df523b3ef906020015b60405180910390a3505050565b600154600090600160a01b900460ff16156115805760405162461bcd60e51b815260040161086d9061334d565b6008546001600160a01b031633146115aa5760405162461bcd60e51b815260040161086d9061343d565b6001600160a01b0383166000818152600c60209081526040808320805460ff19166001179055600d82529182902085905590518481527f46980fca912ef9bcdbd36877427b6b90e860769f604e89c0e67720cece530d20910160405180910390a25060015b92915050565b6000546001600160a01b0316331461163f5760405162461bcd60e51b815260040161086d90613408565b6001600160a01b0381166116a65760405162461bcd60e51b815260206004820152602860248201527f5061757361626c653a206e65772070617573657220697320746865207a65726f604482015267206164647265737360c01b606482015260840161086d565b600180546001600160a01b0319166001600160a01b0383169081179091556040517fb80482a293ca2e013eda8683c9bd7fc8347cfdaeea5ede58cba46df502c2a60490600090a250565b600154600160a01b900460ff161561171a5760405162461bcd60e51b815260040161086d9061334d565b611727858585858561231a565b5050505050565b6001546001600160a01b031633146117585760405162461bcd60e51b815260040161086d906135e3565b6001805460ff60a01b1916600160a01b1790556040517f6985a02210a168e66602d3235cb6db0e70f92b3ba4d376a33c0f3d9434bff62590600090a1565b600580546107bf90613313565b600154600090600160a01b900460ff16156117d05760405162461bcd60e51b815260040161086d9061334d565b3360008181526003602052604090205460ff16156118005760405162461bcd60e51b815260040161086d90613377565b6001600160a01b038416600090815260036020526040902054849060ff161561183b5760405162461bcd60e51b815260040161086d90613377565b6108ec33868661244a565b600154600090600160a01b900460ff16156118735760405162461bcd60e51b815260040161086d9061334d565b3360008181526003602052604090205460ff16156118a35760405162461bcd60e51b815260040161086d90613377565b6001600160a01b038416600090815260036020526040902054849060ff16156118de5760405162461bcd60e51b815260040161086d90613377565b6108ec338686612030565b6000546001600160a01b031633146119135760405162461bcd60e51b815260040161086d90613408565b6001600160a01b0381166119395760405162461bcd60e51b815260040161086d90613486565b600880546001600160a01b0319166001600160a01b0383169081179091556040517fdb66dfa9c6b8f5226fe9aac7e51897ae8ee94ac31dc70bb6c9900b2574b707e690600090a250565b6000546001600160a01b031633146119ad5760405162461bcd60e51b815260040161086d90613408565b6001600160a01b038116611a1e5760405162461bcd60e51b815260206004820152603260248201527f426c61636b6c69737461626c653a206e657720626c61636b6c697374657220696044820152717320746865207a65726f206164647265737360701b606482015260840161086d565b600280546001600160a01b0319166001600160a01b0383169081179091556040517fc67398012c111ce95ecb7429b933096c977380ee6c421175a71a4a4c6c88c06e90600090a250565b600e546001600160a01b03163314611ace5760405162461bcd60e51b8152602060048201526024808201527f526573637561626c653a2063616c6c6572206973206e6f74207468652072657360448201526331bab2b960e11b606482015260840161086d565b611ae26001600160a01b0384168383612499565b505050565b600154600160a01b900460ff1615611b115760405162461bcd60e51b815260040161086d9061334d565b6001600160a01b038716600090815260036020526040902054879060ff1615611b4c5760405162461bcd60e51b815260040161086d90613377565b6001600160a01b038716600090815260036020526040902054879060ff1615611b875760405162461bcd60e51b815260040161086d90613377565b611b96898989898989896124eb565b505050505050505050565b600854600160a01b900460ff168015611bbd575060125460ff16155b611bc657600080fd5b6004611bd3828483613666565b50611c2c82828080601f016020809104026020016040519081016040528093929190818152602001838380828437600092019190915250506040805180820190915260018152601960f91b602082015291506126599050565b600f5550506012805460ff19166001179055565b600154600160a01b900460ff1615611c6a5760405162461bcd60e51b815260040161086d9061334d565b6001600160a01b038916600090815260036020526040902054899060ff1615611ca55760405162461bcd60e51b815260040161086d90613377565b6001600160a01b038916600090815260036020526040902054899060ff1615611ce05760405162461bcd60e51b815260040161086d90613377565b611cf18b8b8b8b8b8b8b8b8b6126cb565b5050505050505050505050565b600780546107bf90613313565b600154600160a01b900460ff1615611d355760405162461bcd60e51b815260040161086d9061334d565b6001600160a01b038916600090815260036020526040902054899060ff1615611d705760405162461bcd60e51b815260040161086d90613377565b6001600160a01b038916600090815260036020526040902054899060ff1615611dab5760405162461bcd60e51b815260040161086d90613377565b611cf18b8b8b8b8b8b8b8b8b6127b8565b6000546001600160a01b03163314611de65760405162461bcd60e51b815260040161086d90613408565b6001600160a01b038116611e4b5760405162461bcd60e51b815260206004820152602660248201527f4f776e61626c653a206e6577206f776e657220697320746865207a65726f206160448201526564647265737360d01b606482015260840161086d565b600054604080516001600160a01b03928316815291831660208301527f8be0079c531659141344cd1fd0a4f28419497f9722a3daafe3b4186f6b6457e0910160405180910390a1611e9b8161225c565b50565b6002546001600160a01b03163314611ec85760405162461bcd60e51b815260040161086d906133bc565b6001600160a01b038116600081815260036020526040808220805460ff19166001179055517fffa4e6181777692565cf28528fc88fd1516ea86b56da075235fa575af6a4b8559190a250565b6001600160a01b038316611f765760405162461bcd60e51b8152602060048201526024808201527f45524332303a20617070726f76652066726f6d20746865207a65726f206164646044820152637265737360e01b606482015260840161086d565b6001600160a01b038216611fd75760405162461bcd60e51b815260206004820152602260248201527f45524332303a20617070726f766520746f20746865207a65726f206164647265604482015261737360f01b606482015260840161086d565b6001600160a01b038381166000818152600a602090815260408083209487168084529482529182902085905590518481527f8c5be1e5ebec7d5bd14f71427d1e84f3dd0314c0f7b2291e5b200ac8c7c3b9259101611546565b6001600160a01b0383166120945760405162461bcd60e51b815260206004820152602560248201527f45524332303a207472616e736665722066726f6d20746865207a65726f206164604482015264647265737360d81b606482015260840161086d565b6001600160a01b0382166120f65760405162461bcd60e51b815260206004820152602360248201527f45524332303a207472616e7366657220746f20746865207a65726f206164647260448201526265737360e81b606482015260840161086d565b6001600160a01b03831660009081526009602052604090205481111561216d5760405162461bcd60e51b815260206004820152602660248201527f45524332303a207472616e7366657220616d6f756e7420657863656564732062604482015265616c616e636560d01b606482015260840161086d565b6001600160a01b0383166000908152600960205260409020546121909082612213565b6001600160a01b0380851660009081526009602052604080822093909355908416815220546121bf90826122bb565b6001600160a01b0380841660008181526009602052604090819020939093559151908516907fddf252ad1be2c89b69c2b068fc378daa952ba7f163c4a11628f55a4df523b3ef906115469085815260200190565b600061225583836040518060400160405280601e81526020017f536166654d6174683a207375627472616374696f6e206f766572666c6f77000081525061286a565b9392505050565b600080546001600160a01b0319166001600160a01b0392909216919091179055565b6001600160a01b038084166000908152600a6020908152604080832093861683529290522054611ae290849084906122b690856122bb565b611f14565b6000806122c8838561373c565b9050838110156122555760405162461bcd60e51b815260206004820152601b60248201527f536166654d6174683a206164646974696f6e206f766572666c6f770000000000604482015260640161086d565b61232485856128a4565b604080517f158b0a9edf7a828aad02f63cd515c68ef2f50ba807396f6d12842833a159742960208201526001600160a01b03871691810191909152606081018590526000906080016040516020818303038152906040529050856001600160a01b0316612396600f5486868686612933565b6001600160a01b0316146123ec5760405162461bcd60e51b815260206004820152601e60248201527f46696174546f6b656e56323a20696e76616c6964207369676e61747572650000604482015260640161086d565b6001600160a01b0386166000818152601060209081526040808320898452909152808220805460ff19166001179055518792917f1cdd46ff242716cdaa72d159d339a485b3438398348d68f09d7c8c0a59353d8191a3505050505050565b611ae283836122b6846040518060600160405280602581526020016137f6602591396001600160a01b03808a166000908152600a60209081526040808320938c1683529290522054919061286a565b604080516001600160a01b038416602482015260448082018490528251808303909101815260649091019091526020810180516001600160e01b031663a9059cbb60e01b179052611ae2908490612995565b4284101561253b5760405162461bcd60e51b815260206004820152601e60248201527f46696174546f6b656e56323a207065726d697420697320657870697265640000604482015260640161086d565b6001600160a01b038716600090815260116020526040812080547f6e71edae12b1b97f4d1f60370fef10105fa2faae0126114a169c64845d6126c9918a918a918a9190866125888361374f565b909155506040805160208101969096526001600160a01b0394851690860152929091166060840152608083015260a082015260c0810186905260e0016040516020818303038152906040529050876001600160a01b03166125ee600f5486868686612933565b6001600160a01b0316146126445760405162461bcd60e51b815260206004820152601a60248201527f454950323631323a20696e76616c6964207369676e6174757265000000000000604482015260640161086d565b61264f888888611f14565b5050505050505050565b8151602092830120815191830191909120604080517f8b73c3c69bb8fe3d512ecc4cf759cc79239f7b179b0ffacaa9a75d522b39400f818601528082019390935260608301919091524660808301523060a0808401919091528151808403909101815260c09092019052805191012090565b6126d789858888612a67565b604051600090612717907f7c7c6cdb67a18743f49ec6fa9b35f50d52ed05cbed4cc592e13b44501c1a2267908c908c908c908c908c908c90602001613768565b6040516020818303038152906040529050896001600160a01b0316612741600f5486868686612933565b6001600160a01b0316146127975760405162461bcd60e51b815260206004820152601e60248201527f46696174546f6b656e56323a20696e76616c6964207369676e61747572650000604482015260640161086d565b6127a18a86612b37565b6127ac8a8a8a612030565b50505050505050505050565b6001600160a01b038816331461281e5760405162461bcd60e51b815260206004820152602560248201527f46696174546f6b656e56323a2063616c6c6572206d7573742062652074686520604482015264706179656560d81b606482015260840161086d565b61282a89858888612a67565b604051600090612717907fd099cc98ef71107a616c4f0f941f04c322d8e254fe26b3c6668db87aae413de8908c908c908c908c908c908c90602001613768565b6000818484111561288e5760405162461bcd60e51b815260040161086d9190612ea2565b50600061289b84866137a4565b95945050505050565b6001600160a01b038216600090815260106020908152604080832084845290915290205460ff161561292f5760405162461bcd60e51b815260206004820152602e60248201527f46696174546f6b656e56323a20617574686f72697a6174696f6e20697320757360448201526d1959081bdc8818d85b98d95b195960921b606482015260840161086d565b5050565b60008086838051906020012060405160200161296692919061190160f01b81526002810192909252602282015260420190565b60405160208183030381529060405280519060200120905061298a81878787612b91565b979650505050505050565b60006129ea826040518060400160405280602081526020017f5361666545524332303a206c6f772d6c6576656c2063616c6c206661696c6564815250856001600160a01b0316612d489092919063ffffffff16565b805190915015611ae25780806020019051810190612a0891906137b7565b611ae25760405162461bcd60e51b815260206004820152602a60248201527f5361666545524332303a204552433230206f7065726174696f6e20646964206e6044820152691bdd081cdd58d8d9595960b21b606482015260840161086d565b814211612aca5760405162461bcd60e51b815260206004820152602b60248201527f46696174546f6b656e56323a20617574686f72697a6174696f6e206973206e6f60448201526a1d081e595d081d985b1a5960aa1b606482015260840161086d565b804210612b275760405162461bcd60e51b815260206004820152602560248201527f46696174546f6b656e56323a20617574686f72697a6174696f6e2069732065786044820152641c1a5c995960da1b606482015260840161086d565b612b3184846128a4565b50505050565b6001600160a01b0382166000818152601060209081526040808320858452909152808220805460ff19166001179055518392917f98de503528ee59b575ef0c0a2576a82497bfc029a5685b209e9ec333479b10a591a35050565b60007f7fffffffffffffffffffffffffffffff5d576e7357a4501ddfe92f46681b20a0821115612c125760405162461bcd60e51b815260206004820152602660248201527f45435265636f7665723a20696e76616c6964207369676e6174757265202773276044820152652076616c756560d01b606482015260840161086d565b8360ff16601b14158015612c2a57508360ff16601c14155b15612c865760405162461bcd60e51b815260206004820152602660248201527f45435265636f7665723a20696e76616c6964207369676e6174757265202776276044820152652076616c756560d01b606482015260840161086d565b6040805160008082526020820180845288905260ff871692820192909252606081018590526080810184905260019060a0016020604051602081039080840390855afa158015612cda573d6000803e3d6000fd5b5050604051601f1901519150506001600160a01b038116612d3d5760405162461bcd60e51b815260206004820152601c60248201527f45435265636f7665723a20696e76616c6964207369676e617475726500000000604482015260640161086d565b90505b949350505050565b6060612d4084846000856060612d5d85612e45565b612da95760405162461bcd60e51b815260206004820152601d60248201527f416464726573733a2063616c6c20746f206e6f6e2d636f6e7472616374000000604482015260640161086d565b600080866001600160a01b03168587604051612dc591906137d9565b60006040518083038185875af1925050503d8060008114612e02576040519150601f19603f3d011682016040523d82523d6000602084013e612e07565b606091505b50915091508115612e1b579150612d409050565b805115612e2b5780518082602001fd5b8360405162461bcd60e51b815260040161086d9190612ea2565b6000813f7fc5d2460186f7233c927e7db2dcc703c0e500b653ca82273b7bfad8045d85a470818114801590612d40575050151592915050565b60005b83811015612e99578181015183820152602001612e81565b50506000910152565b6020815260008251806020840152612ec1816040850160208701612e7e565b601f01601f19169190910160400192915050565b6001600160a01b0381168114611e9b57600080fd5b8035610ced81612ed5565b60008060408385031215612f0857600080fd5b8235612f1381612ed5565b946020939093013593505050565b600060208284031215612f3357600080fd5b813561225581612ed5565b600080600060608486031215612f5357600080fd5b8335612f5e81612ed5565b92506020840135612f6e81612ed5565b929592945050506040919091013590565b634e487b7160e01b600052604160045260246000fd5b600082601f830112612fa657600080fd5b813567ffffffffffffffff80821115612fc157612fc1612f7f565b604051601f8301601f19908116603f01168101908282118183101715612fe957612fe9612f7f565b8160405283815286602085880101111561300257600080fd5b836020870160208301376000602085830101528094505050505092915050565b803560ff81168114610ced57600080fd5b600080600080600080600080610100898b03121561305057600080fd5b883567ffffffffffffffff8082111561306857600080fd5b6130748c838d01612f95565b995060208b013591508082111561308a57600080fd5b6130968c838d01612f95565b985060408b01359150808211156130ac57600080fd5b506130b98b828c01612f95565b9650506130c860608a01613022565b94506130d660808a01612eea565b93506130e460a08a01612eea565b92506130f260c08a01612eea565b915061310060e08a01612eea565b90509295985092959890939650565b60006020828403121561312157600080fd5b5035919050565b600080600080600060a0868803121561314057600080fd5b853561314b81612ed5565b94506020860135935061316060408701613022565b94979396509394606081013594506080013592915050565b600080600080600080600060e0888a03121561319357600080fd5b873561319e81612ed5565b965060208801356131ae81612ed5565b955060408801359450606088013593506131ca60808901613022565b925060a0880135915060c0880135905092959891949750929550565b600080602083850312156131f957600080fd5b823567ffffffffffffffff8082111561321157600080fd5b818501915085601f83011261322557600080fd5b81358181111561323457600080fd5b86602082850101111561324657600080fd5b60209290920196919550909350505050565b6000806040838503121561326b57600080fd5b823561327681612ed5565b9150602083013561328681612ed5565b809150509250929050565b60008060008060008060008060006101208a8c0312156132b057600080fd5b89356132bb81612ed5565b985060208a01356132cb81612ed5565b975060408a0135965060608a0135955060808a0135945060a08a013593506132f560c08b01613022565b925060e08a013591506101008a013590509295985092959850929598565b600181811c9082168061332757607f821691505b60208210810361334757634e487b7160e01b600052602260045260246000fd5b50919050565b60208082526010908201526f14185d5cd8589b194e881c185d5cd95960821b604082015260600190565b60208082526025908201527f426c61636b6c69737461626c653a206163636f756e7420697320626c61636b6c6040820152641a5cdd195960da1b606082015260800190565b6020808252602c908201527f426c61636b6c69737461626c653a2063616c6c6572206973206e6f742074686560408201526b10313630b1b5b634b9ba32b960a11b606082015260800190565b6020808252818101527f4f776e61626c653a2063616c6c6572206973206e6f7420746865206f776e6572604082015260600190565b60208082526029908201527f46696174546f6b656e3a2063616c6c6572206973206e6f7420746865206d61736040820152683a32b926b4b73a32b960b91b606082015260800190565b6020808252602f908201527f46696174546f6b656e3a206e6577206d61737465724d696e746572206973207460408201526e6865207a65726f206164647265737360881b606082015260800190565b601f821115611ae257600081815260208120601f850160051c810160208610156134fc5750805b601f850160051c820191505b8181101561351b57828155600101613508565b505050505050565b815167ffffffffffffffff81111561353d5761353d612f7f565b6135518161354b8454613313565b846134d5565b602080601f831160018114613586576000841561356e5750858301515b600019600386901b1c1916600185901b17855561351b565b600085815260208120601f198616915b828110156135b557888601518255948401946001909101908401613596565b50858210156135d35787850151600019600388901b60f8161c191681555b5050505050600190811b01905550565b60208082526022908201527f5061757361626c653a2063616c6c6572206973206e6f7420746865207061757360408201526132b960f11b606082015260800190565b60208082526021908201527f46696174546f6b656e3a2063616c6c6572206973206e6f742061206d696e74656040820152603960f91b606082015260800190565b67ffffffffffffffff83111561367e5761367e612f7f565b6136928361368c8354613313565b836134d5565b6000601f8411600181146136c657600085156136ae5750838201355b600019600387901b1c1916600186901b178355611727565b600083815260209020601f19861690835b828110156136f757868501358255602094850194600190920191016136d7565b50868210156137145760001960f88860031b161c19848701351681555b505060018560011b0183555050505050565b634e487b7160e01b600052601160045260246000fd5b8082018082111561160f5761160f613726565b60006001820161376157613761613726565b5060010190565b9687526001600160a01b0395861660208801529390941660408601526060850191909152608084015260a083019190915260c082015260e00190565b8181038181111561160f5761160f613726565b6000602082840312156137c957600080fd5b8151801515811461225557600080fd5b600082516137eb818460208701612e7e565b919091019291505056fe45524332303a2064656372656173656420616c6c6f77616e63652062656c6f77207a65726fa26469706673582212201a7b98d8a51241def3451307574150b7e39930e077e968ce9836a1d8f4e5411864736f6c63430008150033",
    "linkReferences": {}
  },
  "methodIdentifiers": {
    "CANCEL_AUTHORIZATION_TYPEHASH()": "d9169487",
    "DOMAIN_SEPARATOR()": "3644e515",
    "PERMIT_TYPEHASH()": "30adf81f",
    "RECEIVE_WITH_AUTHORIZATION_TYPEHASH()": "7f2eecc3",
    "TRANSFER_WITH_AUTHORIZATION_TYPEHASH()": "a0cc6a68",
    "allowance(address,address)": "dd62ed3e",
    "approve(address,uint256)": "095ea7b3",
    "authorizationState(address,bytes32)": "e94a0102",
    "balanceOf(address)": "70a08231",
    "blacklist(address)": "f9f92be4",
    "blacklister()": "bd102430",
    "burn(uint256)": "42966c68",
    "cancelAuthorization(address,bytes32,uint8,bytes32,bytes32)": "5a049a70",
    "configureMinter(address,uint256)": "4e44d956",
    "currency()": "e5a6b10f",
    "decimals()": "313ce567",
    "decreaseAllowance(address,uint256)": "a457c2d7",
    "increaseAllowance(address,uint256)": "39509351",
    "initialize(string,string,string,uint8,address,address,address,address)": "3357162b",
    "initializeV2(string)": "d608ea64",
    "initializeV2_1(address)": "2fc81e09",
    "isBlacklisted(address)": "fe575a87",
    "isMinter(address)": "aa271e1a",
    "masterMinter()": "35d99f35",
    "mint(address,uint256)": "40c10f19",
    "minterAllowance(address)": "8a6db9c3",
    "name()": "06fdde03",
    "nonces(address)": "7ecebe00",
    "owner()": "8da5cb5b",
    "pause()": "8456cb59",
    "paused()": "5c975abb",
    "pauser()": "9fd0506d",
    "permit(address,address,uint256,uint256,uint8,bytes32,bytes32)": "d505accf",
    "receiveWithAuthorization(address,address,uint256,uint256,uint256,bytes32,uint8,bytes32,bytes32)": "ef55bec6",
    "removeMinter(address)": "3092afd5",
    "rescueERC20(address,address,uint256)": "b2118a8d",
    "rescuer()": "38a63183",
    "symbol()": "95d89b41",
    "totalSupply()": "18160ddd",
    "transfer(address,uint256)": "a9059cbb",
    "transferFrom(address,address,uint256)": "23b872dd",
    "transferOwnership(address)": "f2fde38b",
    "transferWithAuthorization(address,address,uint256,uint256,uint256,bytes32,uint8,bytes32,bytes32)": "e3ee160e",
    "unBlacklist(address)": "1a895266",
    "unpause()": "3f4ba83a",
    "updateBlacklister(address)": "ad38bf22",
    "updateMasterMinter(address)": "aa20e1e4",
    "updatePauser(address)": "554bab3c",
    "updateRescuer(address)": "2ab60045",
    "version()": "54fd4d50"
  },
  "id": 21
}