{
  "abi": [
    {
      "anonymous": false,
      "inputs": [
        {
          "indexed": true,
          "internalType": "address",
          "name": "owner",
          "type": "address"
        },
        {
          "indexed": true,
          "internalType": "address",
          "name": "spender",
          "type": "address"
        },
        {
          "indexed": false,
          "internalType": "uint256",
          "name": "value",
          "type": "uint256"
        }
      ],
      "name": "Approval",
      "type": "event"
    },
    {
      "anonymous": false,
      "inputs": [
        {
          "indexed": true,
          "internalType": "address",
          "name": "authorizer",
          "type": "address"
        },
        {
          "indexed": true,
          "internalType": "bytes32",
          "name": "nonce",
          "type": "bytes32"
        }
      ],
      "name": "AuthorizationCanceled",
      "type": "event"
    },
    {
      "anonymous": false,
      "inputs": [
        {
          "indexed": true,
          "internalType": "address",
          "name": "authorizer",
          "type": "address"
        },
        {
          "indexed": true,
          "internalType": "bytes32",
          "name": "nonce",
          "type": "bytes32"
        }
      ],
      "name": "AuthorizationUsed",
      "type": "event"
    },
    {
      "anonymous": false,
      "inputs": [
        {
          "indexed": true,
          "internalType": "address",
          "name": "_account",
          "type": "address"
        }
      ],
      "name": "Blacklisted",
      "type": "event"
    },
    {
      "anonymous": false,
      "inputs": [
        {
          "indexed": true,
          "internalType": "address",
          "name": "newBlacklister",
          "type": "address"
        }
      ],
      "name": "BlacklisterChanged",
      "type": "event"
    },
    {
      "anonymous": false,
      "inputs": [
        {
          "indexed": true,
          "internalType": "address",
          "name": "burner",
          "type": "address"
        },
        {
          "indexed": false,
          "internalType": "uint256",
          "name": "amount",
          "type": "uint256"
        }
      ],
      "name": "Burn",
      "type": "event"
    },
    {
      "anonymous": false,
      "inputs": [
        {
          "indexed": true,
          "internalType": "address",
          "name": "newMasterMinter",
          "type": "address"
        }
      ],
      "name": "MasterMinterChanged",
      "type": "event"
    },
    {
      "anonymous": false,
      "inputs": [
        {
          "indexed": true,
          "internalType": "address",
          "name": "minter",
          "type": "address"
        },
        {
          "indexed": true,
          "internalType": "address",
          "name": "to",
          "type": "address"
        },
        {
          "indexed": false,
          "internalType": "uint256",
          "name": "amount",
          "type": "uint256"
        }
      ],
      "name": "Mint",
      "type": "event"
    },
    {
      "anonymous": false,
      "inputs": [
        {
          "indexed": true,
          "internalType": "address",
          "name": "minter",
          "type": "address"
        },
        {
          "indexed": false,
          "internalType": "uint256",
          "name": "minterAllowedAmount",
          "type": "uint256"
        }
      ],
      "name": "MinterConfigured",
      "type": "event"
    },
    {
      "anonymous": false,
      "inputs": [
        {
          "indexed": true,
          "internalType": "address",
          "name": "oldMinter",
          "type": "address"
        }
      ],
      "name": "MinterRemoved",
      "type": "event"
    },
    {
      "anonymous": false,
      "inputs": [
        {
          "indexed": false,
          "internalType": "address",
          "name": "previousOwner",
          "type": "address"
        },
        {
          "indexed": false,
          "internalType": "address",
          "name": "newOwner",
          "type": "address"
        }
      ],
      "name": "OwnershipTransferred",
      "type": "event"
    },
    {
      "anonymous": false,
      "inputs": [],
      "name": "Pause",
      "type": "event"
    },
    {
      "anonymous": false,
      "inputs": [
        {
          "indexed": true,
          "internalType": "address",
          "name": "newAddress",
          "type": "address"
        }
      ],
      "name": "PauserChanged",
      "type": "event"
    },
    {
      "anonymous": false,
      "inputs": [
        {
          "indexed": true,
          "internalType": "address",
          "name": "newRescuer",
          "type": "address"
        }
      ],
      "name": "RescuerChanged",
      "type": "event"
    },
    {
      "anonymous": false,
      "inputs": [
        {
          "indexed": true,
          "internalType": "address",
          "name": "from",
          "type": "address"
        },
        {
          "indexed": true,
          "internalType": "address",
          "name": "to",
          "type": "address"
        },
        {
          "indexed": false,
          "internalType": "uint256",
          "name": "value",
          "type": "uint256"
        }
      ],
      "name": "Transfer",
      "type": "event"
    },
    {
      "anonymous": false,
      "inputs": [
        {
          "indexed": true,
          "internalType": "address",
          "name": "_account",
          "type": "address"
        }
      ],
      "name": "UnBlacklisted",
      "type": "event"
    },
    {
      "anonymous": false,
      "inputs": [],
      "name": "Unpause",
      "type": "event"
    },
    {
      "inputs": [],
      "name": "CANCEL_AUTHORIZATION_TYPEHASH",
      "outputs": [
        {
          "internalType": "bytes32",
          "name": "",
          "type": "bytes32"
        }
      ],
      "stateMutability": "view",
      "type": "function"
    },
    {
      "inputs": [],
      "name": "DOMAIN_SEPARATOR",
      "outputs": [
        {
          "internalType": "bytes32",
          "name": "",
          "type": "bytes32"
        }
      ],
      "stateMutability": "view",
      "type": "function"
    },
    {
      "inputs": [],
      "name": "PERMIT_TYPEHASH",
      "outputs": [
        {
          "internalType": "bytes32",
          "name": "",
          "type": "bytes32"
        }
      ],
      "stateMutability": "view",
      "type": "function"
    },
    {
      "inputs": [],
      "name": "RECEIVE_WITH_AUTHORIZATION_TYPEHASH",
      "outputs": [
        {
          "internalType": "bytes32",
          "name": "",
          "type": "bytes32"
        }
      ],
      "stateMutability": "view",
      "type": "function"
    },
    {
      "inputs": [],
      "name": "TRANSFER_WITH_AUTHORIZATION_TYPEHASH",
      "outputs": [
        {
          "internalType": "bytes32",
          "name": "",
          "type": "bytes32"
        }
      ],
      "stateMutability": "view",
      "type": "function"
    },
    {
      "inputs": [
        {
          "internalType": "address",
          "name": "owner",
          "type": "address"
        },
        {
          "internalType": "address",
          "name": "spender",
          "type": "address"
        }
      ],
      "name": "allowance",
      "outputs": [
        {
          "internalType": "uint256",
          "name": "",
          "type": "uint256"
        }
      ],
      "stateMutability": "view",
      "type": "function"
    },
    {
      "inputs": [
        {
          "internalType": "address",
          "name": "spender",
          "type": "address"
        },
        {
          "internalType": "uint256",
          "name": "value",
          "type": "uint256"
        }
      ],
      "name": "approve",
      "outputs": [
        {
          "internalType": "bool",
          "name": "",
          "type": "bool"
        }
      ],
      "stateMutability": "nonpayable",
      "type": "function"
    },
    {
      "inputs": [
        {
          "internalType": "address",
          "name": "authorizer",
          "type": "address"
        },
        {
          "internalType": "bytes32",
          "name": "nonce",
          "type": "bytes32"
        }
      ],
      "name": "authorizationState",
      "outputs": [
        {
          "internalType": "bool",
          "name": "",
          "type": "bool"
        }
      ],
      "stateMutability": "view",
      "type": "function"
    },
    {
      "inputs": [
        {
          "internalType": "address",
          "name": "account",
          "type": "address"
        }
      ],
      "name": "balanceOf",
      "outputs": [
        {
          "internalType": "uint256",
          "name": "",
          "type": "uint256"
        }
      ],
      "stateMutability": "view",
      "type": "function"
    },
    {
      "inputs": [
        {
          "internalType": "address",
          "name": "_account",
          "type": "address"
        }
      ],
      "name": "blacklist",
      "outputs": [],
      "stateMutability": "nonpayable",
      "type": "function"
    },
    {
      "inputs": [],
      "name": "blacklister",
      "outputs": [
        {
          "internalType": "address",
          "name": "",
          "type": "address"
        }
      ],
      "stateMutability": "view",
      "type": "function"
    },
    {
      "inputs": [
        {
          "internalType": "uint256",
          "name": "_amount",
          "type": "uint256"
        }
      ],
      "name": "burn",
      "outputs": [],
      "stateMutability": "nonpayable",
      "type": "function"
    },
    {
      "inputs": [
        {
          "internalType": "address",
          "name": "authorizer",
          "type": "address"
        },
        {
          "internalType": "bytes32",
          "name": "nonce",
          "type": "bytes32"
        },
        {
          "internalType": "uint8",
          "name": "v",
          "type": "uint8"
        },
        {
          "internalType": "bytes32",
          "name": "r",
          "type": "bytes32"
        },
        {
          "internalType": "bytes32",
          "name": "s",
          "type": "bytes32"
        }
      ],
      "name": "cancelAuthorization",
      "outputs": [],
      "stateMutability": "nonpayable",
      "type": "function"
    },
    {
      "inputs": [
        {
          "internalType": "address",
          "name": "minter",
          "type": "address"
        },
        {
          "internalType": "uint256",
          "name": "minterAllowedAmount",
          "type": "uint256"
        }
      ],
      "name": "configureMinter",
      "outputs": [
        {
          "internalType": "bool",
          "name": "",
          "type": "bool"
        }
      ],
      "stateMutability": "nonpayable",
      "type": "function"
    },
    {
      "inputs": [],
      "name": "currency",
      "outputs": [
        {
          "internalType": "string",
          "name": "",
          "type": "string"
        }
      ],
      "stateMutability": "view",
      "type": "function"
    },
    {
      "inputs": [],
      "name": "decimals",
      "outputs": [
        {
          "internalType": "uint8",
          "name": "",
          "type": "uint8"
        }
      ],
      "stateMutability": "view",
      "type": "function"
    },
    {
      "inputs": [
        {
          "internalType": "address",
          "name": "spender",
          "type": "address"
        },
        {
          "internalType": "uint256",
          "name": "decrement",
          "type": "uint256"
        }
      ],
      "name": "decreaseAllowance",
      "outputs": [
        {
          "internalType": "bool",
          "name": "",
          "type": "bool"
        }
      ],
      "stateMutability": "nonpayable",
      "type": "function"
    },
    {
      "inputs": [
        {
          "internalType": "address",
          "name": "spender",
          "type": "address"
        },
        {
          "internalType": "uint256",
          "name": "increment",
          "type": "uint256"
        }
      ],
      "name": "increaseAllowance",
      "outputs": [
        {
          "internalType": "bool",
          "name": "",
          "type": "bool"
        }
      ],
      "stateMutability": "nonpayable",
      "type": "function"
    },
    {
      "inputs": [
        {
          "internalType": "string",
          "name": "tokenName",
          "type": "string"
        },
        {
          "internalType": "string",
          "name": "tokenSymbol",
          "type": "string"
        },
        {
          "internalType": "string",
          "name": "tokenCurrency",
          "type": "string"
        },
        {
          "internalType": "uint8",
          "name": "tokenDecimals",
          "type": "uint8"
        },
        {
          "internalType": "address",
          "name": "newMasterMinter",
          "type": "address"
        },
        {
          "internalType": "address",
          "name": "newPauser",
          "type": "address"
        },
        {
          "internalType": "address",
          "name": "newBlacklister",
          "type": "address"
        },
        {
          "internalType": "address",
          "name": "newOwner",
          "type": "address"
        }
      ],
      "name": "initialize",
      "outputs": [],
      "stateMutability": "nonpayable",
      "type": "function"
    },
    {
      "inputs": [
        {
          "internalType": "string",
          "name": "newName",
          "type": "string"
        }
      ],
      "name": "initializeV2",
      "outputs": [],
      "stateMutability": "nonpayable",
      "type": "function"
    },
    {
      "inputs": [
        {
          "internalType": "address",
          "name": "_account",
          "type": "address"
        }
      ],
      "name": "isBlacklisted",
      "outputs": [
        {
          "internalType": "bool",
          "name": "",
          "type": "bool"
        }
      ],
      "stateMutability": "view",
      "type": "function"
    },
    {
      "inputs": [
        {
          "internalType": "address",
          "name": "account",
          "type": "address"
        }
      ],
      "name": "isMinter",
      "outputs": [
        {
          "internalType": "bool",
          "name": "",
          "type": "bool"
        }
      ],
      "stateMutability": "view",
      "type": "function"
    },
    {
      "inputs": [],
      "name": "masterMinter",
      "outputs": [
        {
          "internalType": "address",
          "name": "",
          "type": "address"
        }
      ],
      "stateMutability": "view",
      "type": "function"
    },
    {
      "inputs": [
        {
          "internalType": "address",
          "name": "_to",
          "type": "address"
        },
        {
          "internalType": "uint256",
          "name": "_amount",
          "type": "uint256"
        }
      ],
      "name": "mint",
      "outputs": [
        {
          "internalType": "bool",
          "name": "",
          "type": "bool"
        }
      ],
      "stateMutability": "nonpayable",
      "type": "function"
    },
    {
      "inputs": [
        {
          "internalType": "address",
          "name": "minter",
          "type": "address"
        }
      ],
      "name": "minterAllowance",
      "outputs": [
        {
          "internalType": "uint256",
          "name": "",
          "type": "uint256"
        }
      ],
      "stateMutability": "view",
      "type": "function"
    },
    {
      "inputs": [],
      "name": "name",
      "outputs": [
        {
          "internalType": "string",
          "name": "",
          "type": "string"
        }
      ],
      "stateMutability": "view",
      "type": "function"
    },
    {
      "inputs": [
        {
          "internalType": "address",
          "name": "owner",
          "type": "address"
        }
      ],
      "name": "nonces",
      "outputs": [
        {
          "internalType": "uint256",
          "name": "",
          "type": "uint256"
        }
      ],
      "stateMutability": "view",
      "type": "function"
    },
    {
      "inputs": [],
      "name": "owner",
      "outputs": [
        {
          "internalType": "address",
          "name": "",
          "type": "address"
        }
      ],
      "stateMutability": "view",
      "type": "function"
    },
    {
      "inputs": [],
      "name": "pause",
      "outputs": [],
      "stateMutability": "nonpayable",
      "type": "function"
    },
    {
      "inputs": [],
      "name": "paused",
      "outputs": [
        {
          "internalType": "bool",
          "name": "",
          "type": "bool"
        }
      ],
      "stateMutability": "view",
      "type": "function"
    },
    {
      "inputs": [],
      "name": "pauser",
      "outputs": [
        {
          "internalType": "address",
          "name": "",
          "type": "address"
        }
      ],
      "stateMutability": "view",
      "type": "function"
    },
    {
      "inputs": [
        {
          "internalType": "address",
          "name": "owner",
          "type": "address"
        },
        {
          "internalType": "address",
          "name": "spender",
          "type": "address"
        },
        {
          "internalType": "uint256",
          "name": "value",
          "type": "uint256"
        },
        {
          "internalType": "uint256",
          "name": "deadline",
          "type": "uint256"
        },
        {
          "internalType": "uint8",
          "name": "v",
          "type": "uint8"
        },
        {
          "internalType": "bytes32",
          "name": "r",
          "type": "bytes32"
        },
        {
          "internalType": "bytes32",
          "name": "s",
          "type": "bytes32"
        }
      ],
      "name": "permit",
      "outputs": [],
      "stateMutability": "nonpayable",
      "type": "function"
    },
    {
      "inputs": [
        {
          "internalType": "address",
          "name": "from",
          "type": "address"
        },
        {
          "internalType": "address",
          "name": "to",
          "type": "address"
        },
        {
          "internalType": "uint256",
          "name": "value",
          "type": "uint256"
        },
        {
          "internalType": "uint256",
          "name": "validAfter",
          "type": "uint256"
        },
        {
          "internalType": "uint256",
          "name": "validBefore",
          "type": "uint256"
        },
        {
          "internalType": "bytes32",
          "name": "nonce",
          "type": "bytes32"
        },
        {
          "internalType": "uint8",
          "name": "v",
          "type": "uint8"
        },
        {
          "internalType": "bytes32",
          "name": "r",
          "type": "bytes32"
        },
        {
          "internalType": "bytes32",
          "name": "s",
          "type": "bytes32"
        }
      ],
      "name": "receiveWithAuthorization",
      "outputs": [],
      "stateMutability": "nonpayable",
      "type": "function"
    },
    {
      "inputs": [
        {
          "internalType": "address",
          "name": "minter",
          "type": "address"
        }
      ],
      "name": "removeMinter",
      "outputs": [
        {
          "internalType": "bool",
          "name": "",
          "type": "bool"
        }
      ],
      "stateMutability": "nonpayable",
      "type": "function"
    },
    {
      "inputs": [
        {
          "internalType": "contract IERC20",
          "name": "tokenContract",
          "type": "address"
        },
        {
          "internalType": "address",
          "name": "to",
          "type": "address"
        },
        {
          "internalType": "uint256",
          "name": "amount",
          "type": "uint256"
        }
      ],
      "name": "rescueERC20",
      "outputs": [],
      "stateMutability": "nonpayable",
      "type": "function"
    },
    {
      "inputs": [],
      "name": "rescuer",
      "outputs": [
        {
          "internalType": "address",
          "name": "",
          "type": "address"
        }
      ],
      "stateMutability": "view",
      "type": "function"
    },
    {
      "inputs": [],
      "name": "symbol",
      "outputs": [
        {
          "internalType": "string",
          "name": "",
          "type": "string"
        }
      ],
      "stateMutability": "view",
      "type": "function"
    },
    {
      "inputs": [],
      "name": "totalSupply",
      "outputs": [
        {
          "internalType": "uint256",
          "name": "",
          "type": "uint256"
        }
      ],
      "stateMutability": "view",
      "type": "function"
    },
    {
      "inputs": [
        {
          "internalType": "address",
          "name": "to",
          "type": "address"
        },
        {
          "internalType": "uint256",
          "name": "value",
          "type": "uint256"
        }
      ],
      "name": "transfer",
      "outputs": [
        {
          "internalType": "bool",
          "name": "",
          "type": "bool"
        }
      ],
      "stateMutability": "nonpayable",
      "type": "function"
    },
    {
      "inputs": [
        {
          "internalType": "address",
          "name": "from",
          "type": "address"
        },
        {
          "internalType": "address",
          "name": "to",
          "type": "address"
        },
        {
          "internalType": "uint256",
          "name": "value",
          "type": "uint256"
        }
      ],
      "name": "transferFrom",
      "outputs": [
        {
          "internalType": "bool",
          "name": "",
          "type": "bool"
        }
      ],
      "stateMutability": "nonpayable",
      "type": "function"
    },
    {
      "inputs": [
        {
          "internalType": "address",
          "name": "newOwner",
          "type": "address"
        }
      ],
      "name": "transferOwnership",
      "outputs": [],
      "stateMutability": "nonpayable",
      "type": "function"
    },
    {
      "inputs": [
        {
          "internalType": "address",
          "name": "from",
          "type": "address"
        },
        {
          "internalType": "address",
          "name": "to",
          "type": "address"
        },
        {
          "internalType": "uint256",
          "name": "value",
          "type": "uint256"
        },
        {
          "internalType": "uint256",
          "name": "validAfter",
          "type": "uint256"
        },
        {
          "internalType": "uint256",
          "name": "validBefore",
          "type": "uint256"
        },
        {
          "internalType": "bytes32",
          "name": "nonce",
          "type": "bytes32"
        },
        {
          "internalType": "uint8",
          "name": "v",
          "type": "uint8"
        },
        {
          "internalType": "bytes32",
          "name": "r",
          "type": "bytes32"
        },
        {
          "internalType": "bytes32",
          "name": "s",
          "type": "bytes32"
        }
      ],
      "name": "transferWithAuthorization",
      "outputs": [],
      "stateMutability": "nonpayable",
      "type": "function"
    },
    {
      "inputs": [
        {
          "internalType": "address",
          "name": "_account",
          "type": "address"
        }
      ],
      "name": "unBlacklist",
      "outputs": [],
      "stateMutability": "nonpayable",
      "type": "function"
    },
    {
      "inputs": [],
      "name": "unpause",
      "outputs": [],
      "stateMutability": "nonpayable",
      "type": "function"
    },
    {
      "inputs": [
        {
          "internalType": "address",
          "name": "_newBlacklister",
          "type": "address"
        }
      ],
      "name": "updateBlacklister",
      "outputs": [],
      "stateMutability": "nonpayable",
      "type": "function"
    },
    {
      "inputs": [
        {
          "internalType": "address",
          "name": "_newMasterMinter",
          "type": "address"
        }
      ],
      "name": "updateMasterMinter",
      "outputs": [],
      "stateMutability": "nonpayable",
      "type": "function"
    },
    {
      "inputs": [
        {
          "internalType": "address",
          "name": "_newPauser",
          "type": "address"
        }
      ],
      "name": "updatePauser",
      "outputs": [],
      "stateMutability": "nonpayable",
      "type": "function"
    },
    {
      "inputs": [
        {
          "internalType": "address",
          "name": "newRescuer",
          "type": "address"
        }
      ],
      "name": "updateRescuer",
      "outputs": [],
      "stateMutability": "nonpayable",
      "type": "function"
    }
  ],
  "bytecode": {
    "object": "0x60806040526001805460ff60a01b191690556000600b5534801561002257600080fd5b50600080546001600160a01b0319163317905561378a806100446000396000f3fe608060405234801561001057600080fd5b50600436106102a05760003560e01c80638456cb5911610167578063bd102430116100ce578063e5a6b10f11610087578063e5a6b10f146106a6578063e94a0102146106ae578063ef55bec6146106e7578063f2fde38b146106fa578063f9f92be41461070d578063fe575a871461072057600080fd5b8063bd102430146105fa578063d505accf1461060d578063d608ea6414610620578063d916948714610633578063dd62ed3e1461065a578063e3ee160e1461069357600080fd5b8063a457c2d711610120578063a457c2d71461056f578063a9059cbb14610582578063aa20e1e414610595578063aa271e1a146105a8578063ad38bf22146105d4578063b2118a8d146105e757600080fd5b80638456cb59146104eb5780638a6db9c3146104f35780638da5cb5b1461051c57806395d89b411461052d5780639fd0506d14610535578063a0cc6a681461054857600080fd5b806338a631831161020b578063554bab3c116101c4578063554bab3c146104385780635a049a701461044b5780635c975abb1461045e57806370a08231146104725780637ecebe001461049b5780637f2eecc3146104c457600080fd5b806338a63183146103d357806339509351146103e45780633f4ba83a146103f757806340c10f19146103ff57806342966c68146104125780634e44d9561461042557600080fd5b80633092afd51161025d5780633092afd51461033357806330adf81f14610346578063313ce5671461036d5780633357162b1461038c57806335d99f351461039f5780633644e515146103ca57600080fd5b806306fdde03146102a5578063095ea7b3146102c357806318160ddd146102e65780631a895266146102f857806323b872dd1461030d5780632ab6004514610320575b600080fd5b6102ad61074c565b6040516102ba9190612ddc565b60405180910390f35b6102d66102d1366004612e2f565b6107da565b60405190151581526020016102ba565b600b545b6040519081526020016102ba565b61030b610306366004612e5b565b610891565b005b6102d661031b366004612e78565b610904565b61030b61032e366004612e5b565b610ac6565b6102d6610341366004612e5b565b610ba3565b6102ea7f6e71edae12b1b97f4d1f60370fef10105fa2faae0126114a169c64845d6126c981565b60065461037a9060ff1681565b60405160ff90911681526020016102ba565b61030b61039a366004612f6d565b610c2c565b6008546103b2906001600160a01b031681565b6040516001600160a01b0390911681526020016102ba565b6102ea600f5481565b600e546001600160a01b03166103b2565b6102d66103f2366004612e2f565b610e95565b61030b610f38565b6102d661040d366004612e2f565b610f9a565b61030b610420366004613049565b611290565b6102d6610433366004612e2f565b61148d565b61030b610446366004612e5b565b61154f565b61030b610459366004613062565b61162a565b6001546102d690600160a01b900460ff1681565b6102ea610480366004612e5b565b6001600160a01b031660009081526009602052604090205490565b6102ea6104a9366004612e5b565b6001600160a01b031660009081526011602052604090205490565b6102ea7fd099cc98ef71107a616c4f0f941f04c322d8e254fe26b3c6668db87aae413de881565b61030b611668565b6102ea610501366004612e5b565b6001600160a01b03166000908152600d602052604090205490565b6000546001600160a01b03166103b2565b6102ad6116d0565b6001546103b2906001600160a01b031681565b6102ea7f7c7c6cdb67a18743f49ec6fa9b35f50d52ed05cbed4cc592e13b44501c1a226781565b6102d661057d366004612e2f565b6116dd565b6102d6610590366004612e2f565b611780565b61030b6105a3366004612e5b565b611823565b6102d66105b6366004612e5b565b6001600160a01b03166000908152600c602052604090205460ff1690565b61030b6105e2366004612e5b565b6118bd565b61030b6105f5366004612e78565b6119a2565b6002546103b2906001600160a01b031681565b61030b61061b3660046130b2565b611a21565b61030b61062e366004613120565b611adb565b6102ea7f158b0a9edf7a828aad02f63cd515c68ef2f50ba807396f6d12842833a159742981565b6102ea610668366004613192565b6001600160a01b039182166000908152600a6020908152604080832093909416825291909152205490565b61030b6106a13660046131cb565b611b7a565b6102ad611c38565b6102d66106bc366004612e2f565b6001600160a01b03919091166000908152601060209081526040808320938352929052205460ff1690565b61030b6106f53660046131cb565b611c45565b61030b610708366004612e5b565b611cf6565b61030b61071b366004612e5b565b611dd8565b6102d661072e366004612e5b565b6001600160a01b031660009081526003602052604090205460ff1690565b600480546107599061324d565b80601f01602080910402602001604051908101604052809291908181526020018280546107859061324d565b80156107d25780601f106107a7576101008083540402835291602001916107d2565b820191906000526020600020905b8154815290600101906020018083116107b557829003601f168201915b505050505081565b600154600090600160a01b900460ff16156108105760405162461bcd60e51b815260040161080790613287565b60405180910390fd5b3360008181526003602052604090205460ff16156108405760405162461bcd60e51b8152600401610807906132b1565b6001600160a01b038416600090815260036020526040902054849060ff161561087b5760405162461bcd60e51b8152600401610807906132b1565b610886338686611e4e565b506001949350505050565b6002546001600160a01b031633146108bb5760405162461bcd60e51b8152600401610807906132f6565b6001600160a01b038116600081815260036020526040808220805460ff19169055517f117e3210bb9aa7d9baff172026820255c6f6c30ba8999d1c2fd88e2848137c4e9190a250565b600154600090600160a01b900460ff16156109315760405162461bcd60e51b815260040161080790613287565b3360008181526003602052604090205460ff16156109615760405162461bcd60e51b8152600401610807906132b1565b6001600160a01b038516600090815260036020526040902054859060ff161561099c5760405162461bcd60e51b8152600401610807906132b1565b6001600160a01b038516600090815260036020526040902054859060ff16156109d75760405162461bcd60e51b8152600401610807906132b1565b6001600160a01b0387166000908152600a60209081526040808320338452909152902054851115610a5b5760405162461bcd60e51b815260206004820152602860248201527f45524332303a207472616e7366657220616d6f756e74206578636565647320616044820152676c6c6f77616e636560c01b6064820152608401610807565b610a66878787611f6a565b6001600160a01b0387166000908152600a60209081526040808320338452909152902054610a94908661214d565b6001600160a01b0388166000908152600a60209081526040808320338452909152902055600193505050509392505050565b6000546001600160a01b03163314610af05760405162461bcd60e51b815260040161080790613342565b6001600160a01b038116610b595760405162461bcd60e51b815260206004820152602a60248201527f526573637561626c653a206e6577207265736375657220697320746865207a65604482015269726f206164647265737360b01b6064820152608401610807565b600e80546001600160a01b0319166001600160a01b0383169081179091556040517fe475e580d85111348e40d8ca33cfdd74c30fe1655c2d8537a13abc10065ffa5a90600090a250565b6008546000906001600160a01b03163314610bd05760405162461bcd60e51b815260040161080790613377565b6001600160a01b0382166000818152600c60209081526040808320805460ff19169055600d909152808220829055517fe94479a9f7e1952cc78f2d6baab678adc1b772d936c6583def489e524cb666929190a25060015b919050565b600854600160a01b900460ff1615610c995760405162461bcd60e51b815260206004820152602a60248201527f46696174546f6b656e3a20636f6e747261637420697320616c726561647920696044820152691b9a5d1a585b1a5e995960b21b6064820152608401610807565b6001600160a01b038416610cbf5760405162461bcd60e51b8152600401610807906133c0565b6001600160a01b038316610d275760405162461bcd60e51b815260206004820152602960248201527f46696174546f6b656e3a206e65772070617573657220697320746865207a65726044820152686f206164647265737360b81b6064820152608401610807565b6001600160a01b038216610d945760405162461bcd60e51b815260206004820152602e60248201527f46696174546f6b656e3a206e657720626c61636b6c697374657220697320746860448201526d65207a65726f206164647265737360901b6064820152608401610807565b6001600160a01b038116610dfb5760405162461bcd60e51b815260206004820152602860248201527f46696174546f6b656e3a206e6577206f776e657220697320746865207a65726f604482015267206164647265737360c01b6064820152608401610807565b6004610e07898261345d565b506005610e14888261345d565b506007610e21878261345d565b506006805460ff191660ff8716179055600880546001600160a01b03199081166001600160a01b038781169190911790925560018054821686841617905560028054909116918416919091179055610e7881612196565b50506008805460ff60a01b1916600160a01b179055505050505050565b600154600090600160a01b900460ff1615610ec25760405162461bcd60e51b815260040161080790613287565b3360008181526003602052604090205460ff1615610ef25760405162461bcd60e51b8152600401610807906132b1565b6001600160a01b038416600090815260036020526040902054849060ff1615610f2d5760405162461bcd60e51b8152600401610807906132b1565b6108863386866121b8565b6001546001600160a01b03163314610f625760405162461bcd60e51b81526004016108079061351d565b6001805460ff60a01b191690556040517f7805862f689e2f13df9f062ff482ad3ad112aca9e0847911ed832e158c525b3390600090a1565b600154600090600160a01b900460ff1615610fc75760405162461bcd60e51b815260040161080790613287565b336000908152600c602052604090205460ff16610ff65760405162461bcd60e51b81526004016108079061355f565b3360008181526003602052604090205460ff16156110265760405162461bcd60e51b8152600401610807906132b1565b6001600160a01b038416600090815260036020526040902054849060ff16156110615760405162461bcd60e51b8152600401610807906132b1565b6001600160a01b0385166110c35760405162461bcd60e51b815260206004820152602360248201527f46696174546f6b656e3a206d696e7420746f20746865207a65726f206164647260448201526265737360e81b6064820152608401610807565b600084116111255760405162461bcd60e51b815260206004820152602960248201527f46696174546f6b656e3a206d696e7420616d6f756e74206e6f7420677265617460448201526806572207468616e20360bc1b6064820152608401610807565b336000908152600d60205260409020548085111561119c5760405162461bcd60e51b815260206004820152602e60248201527f46696174546f6b656e3a206d696e7420616d6f756e742065786365656473206d60448201526d696e746572416c6c6f77616e636560901b6064820152608401610807565b600b546111a990866121f5565b600b556001600160a01b0386166000908152600960205260409020546111cf90866121f5565b6001600160a01b0387166000908152600960205260409020556111f2818661214d565b336000818152600d602090815260409182902093909355518781526001600160a01b038916927fab8530f87dc9b59234c4623bf917212bb2536d647574c8e7e5da92c2ede0c9f8910160405180910390a36040518581526001600160a01b038716906000907fddf252ad1be2c89b69c2b068fc378daa952ba7f163c4a11628f55a4df523b3ef9060200160405180910390a350600195945050505050565b600154600160a01b900460ff16156112ba5760405162461bcd60e51b815260040161080790613287565b336000908152600c602052604090205460ff166112e95760405162461bcd60e51b81526004016108079061355f565b3360008181526003602052604090205460ff16156113195760405162461bcd60e51b8152600401610807906132b1565b33600090815260096020526040902054826113885760405162461bcd60e51b815260206004820152602960248201527f46696174546f6b656e3a206275726e20616d6f756e74206e6f7420677265617460448201526806572207468616e20360bc1b6064820152608401610807565b828110156113e75760405162461bcd60e51b815260206004820152602660248201527f46696174546f6b656e3a206275726e20616d6f756e7420657863656564732062604482015265616c616e636560d01b6064820152608401610807565b600b546113f4908461214d565b600b55611401818461214d565b33600081815260096020526040908190209290925590517fcc16f5dbb4873280815c1ee09dbd06736cffcc184412cf7a71a0fdb75d397ca5906114479086815260200190565b60405180910390a260405183815260009033907fddf252ad1be2c89b69c2b068fc378daa952ba7f163c4a11628f55a4df523b3ef906020015b60405180910390a3505050565b600154600090600160a01b900460ff16156114ba5760405162461bcd60e51b815260040161080790613287565b6008546001600160a01b031633146114e45760405162461bcd60e51b815260040161080790613377565b6001600160a01b0383166000818152600c60209081526040808320805460ff19166001179055600d82529182902085905590518481527f46980fca912ef9bcdbd36877427b6b90e860769f604e89c0e67720cece530d20910160405180910390a25060015b92915050565b6000546001600160a01b031633146115795760405162461bcd60e51b815260040161080790613342565b6001600160a01b0381166115e05760405162461bcd60e51b815260206004820152602860248201527f5061757361626c653a206e65772070617573657220697320746865207a65726f604482015267206164647265737360c01b6064820152608401610807565b600180546001600160a01b0319166001600160a01b0383169081179091556040517fb80482a293ca2e013eda8683c9bd7fc8347cfdaeea5ede58cba46df502c2a60490600090a250565b600154600160a01b900460ff16156116545760405162461bcd60e51b815260040161080790613287565b6116618585858585612254565b5050505050565b6001546001600160a01b031633146116925760405162461bcd60e51b81526004016108079061351d565b6001805460ff60a01b1916600160a01b1790556040517f6985a02210a168e66602d3235cb6db0e70f92b3ba4d376a33c0f3d9434bff62590600090a1565b600580546107599061324d565b600154600090600160a01b900460ff161561170a5760405162461bcd60e51b815260040161080790613287565b3360008181526003602052604090205460ff161561173a5760405162461bcd60e51b8152600401610807906132b1565b6001600160a01b038416600090815260036020526040902054849060ff16156117755760405162461bcd60e51b8152600401610807906132b1565b610886338686612384565b600154600090600160a01b900460ff16156117ad5760405162461bcd60e51b815260040161080790613287565b3360008181526003602052604090205460ff16156117dd5760405162461bcd60e51b8152600401610807906132b1565b6001600160a01b038416600090815260036020526040902054849060ff16156118185760405162461bcd60e51b8152600401610807906132b1565b610886338686611f6a565b6000546001600160a01b0316331461184d5760405162461bcd60e51b815260040161080790613342565b6001600160a01b0381166118735760405162461bcd60e51b8152600401610807906133c0565b600880546001600160a01b0319166001600160a01b0383169081179091556040517fdb66dfa9c6b8f5226fe9aac7e51897ae8ee94ac31dc70bb6c9900b2574b707e690600090a250565b6000546001600160a01b031633146118e75760405162461bcd60e51b815260040161080790613342565b6001600160a01b0381166119585760405162461bcd60e51b815260206004820152603260248201527f426c61636b6c69737461626c653a206e657720626c61636b6c697374657220696044820152717320746865207a65726f206164647265737360701b6064820152608401610807565b600280546001600160a01b0319166001600160a01b0383169081179091556040517fc67398012c111ce95ecb7429b933096c977380ee6c421175a71a4a4c6c88c06e90600090a250565b600e546001600160a01b03163314611a085760405162461bcd60e51b8152602060048201526024808201527f526573637561626c653a2063616c6c6572206973206e6f74207468652072657360448201526331bab2b960e11b6064820152608401610807565b611a1c6001600160a01b03841683836123d3565b505050565b600154600160a01b900460ff1615611a4b5760405162461bcd60e51b815260040161080790613287565b6001600160a01b038716600090815260036020526040902054879060ff1615611a865760405162461bcd60e51b8152600401610807906132b1565b6001600160a01b038716600090815260036020526040902054879060ff1615611ac15760405162461bcd60e51b8152600401610807906132b1565b611ad089898989898989612425565b505050505050505050565b600854600160a01b900460ff168015611af7575060125460ff16155b611b0057600080fd5b6004611b0d8284836135a0565b50611b6682828080601f016020809104026020016040519081016040528093929190818152602001838380828437600092019190915250506040805180820190915260018152601960f91b602082015291506125939050565b600f5550506012805460ff19166001179055565b600154600160a01b900460ff1615611ba45760405162461bcd60e51b815260040161080790613287565b6001600160a01b038916600090815260036020526040902054899060ff1615611bdf5760405162461bcd60e51b8152600401610807906132b1565b6001600160a01b038916600090815260036020526040902054899060ff1615611c1a5760405162461bcd60e51b8152600401610807906132b1565b611c2b8b8b8b8b8b8b8b8b8b612605565b5050505050505050505050565b600780546107599061324d565b600154600160a01b900460ff1615611c6f5760405162461bcd60e51b815260040161080790613287565b6001600160a01b038916600090815260036020526040902054899060ff1615611caa5760405162461bcd60e51b8152600401610807906132b1565b6001600160a01b038916600090815260036020526040902054899060ff1615611ce55760405162461bcd60e51b8152600401610807906132b1565b611c2b8b8b8b8b8b8b8b8b8b6126f2565b6000546001600160a01b03163314611d205760405162461bcd60e51b815260040161080790613342565b6001600160a01b038116611d855760405162461bcd60e51b815260206004820152602660248201527f4f776e61626c653a206e6577206f776e657220697320746865207a65726f206160448201526564647265737360d01b6064820152608401610807565b600054604080516001600160a01b03928316815291831660208301527f8be0079c531659141344cd1fd0a4f28419497f9722a3daafe3b4186f6b6457e0910160405180910390a1611dd581612196565b50565b6002546001600160a01b03163314611e025760405162461bcd60e51b8152600401610807906132f6565b6001600160a01b038116600081815260036020526040808220805460ff19166001179055517fffa4e6181777692565cf28528fc88fd1516ea86b56da075235fa575af6a4b8559190a250565b6001600160a01b038316611eb05760405162461bcd60e51b8152602060048201526024808201527f45524332303a20617070726f76652066726f6d20746865207a65726f206164646044820152637265737360e01b6064820152608401610807565b6001600160a01b038216611f115760405162461bcd60e51b815260206004820152602260248201527f45524332303a20617070726f766520746f20746865207a65726f206164647265604482015261737360f01b6064820152608401610807565b6001600160a01b038381166000818152600a602090815260408083209487168084529482529182902085905590518481527f8c5be1e5ebec7d5bd14f71427d1e84f3dd0314c0f7b2291e5b200ac8c7c3b9259101611480565b6001600160a01b038316611fce5760405162461bcd60e51b815260206004820152602560248201527f45524332303a207472616e736665722066726f6d20746865207a65726f206164604482015264647265737360d81b6064820152608401610807565b6001600160a01b0382166120305760405162461bcd60e51b815260206004820152602360248201527f45524332303a207472616e7366657220746f20746865207a65726f206164647260448201526265737360e81b6064820152608401610807565b6001600160a01b0383166000908152600960205260409020548111156120a75760405162461bcd60e51b815260206004820152602660248201527f45524332303a207472616e7366657220616d6f756e7420657863656564732062604482015265616c616e636560d01b6064820152608401610807565b6001600160a01b0383166000908152600960205260409020546120ca908261214d565b6001600160a01b0380851660009081526009602052604080822093909355908416815220546120f990826121f5565b6001600160a01b0380841660008181526009602052604090819020939093559151908516907fddf252ad1be2c89b69c2b068fc378daa952ba7f163c4a11628f55a4df523b3ef906114809085815260200190565b600061218f83836040518060400160405280601e81526020017f536166654d6174683a207375627472616374696f6e206f766572666c6f7700008152506127a4565b9392505050565b600080546001600160a01b0319166001600160a01b0392909216919091179055565b6001600160a01b038084166000908152600a6020908152604080832093861683529290522054611a1c90849084906121f090856121f5565b611e4e565b6000806122028385613676565b90508381101561218f5760405162461bcd60e51b815260206004820152601b60248201527f536166654d6174683a206164646974696f6e206f766572666c6f7700000000006044820152606401610807565b61225e85856127de565b604080517f158b0a9edf7a828aad02f63cd515c68ef2f50ba807396f6d12842833a159742960208201526001600160a01b03871691810191909152606081018590526000906080016040516020818303038152906040529050856001600160a01b03166122d0600f548686868661286d565b6001600160a01b0316146123265760405162461bcd60e51b815260206004820152601e60248201527f46696174546f6b656e56323a20696e76616c6964207369676e617475726500006044820152606401610807565b6001600160a01b0386166000818152601060209081526040808320898452909152808220805460ff19166001179055518792917f1cdd46ff242716cdaa72d159d339a485b3438398348d68f09d7c8c0a59353d8191a3505050505050565b611a1c83836121f084604051806060016040528060258152602001613730602591396001600160a01b03808a166000908152600a60209081526040808320938c168352929052205491906127a4565b604080516001600160a01b038416602482015260448082018490528251808303909101815260649091019091526020810180516001600160e01b031663a9059cbb60e01b179052611a1c9084906128cf565b428410156124755760405162461bcd60e51b815260206004820152601e60248201527f46696174546f6b656e56323a207065726d6974206973206578706972656400006044820152606401610807565b6001600160a01b038716600090815260116020526040812080547f6e71edae12b1b97f4d1f60370fef10105fa2faae0126114a169c64845d6126c9918a918a918a9190866124c283613689565b909155506040805160208101969096526001600160a01b0394851690860152929091166060840152608083015260a082015260c0810186905260e0016040516020818303038152906040529050876001600160a01b0316612528600f548686868661286d565b6001600160a01b03161461257e5760405162461bcd60e51b815260206004820152601a60248201527f454950323631323a20696e76616c6964207369676e61747572650000000000006044820152606401610807565b612589888888611e4e565b5050505050505050565b8151602092830120815191830191909120604080517f8b73c3c69bb8fe3d512ecc4cf759cc79239f7b179b0ffacaa9a75d522b39400f818601528082019390935260608301919091524660808301523060a0808401919091528151808403909101815260c09092019052805191012090565b612611898588886129a1565b604051600090612651907f7c7c6cdb67a18743f49ec6fa9b35f50d52ed05cbed4cc592e13b44501c1a2267908c908c908c908c908c908c906020016136a2565b6040516020818303038152906040529050896001600160a01b031661267b600f548686868661286d565b6001600160a01b0316146126d15760405162461bcd60e51b815260206004820152601e60248201527f46696174546f6b656e56323a20696e76616c6964207369676e617475726500006044820152606401610807565b6126db8a86612a71565b6126e68a8a8a611f6a565b50505050505050505050565b6001600160a01b03881633146127585760405162461bcd60e51b815260206004820152602560248201527f46696174546f6b656e56323a2063616c6c6572206d7573742062652074686520604482015264706179656560d81b6064820152608401610807565b612764898588886129a1565b604051600090612651907fd099cc98ef71107a616c4f0f941f04c322d8e254fe26b3c6668db87aae413de8908c908c908c908c908c908c906020016136a2565b600081848411156127c85760405162461bcd60e51b81526004016108079190612ddc565b5060006127d584866136de565b95945050505050565b6001600160a01b038216600090815260106020908152604080832084845290915290205460ff16156128695760405162461bcd60e51b815260206004820152602e60248201527f46696174546f6b656e56323a20617574686f72697a6174696f6e20697320757360448201526d1959081bdc8818d85b98d95b195960921b6064820152608401610807565b5050565b6000808683805190602001206040516020016128a092919061190160f01b81526002810192909252602282015260420190565b6040516020818303038152906040528051906020012090506128c481878787612acb565b979650505050505050565b6000612924826040518060400160405280602081526020017f5361666545524332303a206c6f772d6c6576656c2063616c6c206661696c6564815250856001600160a01b0316612c829092919063ffffffff16565b805190915015611a1c578080602001905181019061294291906136f1565b611a1c5760405162461bcd60e51b815260206004820152602a60248201527f5361666545524332303a204552433230206f7065726174696f6e20646964206e6044820152691bdd081cdd58d8d9595960b21b6064820152608401610807565b814211612a045760405162461bcd60e51b815260206004820152602b60248201527f46696174546f6b656e56323a20617574686f72697a6174696f6e206973206e6f60448201526a1d081e595d081d985b1a5960aa1b6064820152608401610807565b804210612a615760405162461bcd60e51b815260206004820152602560248201527f46696174546f6b656e56323a20617574686f72697a6174696f6e2069732065786044820152641c1a5c995960da1b6064820152608401610807565b612a6b84846127de565b50505050565b6001600160a01b0382166000818152601060209081526040808320858452909152808220805460ff19166001179055518392917f98de503528ee59b575ef0c0a2576a82497bfc029a5685b209e9ec333479b10a591a35050565b60007f7fffffffffffffffffffffffffffffff5d576e7357a4501ddfe92f46681b20a0821115612b4c5760405162461bcd60e51b815260206004820152602660248201527f45435265636f7665723a20696e76616c6964207369676e6174757265202773276044820152652076616c756560d01b6064820152608401610807565b8360ff16601b14158015612b6457508360ff16601c14155b15612bc05760405162461bcd60e51b815260206004820152602660248201527f45435265636f7665723a20696e76616c6964207369676e6174757265202776276044820152652076616c756560d01b6064820152608401610807565b6040805160008082526020820180845288905260ff871692820192909252606081018590526080810184905260019060a0016020604051602081039080840390855afa158015612c14573d6000803e3d6000fd5b5050604051601f1901519150506001600160a01b038116612c775760405162461bcd60e51b815260206004820152601c60248201527f45435265636f7665723a20696e76616c6964207369676e6174757265000000006044820152606401610807565b90505b949350505050565b6060612c7a84846000856060612c9785612d7f565b612ce35760405162461bcd60e51b815260206004820152601d60248201527f416464726573733a2063616c6c20746f206e6f6e2d636f6e74726163740000006044820152606401610807565b600080866001600160a01b03168587604051612cff9190613713565b60006040518083038185875af1925050503d8060008114612d3c576040519150601f19603f3d011682016040523d82523d6000602084013e612d41565b606091505b50915091508115612d55579150612c7a9050565b805115612d655780518082602001fd5b8360405162461bcd60e51b81526004016108079190612ddc565b6000813f7fc5d2460186f7233c927e7db2dcc703c0e500b653ca82273b7bfad8045d85a470818114801590612c7a575050151592915050565b60005b83811015612dd3578181015183820152602001612dbb565b50506000910152565b6020815260008251806020840152612dfb816040850160208701612db8565b601f01601f19169190910160400192915050565b6001600160a01b0381168114611dd557600080fd5b8035610c2781612e0f565b60008060408385031215612e4257600080fd5b8235612e4d81612e0f565b946020939093013593505050565b600060208284031215612e6d57600080fd5b813561218f81612e0f565b600080600060608486031215612e8d57600080fd5b8335612e9881612e0f565b92506020840135612ea881612e0f565b929592945050506040919091013590565b634e487b7160e01b600052604160045260246000fd5b600082601f830112612ee057600080fd5b813567ffffffffffffffff80821115612efb57612efb612eb9565b604051601f8301601f19908116603f01168101908282118183101715612f2357612f23612eb9565b81604052838152866020858801011115612f3c57600080fd5b836020870160208301376000602085830101528094505050505092915050565b803560ff81168114610c2757600080fd5b600080600080600080600080610100898b031215612f8a57600080fd5b883567ffffffffffffffff80821115612fa257600080fd5b612fae8c838d01612ecf565b995060208b0135915080821115612fc457600080fd5b612fd08c838d01612ecf565b985060408b0135915080821115612fe657600080fd5b50612ff38b828c01612ecf565b96505061300260608a01612f5c565b945061301060808a01612e24565b935061301e60a08a01612e24565b925061302c60c08a01612e24565b915061303a60e08a01612e24565b90509295985092959890939650565b60006020828403121561305b57600080fd5b5035919050565b600080600080600060a0868803121561307a57600080fd5b853561308581612e0f565b94506020860135935061309a60408701612f5c565b94979396509394606081013594506080013592915050565b600080600080600080600060e0888a0312156130cd57600080fd5b87356130d881612e0f565b965060208801356130e881612e0f565b9550604088013594506060880135935061310460808901612f5c565b925060a0880135915060c0880135905092959891949750929550565b6000806020838503121561313357600080fd5b823567ffffffffffffffff8082111561314b57600080fd5b818501915085601f83011261315f57600080fd5b81358181111561316e57600080fd5b86602082850101111561318057600080fd5b60209290920196919550909350505050565b600080604083850312156131a557600080fd5b82356131b081612e0f565b915060208301356131c081612e0f565b809150509250929050565b60008060008060008060008060006101208a8c0312156131ea57600080fd5b89356131f581612e0f565b985060208a013561320581612e0f565b975060408a0135965060608a0135955060808a0135945060a08a0135935061322f60c08b01612f5c565b925060e08a013591506101008a013590509295985092959850929598565b600181811c9082168061326157607f821691505b60208210810361328157634e487b7160e01b600052602260045260246000fd5b50919050565b60208082526010908201526f14185d5cd8589b194e881c185d5cd95960821b604082015260600190565b60208082526025908201527f426c61636b6c69737461626c653a206163636f756e7420697320626c61636b6c6040820152641a5cdd195960da1b606082015260800190565b6020808252602c908201527f426c61636b6c69737461626c653a2063616c6c6572206973206e6f742074686560408201526b10313630b1b5b634b9ba32b960a11b606082015260800190565b6020808252818101527f4f776e61626c653a2063616c6c6572206973206e6f7420746865206f776e6572604082015260600190565b60208082526029908201527f46696174546f6b656e3a2063616c6c6572206973206e6f7420746865206d61736040820152683a32b926b4b73a32b960b91b606082015260800190565b6020808252602f908201527f46696174546f6b656e3a206e6577206d61737465724d696e746572206973207460408201526e6865207a65726f206164647265737360881b606082015260800190565b601f821115611a1c57600081815260208120601f850160051c810160208610156134365750805b601f850160051c820191505b8181101561345557828155600101613442565b505050505050565b815167ffffffffffffffff81111561347757613477612eb9565b61348b81613485845461324d565b8461340f565b602080601f8311600181146134c057600084156134a85750858301515b600019600386901b1c1916600185901b178555613455565b600085815260208120601f198616915b828110156134ef578886015182559484019460019091019084016134d0565b508582101561350d5787850151600019600388901b60f8161c191681555b5050505050600190811b01905550565b60208082526022908201527f5061757361626c653a2063616c6c6572206973206e6f7420746865207061757360408201526132b960f11b606082015260800190565b60208082526021908201527f46696174546f6b656e3a2063616c6c6572206973206e6f742061206d696e74656040820152603960f91b606082015260800190565b67ffffffffffffffff8311156135b8576135b8612eb9565b6135cc836135c6835461324d565b8361340f565b6000601f84116001811461360057600085156135e85750838201355b600019600387901b1c1916600186901b178355611661565b600083815260209020601f19861690835b828110156136315786850135825560209485019460019092019101613611565b508682101561364e5760001960f88860031b161c19848701351681555b505060018560011b0183555050505050565b634e487b7160e01b600052601160045260246000fd5b8082018082111561154957611549613660565b60006001820161369b5761369b613660565b5060010190565b9687526001600160a01b0395861660208801529390941660408601526060850191909152608084015260a083019190915260c082015260e00190565b8181038181111561154957611549613660565b60006020828403121561370357600080fd5b8151801515811461218f57600080fd5b60008251613725818460208701612db8565b919091019291505056fe45524332303a2064656372656173656420616c6c6f77616e63652062656c6f77207a65726fa2646970667358221220044378aced8e683b2e31805626a8add56d8aa24b09bed36d070c233a3dd8b17c64736f6c63430008150033",
    "linkReferences": {}
  },
  "methodIdentifiers": {
    "CANCEL_AUTHORIZATION_TYPEHASH()": "d9169487",
    "DOMAIN_SEPARATOR()": "3644e515",
    "PERMIT_TYPEHASH()": "30adf81f",
    "RECEIVE_WITH_AUTHORIZATION_TYPEHASH()": "7f2eecc3",
    "TRANSFER_WITH_AUTHORIZATION_TYPEHASH()": "a0cc6a68",
    "allowance(address,address)": "dd62ed3e",
    "approve(address,uint256)": "095ea7b3",
    "authorizationState(address,bytes32)": "e94a0102",
    "balanceOf(address)": "70a08231",
    "blacklist(address)": "f9f92be4",
    "blacklister()": "bd102430",
    "burn(uint256)": "42966c68",
    "cancelAuthorization(address,bytes32,uint8,bytes32,bytes32)": "5a049a70",
    "configureMinter(address,uint256)": "4e44d956",
    "currency()": "e5a6b10f",
    "decimals()": "313ce567",
    "decreaseAllowance(address,uint256)": "a457c2d7",
    "increaseAllowance(address,uint256)": "39509351",
    "initialize(string,string,string,uint8,address,address,address,address)": "3357162b",
    "initializeV2(string)": "d608ea64",
    "isBlacklisted(address)": "fe575a87",
    "isMinter(address)": "aa271e1a",
    "masterMinter()": "35d99f35",
    "mint(address,uint256)": "40c10f19",
    "minterAllowance(address)": "8a6db9c3",
    "name()": "06fdde03",
    "nonces(address)": "7ecebe00",
    "owner()": "8da5cb5b",
    "pause()": "8456cb59",
    "paused()": "5c975abb",
    "pauser()": "9fd0506d",
    "permit(address,address,uint256,uint256,uint8,bytes32,bytes32)": "d505accf",
    "receiveWithAuthorization(address,address,uint256,uint256,uint256,bytes32,uint8,bytes32,bytes32)": "ef55bec6",
    "removeMinter(address)": "3092afd5",
    "rescueERC20(address,address,uint256)": "b2118a8d",
    "rescuer()": "38a63183",
    "symbol()": "95d89b41",
    "totalSupply()": "18160ddd",
    "transfer(address,uint256)": "a9059cbb",
    "transferFrom(address,address,uint256)": "23b872dd",
    "transferOwnership(address)": "f2fde38b",
    "transferWithAuthorization(address,address,uint256,uint256,uint256,bytes32,uint8,bytes32,bytes32)": "e3ee160e",
    "unBlacklist(address)": "1a895266",
    "unpause()": "3f4ba83a",
    "updateBlacklister(address)": "ad38bf22",
    "updateMasterMinter(address)": "aa20e1e4",
    "updatePauser(address)": "554bab3c",
    "updateRescuer(address)": "2ab60045"
  },
  "id": 21
}