{
  "abi": [
    {
      "anonymous": false,
      "inputs": [
        {
          "indexed": true,
          "internalType": "address",
          "name": "owner",
          "type": "address"
        },
        {
          "indexed": true,
          "internalType": "address",
          "name": "spender",
          "type": "address"
        },
        {
          "indexed": false,
          "internalType": "uint256",
          "name": "value",
          "type": "uint256"
        }
      ],
      "name": "Approval",
      "type": "event"
    },
    {
      "anonymous": false,
      "inputs": [
        {
          "indexed": true,
          "internalType": "address",
          "name": "_account",
          "type": "address"
        }
      ],
      "name": "Blacklisted",
      "type": "event"
    },
    {
      "anonymous": false,
      "inputs": [
        {
          "indexed": true,
          "internalType": "address",
          "name": "newBlacklister",
          "type": "address"
        }
      ],
      "name": "BlacklisterChanged",
      "type": "event"
    },
    {
      "anonymous": false,
      "inputs": [
        {
          "indexed": true,
          "internalType": "address",
          "name": "burner",
          "type": "address"
        },
        {
          "indexed": false,
          "internalType": "uint256",
          "name": "amount",
          "type": "uint256"
        }
      ],
      "name": "Burn",
      "type": "event"
    },
    {
      "anonymous": false,
      "inputs": [
        {
          "indexed": true,
          "internalType": "address",
          "name": "newMasterMinter",
          "type": "address"
        }
      ],
      "name": "MasterMinterChanged",
      "type": "event"
    },
    {
      "anonymous": false,
      "inputs": [
        {
          "indexed": true,
          "internalType": "address",
          "name": "minter",
          "type": "address"
        },
        {
          "indexed": true,
          "internalType": "address",
          "name": "to",
          "type": "address"
        },
        {
          "indexed": false,
          "internalType": "uint256",
          "name": "amount",
          "type": "uint256"
        }
      ],
      "name": "Mint",
      "type": "event"
    },
    {
      "anonymous": false,
      "inputs": [
        {
          "indexed": true,
          "internalType": "address",
          "name": "minter",
          "type": "address"
        },
        {
          "indexed": false,
          "internalType": "uint256",
          "name": "minterAllowedAmount",
          "type": "uint256"
        }
      ],
      "name": "MinterConfigured",
      "type": "event"
    },
    {
      "anonymous": false,
      "inputs": [
        {
          "indexed": true,
          "internalType": "address",
          "name": "oldMinter",
          "type": "address"
        }
      ],
      "name": "MinterRemoved",
      "type": "event"
    },
    {
      "anonymous": false,
      "inputs": [
        {
          "indexed": false,
          "internalType": "address",
          "name": "previousOwner",
          "type": "address"
        },
        {
          "indexed": false,
          "internalType": "address",
          "name": "newOwner",
          "type": "address"
        }
      ],
      "name": "OwnershipTransferred",
      "type": "event"
    },
    {
      "anonymous": false,
      "inputs": [],
      "name": "Pause",
      "type": "event"
    },
    {
      "anonymous": false,
      "inputs": [
        {
          "indexed": true,
          "internalType": "address",
          "name": "newAddress",
          "type": "address"
        }
      ],
      "name": "PauserChanged",
      "type": "event"
    },
    {
      "anonymous": false,
      "inputs": [
        {
          "indexed": true,
          "internalType": "address",
          "name": "newRescuer",
          "type": "address"
        }
      ],
      "name": "RescuerChanged",
      "type": "event"
    },
    {
      "anonymous": false,
      "inputs": [
        {
          "indexed": true,
          "internalType": "address",
          "name": "from",
          "type": "address"
        },
        {
          "indexed": true,
          "internalType": "address",
          "name": "to",
          "type": "address"
        },
        {
          "indexed": false,
          "internalType": "uint256",
          "name": "value",
          "type": "uint256"
        }
      ],
      "name": "Transfer",
      "type": "event"
    },
    {
      "anonymous": false,
      "inputs": [
        {
          "indexed": true,
          "internalType": "address",
          "name": "_account",
          "type": "address"
        }
      ],
      "name": "UnBlacklisted",
      "type": "event"
    },
    {
      "anonymous": false,
      "inputs": [],
      "name": "Unpause",
      "type": "event"
    },
    {
      "inputs": [
        {
          "internalType": "address",
          "name": "owner",
          "type": "address"
        },
        {
          "internalType": "address",
          "name": "spender",
          "type": "address"
        }
      ],
      "name": "allowance",
      "outputs": [
        {
          "internalType": "uint256",
          "name": "",
          "type": "uint256"
        }
      ],
      "stateMutability": "view",
      "type": "function"
    },
    {
      "inputs": [
        {
          "internalType": "address",
          "name": "spender",
          "type": "address"
        },
        {
          "internalType": "uint256",
          "name": "value",
          "type": "uint256"
        }
      ],
      "name": "approve",
      "outputs": [
        {
          "internalType": "bool",
          "name": "",
          "type": "bool"
        }
      ],
      "stateMutability": "nonpayable",
      "type": "function"
    },
    {
      "inputs": [
        {
          "internalType": "address",
          "name": "account",
          "type": "address"
        }
      ],
      "name": "balanceOf",
      "outputs": [
        {
          "internalType": "uint256",
          "name": "",
          "type": "uint256"
        }
      ],
      "stateMutability": "view",
      "type": "function"
    },
    {
      "inputs": [
        {
          "internalType": "address",
          "name": "_account",
          "type": "address"
        }
      ],
      "name": "blacklist",
      "outputs": [],
      "stateMutability": "nonpayable",
      "type": "function"
    },
    {
      "inputs": [],
      "name": "blacklister",
      "outputs": [
        {
          "internalType": "address",
          "name": "",
          "type": "address"
        }
      ],
      "stateMutability": "view",
      "type": "function"
    },
    {
      "inputs": [
        {
          "internalType": "uint256",
          "name": "_amount",
          "type": "uint256"
        }
      ],
      "name": "burn",
      "outputs": [],
      "stateMutability": "nonpayable",
      "type": "function"
    },
    {
      "inputs": [
        {
          "internalType": "address",
          "name": "minter",
          "type": "address"
        },
        {
          "internalType": "uint256",
          "name": "minterAllowedAmount",
          "type": "uint256"
        }
      ],
      "name": "configureMinter",
      "outputs": [
        {
          "internalType": "bool",
          "name": "",
          "type": "bool"
        }
      ],
      "stateMutability": "nonpayable",
      "type": "function"
    },
    {
      "inputs": [],
      "name": "currency",
      "outputs": [
        {
          "internalType": "string",
          "name": "",
          "type": "string"
        }
      ],
      "stateMutability": "view",
      "type": "function"
    },
    {
      "inputs": [],
      "name": "decimals",
      "outputs": [
        {
          "internalType": "uint8",
          "name": "",
          "type": "uint8"
        }
      ],
      "stateMutability": "view",
      "type": "function"
    },
    {
      "inputs": [
        {
          "internalType": "string",
          "name": "tokenName",
          "type": "string"
        },
        {
          "internalType": "string",
          "name": "tokenSymbol",
          "type": "string"
        },
        {
          "internalType": "string",
          "name": "tokenCurrency",
          "type": "string"
        },
        {
          "internalType": "uint8",
          "name": "tokenDecimals",
          "type": "uint8"
        },
        {
          "internalType": "address",
          "name": "newMasterMinter",
          "type": "address"
        },
        {
          "internalType": "address",
          "name": "newPauser",
          "type": "address"
        },
        {
          "internalType": "address",
          "name": "newBlacklister",
          "type": "address"
        },
        {
          "internalType": "address",
          "name": "newOwner",
          "type": "address"
        }
      ],
      "name": "initialize",
      "outputs": [],
      "stateMutability": "nonpayable",
      "type": "function"
    },
    {
      "inputs": [
        {
          "internalType": "address",
          "name": "_account",
          "type": "address"
        }
      ],
      "name": "isBlacklisted",
      "outputs": [
        {
          "internalType": "bool",
          "name": "",
          "type": "bool"
        }
      ],
      "stateMutability": "view",
      "type": "function"
    },
    {
      "inputs": [
        {
          "internalType": "address",
          "name": "account",
          "type": "address"
        }
      ],
      "name": "isMinter",
      "outputs": [
        {
          "internalType": "bool",
          "name": "",
          "type": "bool"
        }
      ],
      "stateMutability": "view",
      "type": "function"
    },
    {
      "inputs": [],
      "name": "masterMinter",
      "outputs": [
        {
          "internalType": "address",
          "name": "",
          "type": "address"
        }
      ],
      "stateMutability": "view",
      "type": "function"
    },
    {
      "inputs": [
        {
          "internalType": "address",
          "name": "_to",
          "type": "address"
        },
        {
          "internalType": "uint256",
          "name": "_amount",
          "type": "uint256"
        }
      ],
      "name": "mint",
      "outputs": [
        {
          "internalType": "bool",
          "name": "",
          "type": "bool"
        }
      ],
      "stateMutability": "nonpayable",
      "type": "function"
    },
    {
      "inputs": [
        {
          "internalType": "address",
          "name": "minter",
          "type": "address"
        }
      ],
      "name": "minterAllowance",
      "outputs": [
        {
          "internalType": "uint256",
          "name": "",
          "type": "uint256"
        }
      ],
      "stateMutability": "view",
      "type": "function"
    },
    {
      "inputs": [],
      "name": "name",
      "outputs": [
        {
          "internalType": "string",
          "name": "",
          "type": "string"
        }
      ],
      "stateMutability": "view",
      "type": "function"
    },
    {
      "inputs": [],
      "name": "owner",
      "outputs": [
        {
          "internalType": "address",
          "name": "",
          "type": "address"
        }
      ],
      "stateMutability": "view",
      "type": "function"
    },
    {
      "inputs": [],
      "name": "pause",
      "outputs": [],
      "stateMutability": "nonpayable",
      "type": "function"
    },
    {
      "inputs": [],
      "name": "paused",
      "outputs": [
        {
          "internalType": "bool",
          "name": "",
          "type": "bool"
        }
      ],
      "stateMutability": "view",
      "type": "function"
    },
    {
      "inputs": [],
      "name": "pauser",
      "outputs": [
        {
          "internalType": "address",
          "name": "",
          "type": "address"
        }
      ],
      "stateMutability": "view",
      "type": "function"
    },
    {
      "inputs": [
        {
          "internalType": "address",
          "name": "minter",
          "type": "address"
        }
      ],
      "name": "removeMinter",
      "outputs": [
        {
          "internalType": "bool",
          "name": "",
          "type": "bool"
        }
      ],
      "stateMutability": "nonpayable",
      "type": "function"
    },
    {
      "inputs": [
        {
          "internalType": "contract IERC20",
          "name": "tokenContract",
          "type": "address"
        },
        {
          "internalType": "address",
          "name": "to",
          "type": "address"
        },
        {
          "internalType": "uint256",
          "name": "amount",
          "type": "uint256"
        }
      ],
      "name": "rescueERC20",
      "outputs": [],
      "stateMutability": "nonpayable",
      "type": "function"
    },
    {
      "inputs": [],
      "name": "rescuer",
      "outputs": [
        {
          "internalType": "address",
          "name": "",
          "type": "address"
        }
      ],
      "stateMutability": "view",
      "type": "function"
    },
    {
      "inputs": [],
      "name": "symbol",
      "outputs": [
        {
          "internalType": "string",
          "name": "",
          "type": "string"
        }
      ],
      "stateMutability": "view",
      "type": "function"
    },
    {
      "inputs": [],
      "name": "totalSupply",
      "outputs": [
        {
          "internalType": "uint256",
          "name": "",
          "type": "uint256"
        }
      ],
      "stateMutability": "view",
      "type": "function"
    },
    {
      "inputs": [
        {
          "internalType": "address",
          "name": "to",
          "type": "address"
        },
        {
          "internalType": "uint256",
          "name": "value",
          "type": "uint256"
        }
      ],
      "name": "transfer",
      "outputs": [
        {
          "internalType": "bool",
          "name": "",
          "type": "bool"
        }
      ],
      "stateMutability": "nonpayable",
      "type": "function"
    },
    {
      "inputs": [
        {
          "internalType": "address",
          "name": "from",
          "type": "address"
        },
        {
          "internalType": "address",
          "name": "to",
          "type": "address"
        },
        {
          "internalType": "uint256",
          "name": "value",
          "type": "uint256"
        }
      ],
      "name": "transferFrom",
      "outputs": [
        {
          "internalType": "bool",
          "name": "",
          "type": "bool"
        }
      ],
      "stateMutability": "nonpayable",
      "type": "function"
    },
    {
      "inputs": [
        {
          "internalType": "address",
          "name": "newOwner",
          "type": "address"
        }
      ],
      "name": "transferOwnership",
      "outputs": [],
      "stateMutability": "nonpayable",
      "type": "function"
    },
    {
      "inputs": [
        {
          "internalType": "address",
          "name": "_account",
          "type": "address"
        }
      ],
      "name": "unBlacklist",
      "outputs": [],
      "stateMutability": "nonpayable",
      "type": "function"
    },
    {
      "inputs": [],
      "name": "unpause",
      "outputs": [],
      "stateMutability": "nonpayable",
      "type": "function"
    },
    {
      "inputs": [
        {
          "internalType": "address",
          "name": "_newBlacklister",
          "type": "address"
        }
      ],
      "name": "updateBlacklister",
      "outputs": [],
      "stateMutability": "nonpayable",
      "type": "function"
    },
    {
      "inputs": [
        {
          "internalType": "address",
          "name": "_newMasterMinter",
          "type": "address"
        }
      ],
      "name": "updateMasterMinter",
      "outputs": [],
      "stateMutability": "nonpayable",
      "type": "function"
    },
    {
      "inputs": [
        {
          "internalType": "address",
          "name": "_newPauser",
          "type": "address"
        }
      ],
      "name": "updatePauser",
      "outputs": [],
      "stateMutability": "nonpayable",
      "type": "function"
    },
    {
      "inputs": [
        {
          "internalType": "address",
          "name": "newRescuer",
          "type": "address"
        }
      ],
      "name": "updateRescuer",
      "outputs": [],
      "stateMutability": "nonpayable",
      "type": "function"
    }
  ],
  "bytecode": {
    "object": "0x60806040526001805460ff60a01b191690556000600b5534801561002257600080fd5b50600080546001600160a01b0319163317905561252c806100446000396000f3fe608060405234801561001057600080fd5b50600436106102065760003560e01c806370a082311161011a578063aa271e1a116100ad578063dd62ed3e1161007c578063dd62ed3e14610493578063e5a6b10f146104cc578063f2fde38b146104d4578063f9f92be4146104e7578063fe575a87146104fa57600080fd5b8063aa271e1a1461042e578063ad38bf221461045a578063b2118a8d1461046d578063bd1024301461048057600080fd5b806395d89b41116100e957806395d89b41146103ed5780639fd0506d146103f5578063a9059cbb14610408578063aa20e1e41461041b57600080fd5b806370a08231146103825780638456cb59146103ab5780638a6db9c3146103b35780638da5cb5b146103dc57600080fd5b80633357162b1161019d57806340c10f191161016c57806340c10f191461032257806342966c68146103355780634e44d95614610348578063554bab3c1461035b5780635c975abb1461036e57600080fd5b80633357162b146102cb57806335d99f35146102de57806338a63183146103095780633f4ba83a1461031a57600080fd5b806323b872dd116101d957806323b872dd146102735780632ab60045146102865780633092afd514610299578063313ce567146102ac57600080fd5b806306fdde031461020b578063095ea7b31461022957806318160ddd1461024c5780631a8952661461025e575b600080fd5b610213610526565b6040516102209190611e6a565b60405180910390f35b61023c610237366004611ebd565b6105b4565b6040519015158152602001610220565b600b545b604051908152602001610220565b61027161026c366004611ee9565b61066b565b005b61023c610281366004611f06565b6106de565b610271610294366004611ee9565b6108a0565b61023c6102a7366004611ee9565b61097d565b6006546102b99060ff1681565b60405160ff9091168152602001610220565b6102716102d9366004611ffb565b610a06565b6008546102f1906001600160a01b031681565b6040516001600160a01b039091168152602001610220565b600e546001600160a01b03166102f1565b610271610c6f565b61023c610330366004611ebd565b610cd1565b6102716103433660046120d7565b610fc7565b61023c610356366004611ebd565b6111c4565b610271610369366004611ee9565b611286565b60015461023c90600160a01b900460ff1681565b610250610390366004611ee9565b6001600160a01b031660009081526009602052604090205490565b610271611361565b6102506103c1366004611ee9565b6001600160a01b03166000908152600d602052604090205490565b6000546001600160a01b03166102f1565b6102136113c9565b6001546102f1906001600160a01b031681565b61023c610416366004611ebd565b6113d6565b610271610429366004611ee9565b611479565b61023c61043c366004611ee9565b6001600160a01b03166000908152600c602052604090205460ff1690565b610271610468366004611ee9565b611513565b61027161047b366004611f06565b6115f8565b6002546102f1906001600160a01b031681565b6102506104a13660046120f0565b6001600160a01b039182166000908152600a6020908152604080832093909416825291909152205490565b610213611677565b6102716104e2366004611ee9565b611684565b6102716104f5366004611ee9565b611766565b61023c610508366004611ee9565b6001600160a01b031660009081526003602052604090205460ff1690565b6004805461053390612129565b80601f016020809104026020016040519081016040528092919081815260200182805461055f90612129565b80156105ac5780601f10610581576101008083540402835291602001916105ac565b820191906000526020600020905b81548152906001019060200180831161058f57829003601f168201915b505050505081565b600154600090600160a01b900460ff16156105ea5760405162461bcd60e51b81526004016105e190612163565b60405180910390fd5b3360008181526003602052604090205460ff161561061a5760405162461bcd60e51b81526004016105e19061218d565b6001600160a01b038416600090815260036020526040902054849060ff16156106555760405162461bcd60e51b81526004016105e19061218d565b6106603386866117dc565b506001949350505050565b6002546001600160a01b031633146106955760405162461bcd60e51b81526004016105e1906121d2565b6001600160a01b038116600081815260036020526040808220805460ff19169055517f117e3210bb9aa7d9baff172026820255c6f6c30ba8999d1c2fd88e2848137c4e9190a250565b600154600090600160a01b900460ff161561070b5760405162461bcd60e51b81526004016105e190612163565b3360008181526003602052604090205460ff161561073b5760405162461bcd60e51b81526004016105e19061218d565b6001600160a01b038516600090815260036020526040902054859060ff16156107765760405162461bcd60e51b81526004016105e19061218d565b6001600160a01b038516600090815260036020526040902054859060ff16156107b15760405162461bcd60e51b81526004016105e19061218d565b6001600160a01b0387166000908152600a602090815260408083203384529091529020548511156108355760405162461bcd60e51b815260206004820152602860248201527f45524332303a207472616e7366657220616d6f756e74206578636565647320616044820152676c6c6f77616e636560c01b60648201526084016105e1565b6108408787876118f8565b6001600160a01b0387166000908152600a6020908152604080832033845290915290205461086e9086611adb565b6001600160a01b0388166000908152600a60209081526040808320338452909152902055600193505050509392505050565b6000546001600160a01b031633146108ca5760405162461bcd60e51b81526004016105e19061221e565b6001600160a01b0381166109335760405162461bcd60e51b815260206004820152602a60248201527f526573637561626c653a206e6577207265736375657220697320746865207a65604482015269726f206164647265737360b01b60648201526084016105e1565b600e80546001600160a01b0319166001600160a01b0383169081179091556040517fe475e580d85111348e40d8ca33cfdd74c30fe1655c2d8537a13abc10065ffa5a90600090a250565b6008546000906001600160a01b031633146109aa5760405162461bcd60e51b81526004016105e190612253565b6001600160a01b0382166000818152600c60209081526040808320805460ff19169055600d909152808220829055517fe94479a9f7e1952cc78f2d6baab678adc1b772d936c6583def489e524cb666929190a25060015b919050565b600854600160a01b900460ff1615610a735760405162461bcd60e51b815260206004820152602a60248201527f46696174546f6b656e3a20636f6e747261637420697320616c726561647920696044820152691b9a5d1a585b1a5e995960b21b60648201526084016105e1565b6001600160a01b038416610a995760405162461bcd60e51b81526004016105e19061229c565b6001600160a01b038316610b015760405162461bcd60e51b815260206004820152602960248201527f46696174546f6b656e3a206e65772070617573657220697320746865207a65726044820152686f206164647265737360b81b60648201526084016105e1565b6001600160a01b038216610b6e5760405162461bcd60e51b815260206004820152602e60248201527f46696174546f6b656e3a206e657720626c61636b6c697374657220697320746860448201526d65207a65726f206164647265737360901b60648201526084016105e1565b6001600160a01b038116610bd55760405162461bcd60e51b815260206004820152602860248201527f46696174546f6b656e3a206e6577206f776e657220697320746865207a65726f604482015267206164647265737360c01b60648201526084016105e1565b6004610be18982612339565b506005610bee8882612339565b506007610bfb8782612339565b506006805460ff191660ff8716179055600880546001600160a01b03199081166001600160a01b038781169190911790925560018054821686841617905560028054909116918416919091179055610c5281611b24565b50506008805460ff60a01b1916600160a01b179055505050505050565b6001546001600160a01b03163314610c995760405162461bcd60e51b81526004016105e1906123f9565b6001805460ff60a01b191690556040517f7805862f689e2f13df9f062ff482ad3ad112aca9e0847911ed832e158c525b3390600090a1565b600154600090600160a01b900460ff1615610cfe5760405162461bcd60e51b81526004016105e190612163565b336000908152600c602052604090205460ff16610d2d5760405162461bcd60e51b81526004016105e19061243b565b3360008181526003602052604090205460ff1615610d5d5760405162461bcd60e51b81526004016105e19061218d565b6001600160a01b038416600090815260036020526040902054849060ff1615610d985760405162461bcd60e51b81526004016105e19061218d565b6001600160a01b038516610dfa5760405162461bcd60e51b815260206004820152602360248201527f46696174546f6b656e3a206d696e7420746f20746865207a65726f206164647260448201526265737360e81b60648201526084016105e1565b60008411610e5c5760405162461bcd60e51b815260206004820152602960248201527f46696174546f6b656e3a206d696e7420616d6f756e74206e6f7420677265617460448201526806572207468616e20360bc1b60648201526084016105e1565b336000908152600d602052604090205480851115610ed35760405162461bcd60e51b815260206004820152602e60248201527f46696174546f6b656e3a206d696e7420616d6f756e742065786365656473206d60448201526d696e746572416c6c6f77616e636560901b60648201526084016105e1565b600b54610ee09086611b46565b600b556001600160a01b038616600090815260096020526040902054610f069086611b46565b6001600160a01b038716600090815260096020526040902055610f298186611adb565b336000818152600d602090815260409182902093909355518781526001600160a01b038916927fab8530f87dc9b59234c4623bf917212bb2536d647574c8e7e5da92c2ede0c9f8910160405180910390a36040518581526001600160a01b038716906000907fddf252ad1be2c89b69c2b068fc378daa952ba7f163c4a11628f55a4df523b3ef9060200160405180910390a350600195945050505050565b600154600160a01b900460ff1615610ff15760405162461bcd60e51b81526004016105e190612163565b336000908152600c602052604090205460ff166110205760405162461bcd60e51b81526004016105e19061243b565b3360008181526003602052604090205460ff16156110505760405162461bcd60e51b81526004016105e19061218d565b33600090815260096020526040902054826110bf5760405162461bcd60e51b815260206004820152602960248201527f46696174546f6b656e3a206275726e20616d6f756e74206e6f7420677265617460448201526806572207468616e20360bc1b60648201526084016105e1565b8281101561111e5760405162461bcd60e51b815260206004820152602660248201527f46696174546f6b656e3a206275726e20616d6f756e7420657863656564732062604482015265616c616e636560d01b60648201526084016105e1565b600b5461112b9084611adb565b600b556111388184611adb565b33600081815260096020526040908190209290925590517fcc16f5dbb4873280815c1ee09dbd06736cffcc184412cf7a71a0fdb75d397ca59061117e9086815260200190565b60405180910390a260405183815260009033907fddf252ad1be2c89b69c2b068fc378daa952ba7f163c4a11628f55a4df523b3ef906020015b60405180910390a3505050565b600154600090600160a01b900460ff16156111f15760405162461bcd60e51b81526004016105e190612163565b6008546001600160a01b0316331461121b5760405162461bcd60e51b81526004016105e190612253565b6001600160a01b0383166000818152600c60209081526040808320805460ff19166001179055600d82529182902085905590518481527f46980fca912ef9bcdbd36877427b6b90e860769f604e89c0e67720cece530d20910160405180910390a25060015b92915050565b6000546001600160a01b031633146112b05760405162461bcd60e51b81526004016105e19061221e565b6001600160a01b0381166113175760405162461bcd60e51b815260206004820152602860248201527f5061757361626c653a206e65772070617573657220697320746865207a65726f604482015267206164647265737360c01b60648201526084016105e1565b600180546001600160a01b0319166001600160a01b0383169081179091556040517fb80482a293ca2e013eda8683c9bd7fc8347cfdaeea5ede58cba46df502c2a60490600090a250565b6001546001600160a01b0316331461138b5760405162461bcd60e51b81526004016105e1906123f9565b6001805460ff60a01b1916600160a01b1790556040517f6985a02210a168e66602d3235cb6db0e70f92b3ba4d376a33c0f3d9434bff62590600090a1565b6005805461053390612129565b600154600090600160a01b900460ff16156114035760405162461bcd60e51b81526004016105e190612163565b3360008181526003602052604090205460ff16156114335760405162461bcd60e51b81526004016105e19061218d565b6001600160a01b038416600090815260036020526040902054849060ff161561146e5760405162461bcd60e51b81526004016105e19061218d565b6106603386866118f8565b6000546001600160a01b031633146114a35760405162461bcd60e51b81526004016105e19061221e565b6001600160a01b0381166114c95760405162461bcd60e51b81526004016105e19061229c565b600880546001600160a01b0319166001600160a01b0383169081179091556040517fdb66dfa9c6b8f5226fe9aac7e51897ae8ee94ac31dc70bb6c9900b2574b707e690600090a250565b6000546001600160a01b0316331461153d5760405162461bcd60e51b81526004016105e19061221e565b6001600160a01b0381166115ae5760405162461bcd60e51b815260206004820152603260248201527f426c61636b6c69737461626c653a206e657720626c61636b6c697374657220696044820152717320746865207a65726f206164647265737360701b60648201526084016105e1565b600280546001600160a01b0319166001600160a01b0383169081179091556040517fc67398012c111ce95ecb7429b933096c977380ee6c421175a71a4a4c6c88c06e90600090a250565b600e546001600160a01b0316331461165e5760405162461bcd60e51b8152602060048201526024808201527f526573637561626c653a2063616c6c6572206973206e6f74207468652072657360448201526331bab2b960e11b60648201526084016105e1565b6116726001600160a01b0384168383611ba5565b505050565b6007805461053390612129565b6000546001600160a01b031633146116ae5760405162461bcd60e51b81526004016105e19061221e565b6001600160a01b0381166117135760405162461bcd60e51b815260206004820152602660248201527f4f776e61626c653a206e6577206f776e657220697320746865207a65726f206160448201526564647265737360d01b60648201526084016105e1565b600054604080516001600160a01b03928316815291831660208301527f8be0079c531659141344cd1fd0a4f28419497f9722a3daafe3b4186f6b6457e0910160405180910390a161176381611b24565b50565b6002546001600160a01b031633146117905760405162461bcd60e51b81526004016105e1906121d2565b6001600160a01b038116600081815260036020526040808220805460ff19166001179055517fffa4e6181777692565cf28528fc88fd1516ea86b56da075235fa575af6a4b8559190a250565b6001600160a01b03831661183e5760405162461bcd60e51b8152602060048201526024808201527f45524332303a20617070726f76652066726f6d20746865207a65726f206164646044820152637265737360e01b60648201526084016105e1565b6001600160a01b03821661189f5760405162461bcd60e51b815260206004820152602260248201527f45524332303a20617070726f766520746f20746865207a65726f206164647265604482015261737360f01b60648201526084016105e1565b6001600160a01b038381166000818152600a602090815260408083209487168084529482529182902085905590518481527f8c5be1e5ebec7d5bd14f71427d1e84f3dd0314c0f7b2291e5b200ac8c7c3b92591016111b7565b6001600160a01b03831661195c5760405162461bcd60e51b815260206004820152602560248201527f45524332303a207472616e736665722066726f6d20746865207a65726f206164604482015264647265737360d81b60648201526084016105e1565b6001600160a01b0382166119be5760405162461bcd60e51b815260206004820152602360248201527f45524332303a207472616e7366657220746f20746865207a65726f206164647260448201526265737360e81b60648201526084016105e1565b6001600160a01b038316600090815260096020526040902054811115611a355760405162461bcd60e51b815260206004820152602660248201527f45524332303a207472616e7366657220616d6f756e7420657863656564732062604482015265616c616e636560d01b60648201526084016105e1565b6001600160a01b038316600090815260096020526040902054611a589082611adb565b6001600160a01b038085166000908152600960205260408082209390935590841681522054611a879082611b46565b6001600160a01b0380841660008181526009602052604090819020939093559151908516907fddf252ad1be2c89b69c2b068fc378daa952ba7f163c4a11628f55a4df523b3ef906111b79085815260200190565b6000611b1d83836040518060400160405280601e81526020017f536166654d6174683a207375627472616374696f6e206f766572666c6f770000815250611bf7565b9392505050565b600080546001600160a01b0319166001600160a01b0392909216919091179055565b600080611b538385612492565b905083811015611b1d5760405162461bcd60e51b815260206004820152601b60248201527f536166654d6174683a206164646974696f6e206f766572666c6f77000000000060448201526064016105e1565b604080516001600160a01b038416602482015260448082018490528251808303909101815260649091019091526020810180516001600160e01b031663a9059cbb60e01b179052611672908490611c31565b60008184841115611c1b5760405162461bcd60e51b81526004016105e19190611e6a565b506000611c2884866124a5565b95945050505050565b6000611c86826040518060400160405280602081526020017f5361666545524332303a206c6f772d6c6576656c2063616c6c206661696c6564815250856001600160a01b0316611d039092919063ffffffff16565b8051909150156116725780806020019051810190611ca491906124b8565b6116725760405162461bcd60e51b815260206004820152602a60248201527f5361666545524332303a204552433230206f7065726174696f6e20646964206e6044820152691bdd081cdd58d8d9595960b21b60648201526084016105e1565b6060611d128484600085611d1a565b949350505050565b6060611d2585611e0d565b611d715760405162461bcd60e51b815260206004820152601d60248201527f416464726573733a2063616c6c20746f206e6f6e2d636f6e747261637400000060448201526064016105e1565b600080866001600160a01b03168587604051611d8d91906124da565b60006040518083038185875af1925050503d8060008114611dca576040519150601f19603f3d011682016040523d82523d6000602084013e611dcf565b606091505b50915091508115611de3579150611d129050565b805115611df35780518082602001fd5b8360405162461bcd60e51b81526004016105e19190611e6a565b6000813f7fc5d2460186f7233c927e7db2dcc703c0e500b653ca82273b7bfad8045d85a470818114801590611d12575050151592915050565b60005b83811015611e61578181015183820152602001611e49565b50506000910152565b6020815260008251806020840152611e89816040850160208701611e46565b601f01601f19169190910160400192915050565b6001600160a01b038116811461176357600080fd5b8035610a0181611e9d565b60008060408385031215611ed057600080fd5b8235611edb81611e9d565b946020939093013593505050565b600060208284031215611efb57600080fd5b8135611b1d81611e9d565b600080600060608486031215611f1b57600080fd5b8335611f2681611e9d565b92506020840135611f3681611e9d565b929592945050506040919091013590565b634e487b7160e01b600052604160045260246000fd5b600082601f830112611f6e57600080fd5b813567ffffffffffffffff80821115611f8957611f89611f47565b604051601f8301601f19908116603f01168101908282118183101715611fb157611fb1611f47565b81604052838152866020858801011115611fca57600080fd5b836020870160208301376000602085830101528094505050505092915050565b803560ff81168114610a0157600080fd5b600080600080600080600080610100898b03121561201857600080fd5b883567ffffffffffffffff8082111561203057600080fd5b61203c8c838d01611f5d565b995060208b013591508082111561205257600080fd5b61205e8c838d01611f5d565b985060408b013591508082111561207457600080fd5b506120818b828c01611f5d565b96505061209060608a01611fea565b945061209e60808a01611eb2565b93506120ac60a08a01611eb2565b92506120ba60c08a01611eb2565b91506120c860e08a01611eb2565b90509295985092959890939650565b6000602082840312156120e957600080fd5b5035919050565b6000806040838503121561210357600080fd5b823561210e81611e9d565b9150602083013561211e81611e9d565b809150509250929050565b600181811c9082168061213d57607f821691505b60208210810361215d57634e487b7160e01b600052602260045260246000fd5b50919050565b60208082526010908201526f14185d5cd8589b194e881c185d5cd95960821b604082015260600190565b60208082526025908201527f426c61636b6c69737461626c653a206163636f756e7420697320626c61636b6c6040820152641a5cdd195960da1b606082015260800190565b6020808252602c908201527f426c61636b6c69737461626c653a2063616c6c6572206973206e6f742074686560408201526b10313630b1b5b634b9ba32b960a11b606082015260800190565b6020808252818101527f4f776e61626c653a2063616c6c6572206973206e6f7420746865206f776e6572604082015260600190565b60208082526029908201527f46696174546f6b656e3a2063616c6c6572206973206e6f7420746865206d61736040820152683a32b926b4b73a32b960b91b606082015260800190565b6020808252602f908201527f46696174546f6b656e3a206e6577206d61737465724d696e746572206973207460408201526e6865207a65726f206164647265737360881b606082015260800190565b601f82111561167257600081815260208120601f850160051c810160208610156123125750805b601f850160051c820191505b818110156123315782815560010161231e565b505050505050565b815167ffffffffffffffff81111561235357612353611f47565b612367816123618454612129565b846122eb565b602080601f83116001811461239c57600084156123845750858301515b600019600386901b1c1916600185901b178555612331565b600085815260208120601f198616915b828110156123cb578886015182559484019460019091019084016123ac565b50858210156123e95787850151600019600388901b60f8161c191681555b5050505050600190811b01905550565b60208082526022908201527f5061757361626c653a2063616c6c6572206973206e6f7420746865207061757360408201526132b960f11b606082015260800190565b60208082526021908201527f46696174546f6b656e3a2063616c6c6572206973206e6f742061206d696e74656040820152603960f91b606082015260800190565b634e487b7160e01b600052601160045260246000fd5b808201808211156112805761128061247c565b818103818111156112805761128061247c565b6000602082840312156124ca57600080fd5b81518015158114611b1d57600080fd5b600082516124ec818460208701611e46565b919091019291505056fea26469706673582212201c6409005a015f09509e22cd1ddb29fa061236ec85a295c99ed31f3f96b5341964736f6c63430008150033",
    "linkReferences": {}
  },
  "methodIdentifiers": {
    "allowance(address,address)": "dd62ed3e",
    "approve(address,uint256)": "095ea7b3",
    "balanceOf(address)": "70a08231",
    "blacklist(address)": "f9f92be4",
    "blacklister()": "bd102430",
    "burn(uint256)": "42966c68",
    "configureMinter(address,uint256)": "4e44d956",
    "currency()": "e5a6b10f",
    "decimals()": "313ce567",
    "initialize(string,string,string,uint8,address,address,address,address)": "3357162b",
    "isBlacklisted(address)": "fe575a87",
    "isMinter(address)": "aa271e1a",
    "masterMinter()": "35d99f35",
    "mint(address,uint256)": "40c10f19",
    "minterAllowance(address)": "8a6db9c3",
    "name()": "06fdde03",
    "owner()": "8da5cb5b",
    "pause()": "8456cb59",
    "paused()": "5c975abb",
    "pauser()": "9fd0506d",
    "removeMinter(address)": "3092afd5",
    "rescueERC20(address,address,uint256)": "b2118a8d",
    "rescuer()": "38a63183",
    "symbol()": "95d89b41",
    "totalSupply()": "18160ddd",
    "transfer(address,uint256)": "a9059cbb",
    "transferFrom(address,address,uint256)": "23b872dd",
    "transferOwnership(address)": "f2fde38b",
    "unBlacklist(address)": "1a895266",
    "unpause()": "3f4ba83a",
    "updateBlacklister(address)": "ad38bf22",
    "updateMasterMinter(address)": "aa20e1e4",
    "updatePauser(address)": "554bab3c",
    "updateRescuer(address)": "2ab60045"
  },
  "id": 21
}