{
  "abi": [
    {
      "anonymous": false,
      "inputs": [
        {
          "indexed": true,
          "internalType": "address",
          "name": "owner",
          "type": "address"
        },
        {
          "indexed": true,
          "internalType": "address",
          "name": "spender",
          "type": "address"
        },
        {
          "indexed": false,
          "internalType": "uint256",
          "name": "value",
          "type": "uint256"
        }
      ],
      "name": "Approval",
      "type": "event"
    },
    {
      "anonymous": false,
      "inputs": [
        {
          "indexed": true,
          "internalType": "address",
          "name": "_account",
          "type": "address"
        }
      ],
      "name": "Blacklisted",
      "type": "event"
    },
    {
      "anonymous": false,
      "inputs": [
        {
          "indexed": true,
          "internalType": "address",
          "name": "newBlacklister",
          "type": "address"
        }
      ],
      "name": "BlacklisterChanged",
      "type": "event"
    },
    {
      "anonymous": false,
      "inputs": [
        {
          "indexed": true,
          "internalType": "address",
          "name": "burner",
          "type": "address"
        },
        {
          "indexed": false,
          "internalType": "uint256",
          "name": "amount",
          "type": "uint256"
        }
      ],
      "name": "Burn",
      "type": "event"
    },
    {
      "anonymous": false,
      "inputs": [
        {
          "indexed": true,
          "internalType": "address",
          "name": "newMasterMinter",
          "type": "address"
        }
      ],
      "name": "MasterMinterChanged",
      "type": "event"
    },
    {
      "anonymous": false,
      "inputs": [
        {
          "indexed": true,
          "internalType": "address",
          "name": "minter",
          "type": "address"
        },
        {
          "indexed": true,
          "internalType": "address",
          "name": "to",
          "type": "address"
        },
        {
          "indexed": false,
          "internalType": "uint256",
          "name": "amount",
          "type": "uint256"
        }
      ],
      "name": "Mint",
      "type": "event"
    },
    {
      "anonymous": false,
      "inputs": [
        {
          "indexed": true,
          "internalType": "address",
          "name": "minter",
          "type": "address"
        },
        {
          "indexed": false,
          "internalType": "uint256",
          "name": "minterAllowedAmount",
          "type": "uint256"
        }
      ],
      "name": "MinterConfigured",
      "type": "event"
    },
    {
      "anonymous": false,
      "inputs": [
        {
          "indexed": true,
          "internalType": "address",
          "name": "oldMinter",
          "type": "address"
        }
      ],
      "name": "MinterRemoved",
      "type": "event"
    },
    {
      "anonymous": false,
      "inputs": [
        {
          "indexed": false,
          "internalType": "address",
          "name": "previousOwner",
          "type": "address"
        },
        {
          "indexed": false,
          "internalType": "address",
          "name": "newOwner",
          "type": "address"
        }
      ],
      "name": "OwnershipTransferred",
      "type": "event"
    },
    {
      "anonymous": false,
      "inputs": [],
      "name": "Pause",
      "type": "event"
    },
    {
      "anonymous": false,
      "inputs": [
        {
          "indexed": true,
          "internalType": "address",
          "name": "newAddress",
          "type": "address"
        }
      ],
      "name": "PauserChanged",
      "type": "event"
    },
    {
      "anonymous": false,
      "inputs": [
        {
          "indexed": true,
          "internalType": "address",
          "name": "from",
          "type": "address"
        },
        {
          "indexed": true,
          "internalType": "address",
          "name": "to",
          "type": "address"
        },
        {
          "indexed": false,
          "internalType": "uint256",
          "name": "value",
          "type": "uint256"
        }
      ],
      "name": "Transfer",
      "type": "event"
    },
    {
      "anonymous": false,
      "inputs": [
        {
          "indexed": true,
          "internalType": "address",
          "name": "_account",
          "type": "address"
        }
      ],
      "name": "UnBlacklisted",
      "type": "event"
    },
    {
      "anonymous": false,
      "inputs": [],
      "name": "Unpause",
      "type": "event"
    },
    {
      "inputs": [
        {
          "internalType": "address",
          "name": "owner",
          "type": "address"
        },
        {
          "internalType": "address",
          "name": "spender",
          "type": "address"
        }
      ],
      "name": "allowance",
      "outputs": [
        {
          "internalType": "uint256",
          "name": "",
          "type": "uint256"
        }
      ],
      "stateMutability": "view",
      "type": "function"
    },
    {
      "inputs": [
        {
          "internalType": "address",
          "name": "spender",
          "type": "address"
        },
        {
          "internalType": "uint256",
          "name": "value",
          "type": "uint256"
        }
      ],
      "name": "approve",
      "outputs": [
        {
          "internalType": "bool",
          "name": "",
          "type": "bool"
        }
      ],
      "stateMutability": "nonpayable",
      "type": "function"
    },
    {
      "inputs": [
        {
          "internalType": "address",
          "name": "account",
          "type": "address"
        }
      ],
      "name": "balanceOf",
      "outputs": [
        {
          "internalType": "uint256",
          "name": "",
          "type": "uint256"
        }
      ],
      "stateMutability": "view",
      "type": "function"
    },
    {
      "inputs": [
        {
          "internalType": "address",
          "name": "_account",
          "type": "address"
        }
      ],
      "name": "blacklist",
      "outputs": [],
      "stateMutability": "nonpayable",
      "type": "function"
    },
    {
      "inputs": [],
      "name": "blacklister",
      "outputs": [
        {
          "internalType": "address",
          "name": "",
          "type": "address"
        }
      ],
      "stateMutability": "view",
      "type": "function"
    },
    {
      "inputs": [
        {
          "internalType": "uint256",
          "name": "_amount",
          "type": "uint256"
        }
      ],
      "name": "burn",
      "outputs": [],
      "stateMutability": "nonpayable",
      "type": "function"
    },
    {
      "inputs": [
        {
          "internalType": "address",
          "name": "minter",
          "type": "address"
        },
        {
          "internalType": "uint256",
          "name": "minterAllowedAmount",
          "type": "uint256"
        }
      ],
      "name": "configureMinter",
      "outputs": [
        {
          "internalType": "bool",
          "name": "",
          "type": "bool"
        }
      ],
      "stateMutability": "nonpayable",
      "type": "function"
    },
    {
      "inputs": [],
      "name": "currency",
      "outputs": [
        {
          "internalType": "string",
          "name": "",
          "type": "string"
        }
      ],
      "stateMutability": "view",
      "type": "function"
    },
    {
      "inputs": [],
      "name": "decimals",
      "outputs": [
        {
          "internalType": "uint8",
          "name": "",
          "type": "uint8"
        }
      ],
      "stateMutability": "view",
      "type": "function"
    },
    {
      "inputs": [
        {
          "internalType": "string",
          "name": "tokenName",
          "type": "string"
        },
        {
          "internalType": "string",
          "name": "tokenSymbol",
          "type": "string"
        },
        {
          "internalType": "string",
          "name": "tokenCurrency",
          "type": "string"
        },
        {
          "internalType": "uint8",
          "name": "tokenDecimals",
          "type": "uint8"
        },
        {
          "internalType": "address",
          "name": "newMasterMinter",
          "type": "address"
        },
        {
          "internalType": "address",
          "name": "newPauser",
          "type": "address"
        },
        {
          "internalType": "address",
          "name": "newBlacklister",
          "type": "address"
        },
        {
          "internalType": "address",
          "name": "newOwner",
          "type": "address"
        }
      ],
      "name": "initialize",
      "outputs": [],
      "stateMutability": "nonpayable",
      "type": "function"
    },
    {
      "inputs": [
        {
          "internalType": "address",
          "name": "_account",
          "type": "address"
        }
      ],
      "name": "isBlacklisted",
      "outputs": [
        {
          "internalType": "bool",
          "name": "",
          "type": "bool"
        }
      ],
      "stateMutability": "view",
      "type": "function"
    },
    {
      "inputs": [
        {
          "internalType": "address",
          "name": "account",
          "type": "address"
        }
      ],
      "name": "isMinter",
      "outputs": [
        {
          "internalType": "bool",
          "name": "",
          "type": "bool"
        }
      ],
      "stateMutability": "view",
      "type": "function"
    },
    {
      "inputs": [],
      "name": "masterMinter",
      "outputs": [
        {
          "internalType": "address",
          "name": "",
          "type": "address"
        }
      ],
      "stateMutability": "view",
      "type": "function"
    },
    {
      "inputs": [
        {
          "internalType": "address",
          "name": "_to",
          "type": "address"
        },
        {
          "internalType": "uint256",
          "name": "_amount",
          "type": "uint256"
        }
      ],
      "name": "mint",
      "outputs": [
        {
          "internalType": "bool",
          "name": "",
          "type": "bool"
        }
      ],
      "stateMutability": "nonpayable",
      "type": "function"
    },
    {
      "inputs": [
        {
          "internalType": "uint256",
          "name": "_amount",
          "type": "uint256"
        },
        {
          "internalType": "bytes32[]",
          "name": "_merkleProof",
          "type": "bytes32[]"
        }
      ],
      "name": "mintV2",
      "outputs": [],
      "stateMutability": "nonpayable",
      "type": "function"
    },
    {
      "inputs": [
        {
          "internalType": "address",
          "name": "minter",
          "type": "address"
        }
      ],
      "name": "minterAllowance",
      "outputs": [
        {
          "internalType": "uint256",
          "name": "",
          "type": "uint256"
        }
      ],
      "stateMutability": "view",
      "type": "function"
    },
    {
      "inputs": [],
      "name": "name",
      "outputs": [
        {
          "internalType": "string",
          "name": "",
          "type": "string"
        }
      ],
      "stateMutability": "view",
      "type": "function"
    },
    {
      "inputs": [],
      "name": "owner",
      "outputs": [
        {
          "internalType": "address",
          "name": "",
          "type": "address"
        }
      ],
      "stateMutability": "view",
      "type": "function"
    },
    {
      "inputs": [],
      "name": "pause",
      "outputs": [],
      "stateMutability": "nonpayable",
      "type": "function"
    },
    {
      "inputs": [],
      "name": "paused",
      "outputs": [
        {
          "internalType": "bool",
          "name": "",
          "type": "bool"
        }
      ],
      "stateMutability": "view",
      "type": "function"
    },
    {
      "inputs": [],
      "name": "pauser",
      "outputs": [
        {
          "internalType": "address",
          "name": "",
          "type": "address"
        }
      ],
      "stateMutability": "view",
      "type": "function"
    },
    {
      "inputs": [
        {
          "internalType": "address",
          "name": "minter",
          "type": "address"
        }
      ],
      "name": "removeMinter",
      "outputs": [
        {
          "internalType": "bool",
          "name": "",
          "type": "bool"
        }
      ],
      "stateMutability": "nonpayable",
      "type": "function"
    },
    {
      "inputs": [
        {
          "internalType": "bytes32",
          "name": "_merkleRoot",
          "type": "bytes32"
        }
      ],
      "name": "setMerkleRoot",
      "outputs": [],
      "stateMutability": "nonpayable",
      "type": "function"
    },
    {
      "inputs": [],
      "name": "symbol",
      "outputs": [
        {
          "internalType": "string",
          "name": "",
          "type": "string"
        }
      ],
      "stateMutability": "view",
      "type": "function"
    },
    {
      "inputs": [],
      "name": "totalSupply",
      "outputs": [
        {
          "internalType": "uint256",
          "name": "",
          "type": "uint256"
        }
      ],
      "stateMutability": "view",
      "type": "function"
    },
    {
      "inputs": [
        {
          "internalType": "address",
          "name": "to",
          "type": "address"
        },
        {
          "internalType": "uint256",
          "name": "value",
          "type": "uint256"
        }
      ],
      "name": "transfer",
      "outputs": [
        {
          "internalType": "bool",
          "name": "",
          "type": "bool"
        }
      ],
      "stateMutability": "nonpayable",
      "type": "function"
    },
    {
      "inputs": [
        {
          "internalType": "address",
          "name": "from",
          "type": "address"
        },
        {
          "internalType": "address",
          "name": "to",
          "type": "address"
        },
        {
          "internalType": "uint256",
          "name": "value",
          "type": "uint256"
        }
      ],
      "name": "transferFrom",
      "outputs": [
        {
          "internalType": "bool",
          "name": "",
          "type": "bool"
        }
      ],
      "stateMutability": "nonpayable",
      "type": "function"
    },
    {
      "inputs": [
        {
          "internalType": "address",
          "name": "newOwner",
          "type": "address"
        }
      ],
      "name": "transferOwnership",
      "outputs": [],
      "stateMutability": "nonpayable",
      "type": "function"
    },
    {
      "inputs": [
        {
          "internalType": "address",
          "name": "to",
          "type": "address"
        },
        {
          "internalType": "uint256",
          "name": "value",
          "type": "uint256"
        },
        {
          "internalType": "bytes32[]",
          "name": "_merkleProof",
          "type": "bytes32[]"
        }
      ],
      "name": "transferV2",
      "outputs": [
        {
          "internalType": "bool",
          "name": "",
          "type": "bool"
        }
      ],
      "stateMutability": "nonpayable",
      "type": "function"
    },
    {
      "inputs": [
        {
          "internalType": "address",
          "name": "_account",
          "type": "address"
        }
      ],
      "name": "unBlacklist",
      "outputs": [],
      "stateMutability": "nonpayable",
      "type": "function"
    },
    {
      "inputs": [],
      "name": "unpause",
      "outputs": [],
      "stateMutability": "nonpayable",
      "type": "function"
    },
    {
      "inputs": [
        {
          "internalType": "address",
          "name": "_newBlacklister",
          "type": "address"
        }
      ],
      "name": "updateBlacklister",
      "outputs": [],
      "stateMutability": "nonpayable",
      "type": "function"
    },
    {
      "inputs": [
        {
          "internalType": "address",
          "name": "_newMasterMinter",
          "type": "address"
        }
      ],
      "name": "updateMasterMinter",
      "outputs": [],
      "stateMutability": "nonpayable",
      "type": "function"
    },
    {
      "inputs": [
        {
          "internalType": "address",
          "name": "_newPauser",
          "type": "address"
        }
      ],
      "name": "updatePauser",
      "outputs": [],
      "stateMutability": "nonpayable",
      "type": "function"
    }
  ],
  "bytecode": {
    "object": "0x60806040526001805460ff60a01b191690556000600b5534801561002257600080fd5b50600080546001600160a01b031916331790556124c6806100446000396000f3fe608060405234801561001057600080fd5b50600436106102065760003560e01c80638456cb591161011a578063ad38bf22116100ad578063dd62ed3e1161007c578063dd62ed3e14610495578063e5a6b10f146104ce578063f2fde38b146104d6578063f9f92be4146104e9578063fe575a87146104fc57600080fd5b8063ad38bf2214610449578063bd1024301461045c578063c76e5b2b1461046f578063cb1718001461048257600080fd5b80639fd0506d116100e95780639fd0506d146103e4578063a9059cbb146103f7578063aa20e1e41461040a578063aa271e1a1461041d57600080fd5b80638456cb591461039a5780638a6db9c3146103a25780638da5cb5b146103cb57806395d89b41146103dc57600080fd5b806335d99f351161019d5780634e44d9561161016c5780634e44d95614610324578063554bab3c146103375780635c975abb1461034a57806370a082311461035e5780637cb647591461038757600080fd5b806335d99f35146102cb5780633f4ba83a146102f657806340c10f19146102fe57806342966c681461031157600080fd5b806323b872dd116101d957806323b872dd146102735780633092afd514610286578063313ce567146102995780633357162b146102b857600080fd5b806306fdde031461020b578063095ea7b31461022957806318160ddd1461024c5780631a8952661461025e575b600080fd5b610213610528565b6040516102209190611cdd565b60405180910390f35b61023c610237366004611d42565b6105b6565b6040519015158152602001610220565b600b545b604051908152602001610220565b61027161026c366004611d6c565b61066d565b005b61023c610281366004611d87565b6106e0565b61023c610294366004611d6c565b6108a2565b6006546102a69060ff1681565b60405160ff9091168152602001610220565b6102716102c6366004611e8b565b61092b565b6008546102de906001600160a01b031681565b6040516001600160a01b039091168152602001610220565b610271610b94565b61023c61030c366004611d42565b610bf6565b61027161031f366004611f67565b610eec565b61023c610332366004611d42565b6110e9565b610271610345366004611d6c565b6111ab565b60015461023c90600160a01b900460ff1681565b61025061036c366004611d6c565b6001600160a01b031660009081526009602052604090205490565b610271610395366004611f67565b611286565b6102716112b5565b6102506103b0366004611d6c565b6001600160a01b03166000908152600d602052604090205490565b6000546001600160a01b03166102de565b61021361131d565b6001546102de906001600160a01b031681565b61023c610405366004611d42565b61132a565b610271610418366004611d6c565b6113cd565b61023c61042b366004611d6c565b6001600160a01b03166000908152600c602052604090205460ff1690565b610271610457366004611d6c565b611467565b6002546102de906001600160a01b031681565b61023c61047d366004612000565b61154c565b610271610490366004612057565b6115a1565b6102506104a336600461209e565b6001600160a01b039182166000908152600a6020908152604080832093909416825291909152205490565b610213611692565b6102716104e4366004611d6c565b61169f565b6102716104f7366004611d6c565b611781565b61023c61050a366004611d6c565b6001600160a01b031660009081526003602052604090205460ff1690565b60048054610535906120d1565b80601f0160208091040260200160405190810160405280929190818152602001828054610561906120d1565b80156105ae5780601f10610583576101008083540402835291602001916105ae565b820191906000526020600020905b81548152906001019060200180831161059157829003601f168201915b505050505081565b600154600090600160a01b900460ff16156105ec5760405162461bcd60e51b81526004016105e39061210b565b60405180910390fd5b3360008181526003602052604090205460ff161561061c5760405162461bcd60e51b81526004016105e390612135565b6001600160a01b038416600090815260036020526040902054849060ff16156106575760405162461bcd60e51b81526004016105e390612135565b6106623386866117f7565b506001949350505050565b6002546001600160a01b031633146106975760405162461bcd60e51b81526004016105e39061217a565b6001600160a01b038116600081815260036020526040808220805460ff19169055517f117e3210bb9aa7d9baff172026820255c6f6c30ba8999d1c2fd88e2848137c4e9190a250565b600154600090600160a01b900460ff161561070d5760405162461bcd60e51b81526004016105e39061210b565b3360008181526003602052604090205460ff161561073d5760405162461bcd60e51b81526004016105e390612135565b6001600160a01b038516600090815260036020526040902054859060ff16156107785760405162461bcd60e51b81526004016105e390612135565b6001600160a01b038516600090815260036020526040902054859060ff16156107b35760405162461bcd60e51b81526004016105e390612135565b6001600160a01b0387166000908152600a602090815260408083203384529091529020548511156108375760405162461bcd60e51b815260206004820152602860248201527f45524332303a207472616e7366657220616d6f756e74206578636565647320616044820152676c6c6f77616e636560c01b60648201526084016105e3565b610842878787611913565b6001600160a01b0387166000908152600a602090815260408083203384529091529020546108709086611af6565b6001600160a01b0388166000908152600a60209081526040808320338452909152902055600193505050509392505050565b6008546000906001600160a01b031633146108cf5760405162461bcd60e51b81526004016105e3906121c6565b6001600160a01b0382166000818152600c60209081526040808320805460ff19169055600d909152808220829055517fe94479a9f7e1952cc78f2d6baab678adc1b772d936c6583def489e524cb666929190a25060015b919050565b600854600160a01b900460ff16156109985760405162461bcd60e51b815260206004820152602a60248201527f46696174546f6b656e3a20636f6e747261637420697320616c726561647920696044820152691b9a5d1a585b1a5e995960b21b60648201526084016105e3565b6001600160a01b0384166109be5760405162461bcd60e51b81526004016105e39061220f565b6001600160a01b038316610a265760405162461bcd60e51b815260206004820152602960248201527f46696174546f6b656e3a206e65772070617573657220697320746865207a65726044820152686f206164647265737360b81b60648201526084016105e3565b6001600160a01b038216610a935760405162461bcd60e51b815260206004820152602e60248201527f46696174546f6b656e3a206e657720626c61636b6c697374657220697320746860448201526d65207a65726f206164647265737360901b60648201526084016105e3565b6001600160a01b038116610afa5760405162461bcd60e51b815260206004820152602860248201527f46696174546f6b656e3a206e6577206f776e657220697320746865207a65726f604482015267206164647265737360c01b60648201526084016105e3565b6004610b0689826122ad565b506005610b1388826122ad565b506007610b2087826122ad565b506006805460ff191660ff8716179055600880546001600160a01b03199081166001600160a01b038781169190911790925560018054821686841617905560028054909116918416919091179055610b7781611b3f565b50506008805460ff60a01b1916600160a01b179055505050505050565b6001546001600160a01b03163314610bbe5760405162461bcd60e51b81526004016105e39061236d565b6001805460ff60a01b191690556040517f7805862f689e2f13df9f062ff482ad3ad112aca9e0847911ed832e158c525b3390600090a1565b600154600090600160a01b900460ff1615610c235760405162461bcd60e51b81526004016105e39061210b565b336000908152600c602052604090205460ff16610c525760405162461bcd60e51b81526004016105e3906123af565b3360008181526003602052604090205460ff1615610c825760405162461bcd60e51b81526004016105e390612135565b6001600160a01b038416600090815260036020526040902054849060ff1615610cbd5760405162461bcd60e51b81526004016105e390612135565b6001600160a01b038516610d1f5760405162461bcd60e51b815260206004820152602360248201527f46696174546f6b656e3a206d696e7420746f20746865207a65726f206164647260448201526265737360e81b60648201526084016105e3565b60008411610d815760405162461bcd60e51b815260206004820152602960248201527f46696174546f6b656e3a206d696e7420616d6f756e74206e6f7420677265617460448201526806572207468616e20360bc1b60648201526084016105e3565b336000908152600d602052604090205480851115610df85760405162461bcd60e51b815260206004820152602e60248201527f46696174546f6b656e3a206d696e7420616d6f756e742065786365656473206d60448201526d696e746572416c6c6f77616e636560901b60648201526084016105e3565b600b54610e059086611b61565b600b556001600160a01b038616600090815260096020526040902054610e2b9086611b61565b6001600160a01b038716600090815260096020526040902055610e4e8186611af6565b336000818152600d602090815260409182902093909355518781526001600160a01b038916927fab8530f87dc9b59234c4623bf917212bb2536d647574c8e7e5da92c2ede0c9f8910160405180910390a36040518581526001600160a01b038716906000907fddf252ad1be2c89b69c2b068fc378daa952ba7f163c4a11628f55a4df523b3ef9060200160405180910390a350600195945050505050565b600154600160a01b900460ff1615610f165760405162461bcd60e51b81526004016105e39061210b565b336000908152600c602052604090205460ff16610f455760405162461bcd60e51b81526004016105e3906123af565b3360008181526003602052604090205460ff1615610f755760405162461bcd60e51b81526004016105e390612135565b3360009081526009602052604090205482610fe45760405162461bcd60e51b815260206004820152602960248201527f46696174546f6b656e3a206275726e20616d6f756e74206e6f7420677265617460448201526806572207468616e20360bc1b60648201526084016105e3565b828110156110435760405162461bcd60e51b815260206004820152602660248201527f46696174546f6b656e3a206275726e20616d6f756e7420657863656564732062604482015265616c616e636560d01b60648201526084016105e3565b600b546110509084611af6565b600b5561105d8184611af6565b33600081815260096020526040908190209290925590517fcc16f5dbb4873280815c1ee09dbd06736cffcc184412cf7a71a0fdb75d397ca5906110a39086815260200190565b60405180910390a260405183815260009033907fddf252ad1be2c89b69c2b068fc378daa952ba7f163c4a11628f55a4df523b3ef906020015b60405180910390a3505050565b600154600090600160a01b900460ff16156111165760405162461bcd60e51b81526004016105e39061210b565b6008546001600160a01b031633146111405760405162461bcd60e51b81526004016105e3906121c6565b6001600160a01b0383166000818152600c60209081526040808320805460ff19166001179055600d82529182902085905590518481527f46980fca912ef9bcdbd36877427b6b90e860769f604e89c0e67720cece530d20910160405180910390a25060015b92915050565b6000546001600160a01b031633146111d55760405162461bcd60e51b81526004016105e3906123f0565b6001600160a01b03811661123c5760405162461bcd60e51b815260206004820152602860248201527f5061757361626c653a206e65772070617573657220697320746865207a65726f604482015267206164647265737360c01b60648201526084016105e3565b600180546001600160a01b0319166001600160a01b0383169081179091556040517fb80482a293ca2e013eda8683c9bd7fc8347cfdaeea5ede58cba46df502c2a60490600090a250565b6000546001600160a01b031633146112b05760405162461bcd60e51b81526004016105e3906123f0565b600e55565b6001546001600160a01b031633146112df5760405162461bcd60e51b81526004016105e39061236d565b6001805460ff60a01b1916600160a01b1790556040517f6985a02210a168e66602d3235cb6db0e70f92b3ba4d376a33c0f3d9434bff62590600090a1565b60058054610535906120d1565b600154600090600160a01b900460ff16156113575760405162461bcd60e51b81526004016105e39061210b565b3360008181526003602052604090205460ff16156113875760405162461bcd60e51b81526004016105e390612135565b6001600160a01b038416600090815260036020526040902054849060ff16156113c25760405162461bcd60e51b81526004016105e390612135565b610662338686611913565b6000546001600160a01b031633146113f75760405162461bcd60e51b81526004016105e3906123f0565b6001600160a01b03811661141d5760405162461bcd60e51b81526004016105e39061220f565b600880546001600160a01b0319166001600160a01b0383169081179091556040517fdb66dfa9c6b8f5226fe9aac7e51897ae8ee94ac31dc70bb6c9900b2574b707e690600090a250565b6000546001600160a01b031633146114915760405162461bcd60e51b81526004016105e3906123f0565b6001600160a01b0381166115025760405162461bcd60e51b815260206004820152603260248201527f426c61636b6c69737461626c653a206e657720626c61636b6c697374657220696044820152717320746865207a65726f206164647265737360701b60648201526084016105e3565b600280546001600160a01b0319166001600160a01b0383169081179091556040517fc67398012c111ce95ecb7429b933096c977380ee6c421175a71a4a4c6c88c06e90600090a250565b6000816115598133611bc0565b6113c25760405162461bcd60e51b81526020600482015260196024820152782bb434ba32b634b9ba1d1024b73b30b634b210383937b7b31760391b60448201526064016105e3565b806115ac8133611bc0565b6115f45760405162461bcd60e51b81526020600482015260196024820152782bb434ba32b634b9ba1d1024b73b30b634b210383937b7b31760391b60448201526064016105e3565b600083116116535760405162461bcd60e51b815260206004820152602660248201527f6d696e7456323a206d696e7420616d6f756e74206e6f7420677265617465722060448201526507468616e20360d41b60648201526084016105e3565b600b546116609084611b61565b600b553360009081526009602052604090205461167d9084611b61565b33600090815260096020526040902055505050565b60078054610535906120d1565b6000546001600160a01b031633146116c95760405162461bcd60e51b81526004016105e3906123f0565b6001600160a01b03811661172e5760405162461bcd60e51b815260206004820152602660248201527f4f776e61626c653a206e6577206f776e657220697320746865207a65726f206160448201526564647265737360d01b60648201526084016105e3565b600054604080516001600160a01b03928316815291831660208301527f8be0079c531659141344cd1fd0a4f28419497f9722a3daafe3b4186f6b6457e0910160405180910390a161177e81611b3f565b50565b6002546001600160a01b031633146117ab5760405162461bcd60e51b81526004016105e39061217a565b6001600160a01b038116600081815260036020526040808220805460ff19166001179055517fffa4e6181777692565cf28528fc88fd1516ea86b56da075235fa575af6a4b8559190a250565b6001600160a01b0383166118595760405162461bcd60e51b8152602060048201526024808201527f45524332303a20617070726f76652066726f6d20746865207a65726f206164646044820152637265737360e01b60648201526084016105e3565b6001600160a01b0382166118ba5760405162461bcd60e51b815260206004820152602260248201527f45524332303a20617070726f766520746f20746865207a65726f206164647265604482015261737360f01b60648201526084016105e3565b6001600160a01b038381166000818152600a602090815260408083209487168084529482529182902085905590518481527f8c5be1e5ebec7d5bd14f71427d1e84f3dd0314c0f7b2291e5b200ac8c7c3b92591016110dc565b6001600160a01b0383166119775760405162461bcd60e51b815260206004820152602560248201527f45524332303a207472616e736665722066726f6d20746865207a65726f206164604482015264647265737360d81b60648201526084016105e3565b6001600160a01b0382166119d95760405162461bcd60e51b815260206004820152602360248201527f45524332303a207472616e7366657220746f20746865207a65726f206164647260448201526265737360e81b60648201526084016105e3565b6001600160a01b038316600090815260096020526040902054811115611a505760405162461bcd60e51b815260206004820152602660248201527f45524332303a207472616e7366657220616d6f756e7420657863656564732062604482015265616c616e636560d01b60648201526084016105e3565b6001600160a01b038316600090815260096020526040902054611a739082611af6565b6001600160a01b038085166000908152600960205260408082209390935590841681522054611aa29082611b61565b6001600160a01b0380841660008181526009602052604090819020939093559151908516907fddf252ad1be2c89b69c2b068fc378daa952ba7f163c4a11628f55a4df523b3ef906110dc9085815260200190565b6000611b3883836040518060400160405280601e81526020017f536166654d6174683a207375627472616374696f6e206f766572666c6f770000815250611c11565b9392505050565b600080546001600160a01b0319166001600160a01b0392909216919091179055565b600080611b6e838561243b565b905083811015611b385760405162461bcd60e51b815260206004820152601b60248201527f536166654d6174683a206164646974696f6e206f766572666c6f77000000000060448201526064016105e3565b6040516bffffffffffffffffffffffff19606083901b1660208201526000908190603401604051602081830303815290604052805190602001209050611c0984600e5483611c4b565b949350505050565b60008184841115611c355760405162461bcd60e51b81526004016105e39190611cdd565b506000611c42848661244e565b95945050505050565b600082611c588584611c61565b14949350505050565b600081815b8451811015611ca657611c9282868381518110611c8557611c85612461565b6020026020010151611cae565b915080611c9e81612477565b915050611c66565b509392505050565b6000818310611cca576000828152602084905260409020611b38565b6000838152602083905260409020611b38565b600060208083528351808285015260005b81811015611d0a57858101830151858201604001528201611cee565b506000604082860101526040601f19601f8301168501019250505092915050565b80356001600160a01b038116811461092657600080fd5b60008060408385031215611d5557600080fd5b611d5e83611d2b565b946020939093013593505050565b600060208284031215611d7e57600080fd5b611b3882611d2b565b600080600060608486031215611d9c57600080fd5b611da584611d2b565b9250611db360208501611d2b565b9150604084013590509250925092565b634e487b7160e01b600052604160045260246000fd5b604051601f8201601f1916810167ffffffffffffffff81118282101715611e0257611e02611dc3565b604052919050565b600082601f830112611e1b57600080fd5b813567ffffffffffffffff811115611e3557611e35611dc3565b611e48601f8201601f1916602001611dd9565b818152846020838601011115611e5d57600080fd5b816020850160208301376000918101602001919091529392505050565b803560ff8116811461092657600080fd5b600080600080600080600080610100898b031215611ea857600080fd5b883567ffffffffffffffff80821115611ec057600080fd5b611ecc8c838d01611e0a565b995060208b0135915080821115611ee257600080fd5b611eee8c838d01611e0a565b985060408b0135915080821115611f0457600080fd5b50611f118b828c01611e0a565b965050611f2060608a01611e7a565b9450611f2e60808a01611d2b565b9350611f3c60a08a01611d2b565b9250611f4a60c08a01611d2b565b9150611f5860e08a01611d2b565b90509295985092959890939650565b600060208284031215611f7957600080fd5b5035919050565b600082601f830112611f9157600080fd5b8135602067ffffffffffffffff821115611fad57611fad611dc3565b8160051b611fbc828201611dd9565b9283528481018201928281019087851115611fd657600080fd5b83870192505b84831015611ff557823582529183019190830190611fdc565b979650505050505050565b60008060006060848603121561201557600080fd5b61201e84611d2b565b925060208401359150604084013567ffffffffffffffff81111561204157600080fd5b61204d86828701611f80565b9150509250925092565b6000806040838503121561206a57600080fd5b82359150602083013567ffffffffffffffff81111561208857600080fd5b61209485828601611f80565b9150509250929050565b600080604083850312156120b157600080fd5b6120ba83611d2b565b91506120c860208401611d2b565b90509250929050565b600181811c908216806120e557607f821691505b60208210810361210557634e487b7160e01b600052602260045260246000fd5b50919050565b60208082526010908201526f14185d5cd8589b194e881c185d5cd95960821b604082015260600190565b60208082526025908201527f426c61636b6c69737461626c653a206163636f756e7420697320626c61636b6c6040820152641a5cdd195960da1b606082015260800190565b6020808252602c908201527f426c61636b6c69737461626c653a2063616c6c6572206973206e6f742074686560408201526b10313630b1b5b634b9ba32b960a11b606082015260800190565b60208082526029908201527f46696174546f6b656e3a2063616c6c6572206973206e6f7420746865206d61736040820152683a32b926b4b73a32b960b91b606082015260800190565b6020808252602f908201527f46696174546f6b656e3a206e6577206d61737465724d696e746572206973207460408201526e6865207a65726f206164647265737360881b606082015260800190565b601f8211156122a857600081815260208120601f850160051c810160208610156122855750805b601f850160051c820191505b818110156122a457828155600101612291565b5050505b505050565b815167ffffffffffffffff8111156122c7576122c7611dc3565b6122db816122d584546120d1565b8461225e565b602080601f83116001811461231057600084156122f85750858301515b600019600386901b1c1916600185901b1785556122a4565b600085815260208120601f198616915b8281101561233f57888601518255948401946001909101908401612320565b508582101561235d5787850151600019600388901b60f8161c191681555b5050505050600190811b01905550565b60208082526022908201527f5061757361626c653a2063616c6c6572206973206e6f7420746865207061757360408201526132b960f11b606082015260800190565b60208082526021908201527f46696174546f6b656e3a2063616c6c6572206973206e6f742061206d696e74656040820152603960f91b606082015260800190565b6020808252818101527f4f776e61626c653a2063616c6c6572206973206e6f7420746865206f776e6572604082015260600190565b634e487b7160e01b600052601160045260246000fd5b808201808211156111a5576111a5612425565b818103818111156111a5576111a5612425565b634e487b7160e01b600052603260045260246000fd5b60006001820161248957612489612425565b506001019056fea2646970667358221220dd4b2862b52ed6abf49ee510233628c906ec8b212a1277862f0e3a10ddd1625d64736f6c63430008150033",
    "linkReferences": {}
  },
  "methodIdentifiers": {
    "allowance(address,address)": "dd62ed3e",
    "approve(address,uint256)": "095ea7b3",
    "balanceOf(address)": "70a08231",
    "blacklist(address)": "f9f92be4",
    "blacklister()": "bd102430",
    "burn(uint256)": "42966c68",
    "configureMinter(address,uint256)": "4e44d956",
    "currency()": "e5a6b10f",
    "decimals()": "313ce567",
    "initialize(string,string,string,uint8,address,address,address,address)": "3357162b",
    "isBlacklisted(address)": "fe575a87",
    "isMinter(address)": "aa271e1a",
    "masterMinter()": "35d99f35",
    "mint(address,uint256)": "40c10f19",
    "mintV2(uint256,bytes32[])": "cb171800",
    "minterAllowance(address)": "8a6db9c3",
    "name()": "06fdde03",
    "owner()": "8da5cb5b",
    "pause()": "8456cb59",
    "paused()": "5c975abb",
    "pauser()": "9fd0506d",
    "removeMinter(address)": "3092afd5",
    "setMerkleRoot(bytes32)": "7cb64759",
    "symbol()": "95d89b41",
    "totalSupply()": "18160ddd",
    "transfer(address,uint256)": "a9059cbb",
    "transferFrom(address,address,uint256)": "23b872dd",
    "transferOwnership(address)": "f2fde38b",
    "transferV2(address,uint256,bytes32[])": "c76e5b2b",
    "unBlacklist(address)": "1a895266",
    "unpause()": "3f4ba83a",
    "updateBlacklister(address)": "ad38bf22",
    "updateMasterMinter(address)": "aa20e1e4",
    "updatePauser(address)": "554bab3c"
  },
  "id": 22
}