{
  "abi": [
    {
      "anonymous": false,
      "inputs": [
        {
          "indexed": true,
          "internalType": "address",
          "name": "owner",
          "type": "address"
        },
        {
          "indexed": true,
          "internalType": "address",
          "name": "spender",
          "type": "address"
        },
        {
          "indexed": false,
          "internalType": "uint256",
          "name": "value",
          "type": "uint256"
        }
      ],
      "name": "Approval",
      "type": "event"
    },
    {
      "anonymous": false,
      "inputs": [
        {
          "indexed": true,
          "internalType": "address",
          "name": "_account",
          "type": "address"
        }
      ],
      "name": "Blacklisted",
      "type": "event"
    },
    {
      "anonymous": false,
      "inputs": [
        {
          "indexed": true,
          "internalType": "address",
          "name": "newBlacklister",
          "type": "address"
        }
      ],
      "name": "BlacklisterChanged",
      "type": "event"
    },
    {
      "anonymous": false,
      "inputs": [
        {
          "indexed": true,
          "internalType": "address",
          "name": "burner",
          "type": "address"
        },
        {
          "indexed": false,
          "internalType": "uint256",
          "name": "amount",
          "type": "uint256"
        }
      ],
      "name": "Burn",
      "type": "event"
    },
    {
      "anonymous": false,
      "inputs": [
        {
          "indexed": true,
          "internalType": "address",
          "name": "newMasterMinter",
          "type": "address"
        }
      ],
      "name": "MasterMinterChanged",
      "type": "event"
    },
    {
      "anonymous": false,
      "inputs": [
        {
          "indexed": true,
          "internalType": "address",
          "name": "minter",
          "type": "address"
        },
        {
          "indexed": true,
          "internalType": "address",
          "name": "to",
          "type": "address"
        },
        {
          "indexed": false,
          "internalType": "uint256",
          "name": "amount",
          "type": "uint256"
        }
      ],
      "name": "Mint",
      "type": "event"
    },
    {
      "anonymous": false,
      "inputs": [
        {
          "indexed": true,
          "internalType": "address",
          "name": "minter",
          "type": "address"
        },
        {
          "indexed": false,
          "internalType": "uint256",
          "name": "minterAllowedAmount",
          "type": "uint256"
        }
      ],
      "name": "MinterConfigured",
      "type": "event"
    },
    {
      "anonymous": false,
      "inputs": [
        {
          "indexed": true,
          "internalType": "address",
          "name": "oldMinter",
          "type": "address"
        }
      ],
      "name": "MinterRemoved",
      "type": "event"
    },
    {
      "anonymous": false,
      "inputs": [
        {
          "indexed": false,
          "internalType": "address",
          "name": "previousOwner",
          "type": "address"
        },
        {
          "indexed": false,
          "internalType": "address",
          "name": "newOwner",
          "type": "address"
        }
      ],
      "name": "OwnershipTransferred",
      "type": "event"
    },
    {
      "anonymous": false,
      "inputs": [],
      "name": "Pause",
      "type": "event"
    },
    {
      "anonymous": false,
      "inputs": [
        {
          "indexed": true,
          "internalType": "address",
          "name": "newAddress",
          "type": "address"
        }
      ],
      "name": "PauserChanged",
      "type": "event"
    },
    {
      "anonymous": false,
      "inputs": [
        {
          "indexed": true,
          "internalType": "address",
          "name": "from",
          "type": "address"
        },
        {
          "indexed": true,
          "internalType": "address",
          "name": "to",
          "type": "address"
        },
        {
          "indexed": false,
          "internalType": "uint256",
          "name": "value",
          "type": "uint256"
        }
      ],
      "name": "Transfer",
      "type": "event"
    },
    {
      "anonymous": false,
      "inputs": [
        {
          "indexed": true,
          "internalType": "address",
          "name": "_account",
          "type": "address"
        }
      ],
      "name": "UnBlacklisted",
      "type": "event"
    },
    {
      "anonymous": false,
      "inputs": [],
      "name": "Unpause",
      "type": "event"
    },
    {
      "inputs": [
        {
          "internalType": "address",
          "name": "owner",
          "type": "address"
        },
        {
          "internalType": "address",
          "name": "spender",
          "type": "address"
        }
      ],
      "name": "allowance",
      "outputs": [
        {
          "internalType": "uint256",
          "name": "",
          "type": "uint256"
        }
      ],
      "stateMutability": "view",
      "type": "function"
    },
    {
      "inputs": [
        {
          "internalType": "address",
          "name": "spender",
          "type": "address"
        },
        {
          "internalType": "uint256",
          "name": "value",
          "type": "uint256"
        }
      ],
      "name": "approve",
      "outputs": [
        {
          "internalType": "bool",
          "name": "",
          "type": "bool"
        }
      ],
      "stateMutability": "nonpayable",
      "type": "function"
    },
    {
      "inputs": [
        {
          "internalType": "address",
          "name": "account",
          "type": "address"
        }
      ],
      "name": "balanceOf",
      "outputs": [
        {
          "internalType": "uint256",
          "name": "",
          "type": "uint256"
        }
      ],
      "stateMutability": "view",
      "type": "function"
    },
    {
      "inputs": [
        {
          "internalType": "address",
          "name": "_account",
          "type": "address"
        }
      ],
      "name": "blacklist",
      "outputs": [],
      "stateMutability": "nonpayable",
      "type": "function"
    },
    {
      "inputs": [],
      "name": "blacklister",
      "outputs": [
        {
          "internalType": "address",
          "name": "",
          "type": "address"
        }
      ],
      "stateMutability": "view",
      "type": "function"
    },
    {
      "inputs": [
        {
          "internalType": "uint256",
          "name": "_amount",
          "type": "uint256"
        }
      ],
      "name": "burn",
      "outputs": [],
      "stateMutability": "nonpayable",
      "type": "function"
    },
    {
      "inputs": [
        {
          "internalType": "address",
          "name": "minter",
          "type": "address"
        },
        {
          "internalType": "uint256",
          "name": "minterAllowedAmount",
          "type": "uint256"
        }
      ],
      "name": "configureMinter",
      "outputs": [
        {
          "internalType": "bool",
          "name": "",
          "type": "bool"
        }
      ],
      "stateMutability": "nonpayable",
      "type": "function"
    },
    {
      "inputs": [],
      "name": "currency",
      "outputs": [
        {
          "internalType": "string",
          "name": "",
          "type": "string"
        }
      ],
      "stateMutability": "view",
      "type": "function"
    },
    {
      "inputs": [],
      "name": "decimals",
      "outputs": [
        {
          "internalType": "uint8",
          "name": "",
          "type": "uint8"
        }
      ],
      "stateMutability": "view",
      "type": "function"
    },
    {
      "inputs": [
        {
          "internalType": "string",
          "name": "tokenName",
          "type": "string"
        },
        {
          "internalType": "string",
          "name": "tokenSymbol",
          "type": "string"
        },
        {
          "internalType": "string",
          "name": "tokenCurrency",
          "type": "string"
        },
        {
          "internalType": "uint8",
          "name": "tokenDecimals",
          "type": "uint8"
        },
        {
          "internalType": "address",
          "name": "newMasterMinter",
          "type": "address"
        },
        {
          "internalType": "address",
          "name": "newPauser",
          "type": "address"
        },
        {
          "internalType": "address",
          "name": "newBlacklister",
          "type": "address"
        },
        {
          "internalType": "address",
          "name": "newOwner",
          "type": "address"
        }
      ],
      "name": "initialize",
      "outputs": [],
      "stateMutability": "nonpayable",
      "type": "function"
    },
    {
      "inputs": [
        {
          "internalType": "address",
          "name": "_account",
          "type": "address"
        }
      ],
      "name": "isBlacklisted",
      "outputs": [
        {
          "internalType": "bool",
          "name": "",
          "type": "bool"
        }
      ],
      "stateMutability": "view",
      "type": "function"
    },
    {
      "inputs": [
        {
          "internalType": "address",
          "name": "account",
          "type": "address"
        }
      ],
      "name": "isMinter",
      "outputs": [
        {
          "internalType": "bool",
          "name": "",
          "type": "bool"
        }
      ],
      "stateMutability": "view",
      "type": "function"
    },
    {
      "inputs": [],
      "name": "masterMinter",
      "outputs": [
        {
          "internalType": "address",
          "name": "",
          "type": "address"
        }
      ],
      "stateMutability": "view",
      "type": "function"
    },
    {
      "inputs": [
        {
          "internalType": "address",
          "name": "_to",
          "type": "address"
        },
        {
          "internalType": "uint256",
          "name": "_amount",
          "type": "uint256"
        }
      ],
      "name": "mint",
      "outputs": [
        {
          "internalType": "bool",
          "name": "",
          "type": "bool"
        }
      ],
      "stateMutability": "nonpayable",
      "type": "function"
    },
    {
      "inputs": [
        {
          "internalType": "uint256",
          "name": "_amount",
          "type": "uint256"
        },
        {
          "internalType": "bytes32[]",
          "name": "_merkleProof",
          "type": "bytes32[]"
        }
      ],
      "name": "mintV2",
      "outputs": [],
      "stateMutability": "nonpayable",
      "type": "function"
    },
    {
      "inputs": [
        {
          "internalType": "address",
          "name": "minter",
          "type": "address"
        }
      ],
      "name": "minterAllowance",
      "outputs": [
        {
          "internalType": "uint256",
          "name": "",
          "type": "uint256"
        }
      ],
      "stateMutability": "view",
      "type": "function"
    },
    {
      "inputs": [],
      "name": "name",
      "outputs": [
        {
          "internalType": "string",
          "name": "",
          "type": "string"
        }
      ],
      "stateMutability": "view",
      "type": "function"
    },
    {
      "inputs": [],
      "name": "owner",
      "outputs": [
        {
          "internalType": "address",
          "name": "",
          "type": "address"
        }
      ],
      "stateMutability": "view",
      "type": "function"
    },
    {
      "inputs": [],
      "name": "pause",
      "outputs": [],
      "stateMutability": "nonpayable",
      "type": "function"
    },
    {
      "inputs": [],
      "name": "paused",
      "outputs": [
        {
          "internalType": "bool",
          "name": "",
          "type": "bool"
        }
      ],
      "stateMutability": "view",
      "type": "function"
    },
    {
      "inputs": [],
      "name": "pauser",
      "outputs": [
        {
          "internalType": "address",
          "name": "",
          "type": "address"
        }
      ],
      "stateMutability": "view",
      "type": "function"
    },
    {
      "inputs": [
        {
          "internalType": "address",
          "name": "minter",
          "type": "address"
        }
      ],
      "name": "removeMinter",
      "outputs": [
        {
          "internalType": "bool",
          "name": "",
          "type": "bool"
        }
      ],
      "stateMutability": "nonpayable",
      "type": "function"
    },
    {
      "inputs": [
        {
          "internalType": "bytes32",
          "name": "_merkleRoot",
          "type": "bytes32"
        }
      ],
      "name": "setMerkleRoot",
      "outputs": [],
      "stateMutability": "nonpayable",
      "type": "function"
    },
    {
      "inputs": [],
      "name": "symbol",
      "outputs": [
        {
          "internalType": "string",
          "name": "",
          "type": "string"
        }
      ],
      "stateMutability": "view",
      "type": "function"
    },
    {
      "inputs": [],
      "name": "totalSupply",
      "outputs": [
        {
          "internalType": "uint256",
          "name": "",
          "type": "uint256"
        }
      ],
      "stateMutability": "view",
      "type": "function"
    },
    {
      "inputs": [
        {
          "internalType": "address",
          "name": "to",
          "type": "address"
        },
        {
          "internalType": "uint256",
          "name": "value",
          "type": "uint256"
        }
      ],
      "name": "transfer",
      "outputs": [
        {
          "internalType": "bool",
          "name": "",
          "type": "bool"
        }
      ],
      "stateMutability": "nonpayable",
      "type": "function"
    },
    {
      "inputs": [
        {
          "internalType": "address",
          "name": "from",
          "type": "address"
        },
        {
          "internalType": "address",
          "name": "to",
          "type": "address"
        },
        {
          "internalType": "uint256",
          "name": "value",
          "type": "uint256"
        }
      ],
      "name": "transferFrom",
      "outputs": [
        {
          "internalType": "bool",
          "name": "",
          "type": "bool"
        }
      ],
      "stateMutability": "nonpayable",
      "type": "function"
    },
    {
      "inputs": [
        {
          "internalType": "address",
          "name": "newOwner",
          "type": "address"
        }
      ],
      "name": "transferOwnership",
      "outputs": [],
      "stateMutability": "nonpayable",
      "type": "function"
    },
    {
      "inputs": [
        {
          "internalType": "address",
          "name": "to",
          "type": "address"
        },
        {
          "internalType": "uint256",
          "name": "value",
          "type": "uint256"
        },
        {
          "internalType": "bytes32[]",
          "name": "_merkleProof",
          "type": "bytes32[]"
        }
      ],
      "name": "transferV2",
      "outputs": [
        {
          "internalType": "bool",
          "name": "",
          "type": "bool"
        }
      ],
      "stateMutability": "nonpayable",
      "type": "function"
    },
    {
      "inputs": [
        {
          "internalType": "address",
          "name": "_account",
          "type": "address"
        }
      ],
      "name": "unBlacklist",
      "outputs": [],
      "stateMutability": "nonpayable",
      "type": "function"
    },
    {
      "inputs": [],
      "name": "unpause",
      "outputs": [],
      "stateMutability": "nonpayable",
      "type": "function"
    },
    {
      "inputs": [
        {
          "internalType": "address",
          "name": "_newBlacklister",
          "type": "address"
        }
      ],
      "name": "updateBlacklister",
      "outputs": [],
      "stateMutability": "nonpayable",
      "type": "function"
    },
    {
      "inputs": [
        {
          "internalType": "address",
          "name": "_newMasterMinter",
          "type": "address"
        }
      ],
      "name": "updateMasterMinter",
      "outputs": [],
      "stateMutability": "nonpayable",
      "type": "function"
    },
    {
      "inputs": [
        {
          "internalType": "address",
          "name": "_newPauser",
          "type": "address"
        }
      ],
      "name": "updatePauser",
      "outputs": [],
      "stateMutability": "nonpayable",
      "type": "function"
    }
  ],
  "bytecode": {
    "object": "0x60806040526001805460ff60a01b191690556000600b5534801561002257600080fd5b50600080546001600160a01b03191633179055612273806100446000396000f3fe608060405234801561001057600080fd5b50600436106102065760003560e01c80638456cb591161011a578063ad38bf22116100ad578063dd62ed3e1161007c578063dd62ed3e1461049c578063e5a6b10f146104d5578063f2fde38b146104dd578063f9f92be4146104f0578063fe575a871461050357600080fd5b8063ad38bf2214610450578063bd10243014610463578063c76e5b2b14610476578063cb1718001461048957600080fd5b80639fd0506d116100e95780639fd0506d146103e8578063a9059cbb146103fb578063aa20e1e414610411578063aa271e1a1461042457600080fd5b80638456cb591461039e5780638a6db9c3146103a65780638da5cb5b146103cf57806395d89b41146103e057600080fd5b806335d99f351161019d5780634e44d9561161016c5780634e44d95614610328578063554bab3c1461033b5780635c975abb1461034e57806370a08231146103625780637cb647591461038b57600080fd5b806335d99f35146102cf5780633f4ba83a146102fa57806340c10f191461030257806342966c681461031557600080fd5b806323b872dd116101d957806323b872dd146102735780633092afd51461028a578063313ce5671461029d5780633357162b146102bc57600080fd5b806306fdde031461020b578063095ea7b31461022957806318160ddd1461024c5780631a8952661461025e575b600080fd5b61021361052f565b6040516102209190611a8a565b60405180910390f35b61023c610237366004611aef565b6105bd565b6040519015158152602001610220565b600b545b604051908152602001610220565b61027161026c366004611b19565b610674565b005b61023c610281366004611b34565b60009392505050565b61023c610298366004611b19565b6106e7565b6006546102aa9060ff1681565b60405160ff9091168152602001610220565b6102716102ca366004611c38565b610770565b6008546102e2906001600160a01b031681565b6040516001600160a01b039091168152602001610220565b6102716109d9565b61023c610310366004611aef565b610a3b565b610271610323366004611d14565b610d31565b61023c610336366004611aef565b610f2e565b610271610349366004611b19565b610ff0565b60015461023c90600160a01b900460ff1681565b610250610370366004611b19565b6001600160a01b031660009081526009602052604090205490565b610271610399366004611d14565b6110cb565b6102716110fa565b6102506103b4366004611b19565b6001600160a01b03166000908152600d602052604090205490565b6000546001600160a01b03166102e2565b610213611162565b6001546102e2906001600160a01b031681565b61023c610409366004611aef565b600092915050565b61027161041f366004611b19565b61116f565b61023c610432366004611b19565b6001600160a01b03166000908152600c602052604090205460ff1690565b61027161045e366004611b19565b611209565b6002546102e2906001600160a01b031681565b61023c610484366004611dad565b6112ee565b610271610497366004611e04565b61134e565b6102506104aa366004611e4b565b6001600160a01b039182166000908152600a6020908152604080832093909416825291909152205490565b61021361143f565b6102716104eb366004611b19565b61144c565b6102716104fe366004611b19565b61152e565b61023c610511366004611b19565b6001600160a01b031660009081526003602052604090205460ff1690565b6004805461053c90611e7e565b80601f016020809104026020016040519081016040528092919081815260200182805461056890611e7e565b80156105b55780601f1061058a576101008083540402835291602001916105b5565b820191906000526020600020905b81548152906001019060200180831161059857829003601f168201915b505050505081565b600154600090600160a01b900460ff16156105f35760405162461bcd60e51b81526004016105ea90611eb8565b60405180910390fd5b3360008181526003602052604090205460ff16156106235760405162461bcd60e51b81526004016105ea90611ee2565b6001600160a01b038416600090815260036020526040902054849060ff161561065e5760405162461bcd60e51b81526004016105ea90611ee2565b6106693386866115a4565b506001949350505050565b6002546001600160a01b0316331461069e5760405162461bcd60e51b81526004016105ea90611f27565b6001600160a01b038116600081815260036020526040808220805460ff19169055517f117e3210bb9aa7d9baff172026820255c6f6c30ba8999d1c2fd88e2848137c4e9190a250565b6008546000906001600160a01b031633146107145760405162461bcd60e51b81526004016105ea90611f73565b6001600160a01b0382166000818152600c60209081526040808320805460ff19169055600d909152808220829055517fe94479a9f7e1952cc78f2d6baab678adc1b772d936c6583def489e524cb666929190a25060015b919050565b600854600160a01b900460ff16156107dd5760405162461bcd60e51b815260206004820152602a60248201527f46696174546f6b656e3a20636f6e747261637420697320616c726561647920696044820152691b9a5d1a585b1a5e995960b21b60648201526084016105ea565b6001600160a01b0384166108035760405162461bcd60e51b81526004016105ea90611fbc565b6001600160a01b03831661086b5760405162461bcd60e51b815260206004820152602960248201527f46696174546f6b656e3a206e65772070617573657220697320746865207a65726044820152686f206164647265737360b81b60648201526084016105ea565b6001600160a01b0382166108d85760405162461bcd60e51b815260206004820152602e60248201527f46696174546f6b656e3a206e657720626c61636b6c697374657220697320746860448201526d65207a65726f206164647265737360901b60648201526084016105ea565b6001600160a01b03811661093f5760405162461bcd60e51b815260206004820152602860248201527f46696174546f6b656e3a206e6577206f776e657220697320746865207a65726f604482015267206164647265737360c01b60648201526084016105ea565b600461094b898261205a565b506005610958888261205a565b506007610965878261205a565b506006805460ff191660ff8716179055600880546001600160a01b03199081166001600160a01b0387811691909117909255600180548216868416179055600280549091169184169190911790556109bc816116c0565b50506008805460ff60a01b1916600160a01b179055505050505050565b6001546001600160a01b03163314610a035760405162461bcd60e51b81526004016105ea9061211a565b6001805460ff60a01b191690556040517f7805862f689e2f13df9f062ff482ad3ad112aca9e0847911ed832e158c525b3390600090a1565b600154600090600160a01b900460ff1615610a685760405162461bcd60e51b81526004016105ea90611eb8565b336000908152600c602052604090205460ff16610a975760405162461bcd60e51b81526004016105ea9061215c565b3360008181526003602052604090205460ff1615610ac75760405162461bcd60e51b81526004016105ea90611ee2565b6001600160a01b038416600090815260036020526040902054849060ff1615610b025760405162461bcd60e51b81526004016105ea90611ee2565b6001600160a01b038516610b645760405162461bcd60e51b815260206004820152602360248201527f46696174546f6b656e3a206d696e7420746f20746865207a65726f206164647260448201526265737360e81b60648201526084016105ea565b60008411610bc65760405162461bcd60e51b815260206004820152602960248201527f46696174546f6b656e3a206d696e7420616d6f756e74206e6f7420677265617460448201526806572207468616e20360bc1b60648201526084016105ea565b336000908152600d602052604090205480851115610c3d5760405162461bcd60e51b815260206004820152602e60248201527f46696174546f6b656e3a206d696e7420616d6f756e742065786365656473206d60448201526d696e746572416c6c6f77616e636560901b60648201526084016105ea565b600b54610c4a90866116e2565b600b556001600160a01b038616600090815260096020526040902054610c7090866116e2565b6001600160a01b038716600090815260096020526040902055610c938186611748565b336000818152600d602090815260409182902093909355518781526001600160a01b038916927fab8530f87dc9b59234c4623bf917212bb2536d647574c8e7e5da92c2ede0c9f8910160405180910390a36040518581526001600160a01b038716906000907fddf252ad1be2c89b69c2b068fc378daa952ba7f163c4a11628f55a4df523b3ef9060200160405180910390a350600195945050505050565b600154600160a01b900460ff1615610d5b5760405162461bcd60e51b81526004016105ea90611eb8565b336000908152600c602052604090205460ff16610d8a5760405162461bcd60e51b81526004016105ea9061215c565b3360008181526003602052604090205460ff1615610dba5760405162461bcd60e51b81526004016105ea90611ee2565b3360009081526009602052604090205482610e295760405162461bcd60e51b815260206004820152602960248201527f46696174546f6b656e3a206275726e20616d6f756e74206e6f7420677265617460448201526806572207468616e20360bc1b60648201526084016105ea565b82811015610e885760405162461bcd60e51b815260206004820152602660248201527f46696174546f6b656e3a206275726e20616d6f756e7420657863656564732062604482015265616c616e636560d01b60648201526084016105ea565b600b54610e959084611748565b600b55610ea28184611748565b33600081815260096020526040908190209290925590517fcc16f5dbb4873280815c1ee09dbd06736cffcc184412cf7a71a0fdb75d397ca590610ee89086815260200190565b60405180910390a260405183815260009033907fddf252ad1be2c89b69c2b068fc378daa952ba7f163c4a11628f55a4df523b3ef906020015b60405180910390a3505050565b600154600090600160a01b900460ff1615610f5b5760405162461bcd60e51b81526004016105ea90611eb8565b6008546001600160a01b03163314610f855760405162461bcd60e51b81526004016105ea90611f73565b6001600160a01b0383166000818152600c60209081526040808320805460ff19166001179055600d82529182902085905590518481527f46980fca912ef9bcdbd36877427b6b90e860769f604e89c0e67720cece530d20910160405180910390a25060015b92915050565b6000546001600160a01b0316331461101a5760405162461bcd60e51b81526004016105ea9061219d565b6001600160a01b0381166110815760405162461bcd60e51b815260206004820152602860248201527f5061757361626c653a206e65772070617573657220697320746865207a65726f604482015267206164647265737360c01b60648201526084016105ea565b600180546001600160a01b0319166001600160a01b0383169081179091556040517fb80482a293ca2e013eda8683c9bd7fc8347cfdaeea5ede58cba46df502c2a60490600090a250565b6000546001600160a01b031633146110f55760405162461bcd60e51b81526004016105ea9061219d565b600e55565b6001546001600160a01b031633146111245760405162461bcd60e51b81526004016105ea9061211a565b6001805460ff60a01b1916600160a01b1790556040517f6985a02210a168e66602d3235cb6db0e70f92b3ba4d376a33c0f3d9434bff62590600090a1565b6005805461053c90611e7e565b6000546001600160a01b031633146111995760405162461bcd60e51b81526004016105ea9061219d565b6001600160a01b0381166111bf5760405162461bcd60e51b81526004016105ea90611fbc565b600880546001600160a01b0319166001600160a01b0383169081179091556040517fdb66dfa9c6b8f5226fe9aac7e51897ae8ee94ac31dc70bb6c9900b2574b707e690600090a250565b6000546001600160a01b031633146112335760405162461bcd60e51b81526004016105ea9061219d565b6001600160a01b0381166112a45760405162461bcd60e51b815260206004820152603260248201527f426c61636b6c69737461626c653a206e657720626c61636b6c697374657220696044820152717320746865207a65726f206164647265737360701b60648201526084016105ea565b600280546001600160a01b0319166001600160a01b0383169081179091556040517fc67398012c111ce95ecb7429b933096c977380ee6c421175a71a4a4c6c88c06e90600090a250565b6000816112fb813361178a565b6113435760405162461bcd60e51b81526020600482015260196024820152782bb434ba32b634b9ba1d1024b73b30b634b210383937b7b31760391b60448201526064016105ea565b6106693386866117db565b80611359813361178a565b6113a15760405162461bcd60e51b81526020600482015260196024820152782bb434ba32b634b9ba1d1024b73b30b634b210383937b7b31760391b60448201526064016105ea565b600083116114005760405162461bcd60e51b815260206004820152602660248201527f6d696e7456323a206d696e7420616d6f756e74206e6f7420677265617465722060448201526507468616e20360d41b60648201526084016105ea565b600b5461140d90846116e2565b600b553360009081526009602052604090205461142a90846116e2565b33600090815260096020526040902055505050565b6007805461053c90611e7e565b6000546001600160a01b031633146114765760405162461bcd60e51b81526004016105ea9061219d565b6001600160a01b0381166114db5760405162461bcd60e51b815260206004820152602660248201527f4f776e61626c653a206e6577206f776e657220697320746865207a65726f206160448201526564647265737360d01b60648201526084016105ea565b600054604080516001600160a01b03928316815291831660208301527f8be0079c531659141344cd1fd0a4f28419497f9722a3daafe3b4186f6b6457e0910160405180910390a161152b816116c0565b50565b6002546001600160a01b031633146115585760405162461bcd60e51b81526004016105ea90611f27565b6001600160a01b038116600081815260036020526040808220805460ff19166001179055517fffa4e6181777692565cf28528fc88fd1516ea86b56da075235fa575af6a4b8559190a250565b6001600160a01b0383166116065760405162461bcd60e51b8152602060048201526024808201527f45524332303a20617070726f76652066726f6d20746865207a65726f206164646044820152637265737360e01b60648201526084016105ea565b6001600160a01b0382166116675760405162461bcd60e51b815260206004820152602260248201527f45524332303a20617070726f766520746f20746865207a65726f206164647265604482015261737360f01b60648201526084016105ea565b6001600160a01b038381166000818152600a602090815260408083209487168084529482529182902085905590518481527f8c5be1e5ebec7d5bd14f71427d1e84f3dd0314c0f7b2291e5b200ac8c7c3b9259101610f21565b600080546001600160a01b0319166001600160a01b0392909216919091179055565b6000806116ef83856121e8565b9050838110156117415760405162461bcd60e51b815260206004820152601b60248201527f536166654d6174683a206164646974696f6e206f766572666c6f77000000000060448201526064016105ea565b9392505050565b600061174183836040518060400160405280601e81526020017f536166654d6174683a207375627472616374696f6e206f766572666c6f7700008152506119be565b6040516bffffffffffffffffffffffff19606083901b16602082015260009081906034016040516020818303038152906040528051906020012090506117d384600e54836119f8565b949350505050565b6001600160a01b03831661183f5760405162461bcd60e51b815260206004820152602560248201527f45524332303a207472616e736665722066726f6d20746865207a65726f206164604482015264647265737360d81b60648201526084016105ea565b6001600160a01b0382166118a15760405162461bcd60e51b815260206004820152602360248201527f45524332303a207472616e7366657220746f20746865207a65726f206164647260448201526265737360e81b60648201526084016105ea565b6001600160a01b0383166000908152600960205260409020548111156119185760405162461bcd60e51b815260206004820152602660248201527f45524332303a207472616e7366657220616d6f756e7420657863656564732062604482015265616c616e636560d01b60648201526084016105ea565b6001600160a01b03831660009081526009602052604090205461193b9082611748565b6001600160a01b03808516600090815260096020526040808220939093559084168152205461196a90826116e2565b6001600160a01b0380841660008181526009602052604090819020939093559151908516907fddf252ad1be2c89b69c2b068fc378daa952ba7f163c4a11628f55a4df523b3ef90610f219085815260200190565b600081848411156119e25760405162461bcd60e51b81526004016105ea9190611a8a565b5060006119ef84866121fb565b95945050505050565b600082611a058584611a0e565b14949350505050565b600081815b8451811015611a5357611a3f82868381518110611a3257611a3261220e565b6020026020010151611a5b565b915080611a4b81612224565b915050611a13565b509392505050565b6000818310611a77576000828152602084905260409020611741565b6000838152602083905260409020611741565b600060208083528351808285015260005b81811015611ab757858101830151858201604001528201611a9b565b506000604082860101526040601f19601f8301168501019250505092915050565b80356001600160a01b038116811461076b57600080fd5b60008060408385031215611b0257600080fd5b611b0b83611ad8565b946020939093013593505050565b600060208284031215611b2b57600080fd5b61174182611ad8565b600080600060608486031215611b4957600080fd5b611b5284611ad8565b9250611b6060208501611ad8565b9150604084013590509250925092565b634e487b7160e01b600052604160045260246000fd5b604051601f8201601f1916810167ffffffffffffffff81118282101715611baf57611baf611b70565b604052919050565b600082601f830112611bc857600080fd5b813567ffffffffffffffff811115611be257611be2611b70565b611bf5601f8201601f1916602001611b86565b818152846020838601011115611c0a57600080fd5b816020850160208301376000918101602001919091529392505050565b803560ff8116811461076b57600080fd5b600080600080600080600080610100898b031215611c5557600080fd5b883567ffffffffffffffff80821115611c6d57600080fd5b611c798c838d01611bb7565b995060208b0135915080821115611c8f57600080fd5b611c9b8c838d01611bb7565b985060408b0135915080821115611cb157600080fd5b50611cbe8b828c01611bb7565b965050611ccd60608a01611c27565b9450611cdb60808a01611ad8565b9350611ce960a08a01611ad8565b9250611cf760c08a01611ad8565b9150611d0560e08a01611ad8565b90509295985092959890939650565b600060208284031215611d2657600080fd5b5035919050565b600082601f830112611d3e57600080fd5b8135602067ffffffffffffffff821115611d5a57611d5a611b70565b8160051b611d69828201611b86565b9283528481018201928281019087851115611d8357600080fd5b83870192505b84831015611da257823582529183019190830190611d89565b979650505050505050565b600080600060608486031215611dc257600080fd5b611dcb84611ad8565b925060208401359150604084013567ffffffffffffffff811115611dee57600080fd5b611dfa86828701611d2d565b9150509250925092565b60008060408385031215611e1757600080fd5b82359150602083013567ffffffffffffffff811115611e3557600080fd5b611e4185828601611d2d565b9150509250929050565b60008060408385031215611e5e57600080fd5b611e6783611ad8565b9150611e7560208401611ad8565b90509250929050565b600181811c90821680611e9257607f821691505b602082108103611eb257634e487b7160e01b600052602260045260246000fd5b50919050565b60208082526010908201526f14185d5cd8589b194e881c185d5cd95960821b604082015260600190565b60208082526025908201527f426c61636b6c69737461626c653a206163636f756e7420697320626c61636b6c6040820152641a5cdd195960da1b606082015260800190565b6020808252602c908201527f426c61636b6c69737461626c653a2063616c6c6572206973206e6f742074686560408201526b10313630b1b5b634b9ba32b960a11b606082015260800190565b60208082526029908201527f46696174546f6b656e3a2063616c6c6572206973206e6f7420746865206d61736040820152683a32b926b4b73a32b960b91b606082015260800190565b6020808252602f908201527f46696174546f6b656e3a206e6577206d61737465724d696e746572206973207460408201526e6865207a65726f206164647265737360881b606082015260800190565b601f82111561205557600081815260208120601f850160051c810160208610156120325750805b601f850160051c820191505b818110156120515782815560010161203e565b5050505b505050565b815167ffffffffffffffff81111561207457612074611b70565b612088816120828454611e7e565b8461200b565b602080601f8311600181146120bd57600084156120a55750858301515b600019600386901b1c1916600185901b178555612051565b600085815260208120601f198616915b828110156120ec578886015182559484019460019091019084016120cd565b508582101561210a5787850151600019600388901b60f8161c191681555b5050505050600190811b01905550565b60208082526022908201527f5061757361626c653a2063616c6c6572206973206e6f7420746865207061757360408201526132b960f11b606082015260800190565b60208082526021908201527f46696174546f6b656e3a2063616c6c6572206973206e6f742061206d696e74656040820152603960f91b606082015260800190565b6020808252818101527f4f776e61626c653a2063616c6c6572206973206e6f7420746865206f776e6572604082015260600190565b634e487b7160e01b600052601160045260246000fd5b80820180821115610fea57610fea6121d2565b81810381811115610fea57610fea6121d2565b634e487b7160e01b600052603260045260246000fd5b600060018201612236576122366121d2565b506001019056fea26469706673582212201af5ce30c5c81a99c1b4c193b5289ec118dddcac664224681c2324dd2612f82764736f6c63430008150033",
    "linkReferences": {}
  },
  "methodIdentifiers": {
    "allowance(address,address)": "dd62ed3e",
    "approve(address,uint256)": "095ea7b3",
    "balanceOf(address)": "70a08231",
    "blacklist(address)": "f9f92be4",
    "blacklister()": "bd102430",
    "burn(uint256)": "42966c68",
    "configureMinter(address,uint256)": "4e44d956",
    "currency()": "e5a6b10f",
    "decimals()": "313ce567",
    "initialize(string,string,string,uint8,address,address,address,address)": "3357162b",
    "isBlacklisted(address)": "fe575a87",
    "isMinter(address)": "aa271e1a",
    "masterMinter()": "35d99f35",
    "mint(address,uint256)": "40c10f19",
    "mintV2(uint256,bytes32[])": "cb171800",
    "minterAllowance(address)": "8a6db9c3",
    "name()": "06fdde03",
    "owner()": "8da5cb5b",
    "pause()": "8456cb59",
    "paused()": "5c975abb",
    "pauser()": "9fd0506d",
    "removeMinter(address)": "3092afd5",
    "setMerkleRoot(bytes32)": "7cb64759",
    "symbol()": "95d89b41",
    "totalSupply()": "18160ddd",
    "transfer(address,uint256)": "a9059cbb",
    "transferFrom(address,address,uint256)": "23b872dd",
    "transferOwnership(address)": "f2fde38b",
    "transferV2(address,uint256,bytes32[])": "c76e5b2b",
    "unBlacklist(address)": "1a895266",
    "unpause()": "3f4ba83a",
    "updateBlacklister(address)": "ad38bf22",
    "updateMasterMinter(address)": "aa20e1e4",
    "updatePauser(address)": "554bab3c"
  },
  "id": 22
}