{
  "abi": [
    {
      "inputs": [
        {
          "internalType": "address",
          "name": "_implementation",
          "type": "address"
        }
      ],
      "stateMutability": "nonpayable",
      "type": "constructor"
    },
    {
      "stateMutability": "payable",
      "type": "fallback"
    },
    {
      "inputs": [],
      "name": "getOwner",
      "outputs": [
        {
          "internalType": "address",
          "name": "owner",
          "type": "address"
        }
      ],
      "stateMutability": "view",
      "type": "function"
    },
    {
      "inputs": [],
      "name": "implementation",
      "outputs": [
        {
          "internalType": "address",
          "name": "impl",
          "type": "address"
        }
      ],
      "stateMutability": "view",
      "type": "function"
    },
    {
      "inputs": [
        {
          "internalType": "address",
          "name": "newOwner",
          "type": "address"
        }
      ],
      "name": "transferOwnership",
      "outputs": [],
      "stateMutability": "nonpayable",
      "type": "function"
    },
    {
      "inputs": [
        {
          "internalType": "address",
          "name": "_implementation",
          "type": "address"
        }
      ],
      "name": "upgradeTo",
      "outputs": [],
      "stateMutability": "nonpayable",
      "type": "function"
    },
    {
      "stateMutability": "payable",
      "type": "receive"
    }
  ],
  "bytecode": {
    "object": "0x608060405234801561001057600080fd5b5060405161042f38038061042f83398101604081905261002f91610091565b610057817f360894a13ba1a3210667c828492db98dca3e2076cc3735a920a3ca505d382bbc55565b61006033610066565b506100c1565b61008e817fa7b53796fd2d99cb1f5ae019b54f9e024446c3d12b483f733ccc62ed04eb126b55565b50565b6000602082840312156100a357600080fd5b81516001600160a01b03811681146100ba57600080fd5b9392505050565b61035f806100d06000396000f3fe6080604052600436106100435760003560e01c80633659cfe61461007c5780635c60da1b1461009c578063893d20e8146100e8578063f2fde38b1461010a5761004a565b3661004a57005b61007a6100757f360894a13ba1a3210667c828492db98dca3e2076cc3735a920a3ca505d382bbc5490565b61012a565b005b34801561008857600080fd5b5061007a6100973660046102d9565b61014e565b3480156100a857600080fd5b507f360894a13ba1a3210667c828492db98dca3e2076cc3735a920a3ca505d382bbc545b6040516001600160a01b03909116815260200160405180910390f35b3480156100f457600080fd5b5060008051602061030a833981519152546100cc565b34801561011657600080fd5b5061007a6101253660046102d9565b6101ee565b3660008037600080366000845af43d6000803e808015610149573d6000f35b3d6000fd5b60008051602061030a833981519152546001600160a01b0316336001600160a01b0316146101c35760405162461bcd60e51b815260206004820181905260248201527f4f776e61626c653a2063616c6c6572206973206e6f7420746865206f776e657260448201526064015b60405180910390fd5b6101eb817f360894a13ba1a3210667c828492db98dca3e2076cc3735a920a3ca505d382bbc55565b50565b60008051602061030a833981519152546001600160a01b0316336001600160a01b03161461025e5760405162461bcd60e51b815260206004820181905260248201527f4f776e61626c653a2063616c6c6572206973206e6f7420746865206f776e657260448201526064016101ba565b6001600160a01b0381166102c35760405162461bcd60e51b815260206004820152602660248201527f4f776e61626c653a206e6577206f776e657220697320746865207a65726f206160448201526564647265737360d01b60648201526084016101ba565b6101eb8160008051602061030a83398151915255565b6000602082840312156102eb57600080fd5b81356001600160a01b038116811461030257600080fd5b939250505056fea7b53796fd2d99cb1f5ae019b54f9e024446c3d12b483f733ccc62ed04eb126ba2646970667358221220d90851c141c35b81ac08fb8d14405ba2345a922b4ec61c18e4472e3db27abd1a64736f6c63430008130033",
    "linkReferences": {}
  },
  "methodIdentifiers": {
    "getOwner()": "893d20e8",
    "implementation()": "5c60da1b",
    "transferOwnership(address)": "f2fde38b",
    "upgradeTo(address)": "3659cfe6"
  },
  "id": 25
}